:020000040800F2
:10000000002800206D1D00081D1B0008231B000890
:10001000291B00082F1B0008351B000800000000EA
:100020000000000000000000000000003B1B000872
:10003000471B000800000000531B00085F1B00085E
:10004000B51D0008B51D0008B51D0008B51D000848
:10005000B51D0008B51D0008B51D0008B51D000838
:10006000B51D0008B51D0008B51D0008B51D000828
:10007000B51D0008B51D0008B51D0008B51D000818
:10008000B51D0008B51D0008B51D0008B51D000808
:10009000B51D0008B51D0008B51D0008B51D0008F8
:1000A000B51D0008B51D0008B51D0008B51D0008E8
:1000B0006D1B0008B51D000800000000B51D0008FC
:1000C000B51D00080000000000000000B51D00087C
:1000D00000000000B51D0008B51D0008000000006C
:1000E000B51D0008B51D0008B51D00080000000082
:1000F0000000000000000000000000000000000000
:0C01000000000000000000005FF808F1A3
:10010C0010B5054C237833B9044B13B10448AFF345
:10011C0000800123237010BD24000020000000008B
:10012C00E433000808B5034B1BB103490348AFF394
:10013C00008008BD0000000028000020E433000807
:10014C0080B500AF1C4B1B68002B19D11B4B1B68D7
:10015C00184600F09DF8194B5B68184600F04AFAF7
:10016C0000224FF48041164802F021F901224FF48D
:10017C000041134802F01BF90F4B01221A6018E0E2
:10018C000E4B9B68184600F083F80C4BDB68184646
:10019C0000F030FA01224FF48041094802F007F9CF
:1001AC0000224FF40041064802F001F9024B0022F4
:1001BC001A6000BF80BD00BF40000020440000203A
:1001CC00000C014080B485B000AF786039607B686A
:1001DC00204A82FB03125211DB17D31AFB603B68D7
:1001EC001C4A82FB03125211DB17D31ABB60FB684B
:1001FC00194A82FB03129210DB17D31A174A1360A9
:10020C00F968154B83FB01239A10CB17D21A1346AE
:10021C009B0013445B00CA1A104B5A60BB680E4A11
:10022C0082FB03129210DB17D31A0C4A9360B96845
:10023C00094B83FB01239A10CB17D21A13469B0050
:10024C0013445B00CA1A054BDA6000BF1437BD4675
:10025C0080BC70471F85EB516766666644000020C2
:10026C0080B500AF01224FF48041084802F09FF89E
:10027C0001224FF40041054802F099F80A2000F0E1
:10028C0007F80A2000F0B6F900BF80BD000C014051
:10029C0080B582B000AF78607B68092B00F280815A
:1002AC0001A252F823F000BFDD020008250300086C
:1002BC006D030008B5030008FD03000845040008A1
:1002CC008D040008D50400081D050008650500080C
:1002DC0000220121C64802F06AF800220221C4481B
:1002EC0002F065F800220421C14802F060F80022F7
:1002FC000821BF4802F05BF800221021BC4802F034
:10030C0056F800222021BA4802F051F8012240216F
:10031C00B74802F04CF867E101220121B44802F021
:10032C0046F800220221B24802F041F800220421D2
:10033C00AF4802F03CF801220821AD4802F037F832
:10034C0001221021AA4802F032F801222021A848EB
:10035C0002F02DF801224021A54802F028F843E1D3
:10036C0000220121A24802F022F800220221A0481A
:10037C0002F01DF8012204219D4802F018F8002219
:10038C0008219B4802F013F800221021984802F033
:10039C000EF801222021964802F009F80022402193
:1003AC00934802F004F81FE100220121904801F06B
:1003BC00FEFF002202218E4801F0F9FF00220421E9
:1003CC008B4801F0F4FF00220821894801F0EFFF6F
:1003DC0001221021864801F0EAFF012220218448E5
:1003EC0001F0E5FF00224021814801F0E0FFFBE035
:1003FC00012201217E4801F0DAFF002202217C4813
:10040C0001F0D5FF00220421794801F0D0FF012230
:10041C000821774801F0CBFF01221021744801F02C
:10042C00C6FF00222021724801F0C1FF00224021AA
:10043C006F4801F0BCFFD7E0002201216C4801F0AD
:10044C00B6FF012202216A4801F0B1FF002204210B
:10045C00674801F0ACFF00220821654801F0A7FFB6
:10046C0001221021624801F0A2FF002220216048E5
:10047C0001F09DFF002240215D4801F098FFB3E0A0
:10048C00002201215A4801F092FF01220221584812
:10049C0001F08DFF00220421554801F088FF002255
:1004AC000821534801F083FF00221021504801F02D
:1004BC007EFF002220214E4801F079FF00224021CE
:1004CC004B4801F074FF8FE000220121484801F0F5
:1004DC006EFF00220221464801F069FF0022042130
:1004EC00434801F064FF01220821414801F05FFFFD
:1004FC00012210213E4801F05AFF012220213C48E4
:10050C0001F055FF01224021394801F050FF6BE00A
:10051C0000220121364801F04AFF00220221344812
:10052C0001F045FF00220421314801F040FF002278
:10053C0008212F4801F03BFF002210212C4801F02C
:10054C0036FF002220212A4801F031FF00224021F1
:10055C00274801F02CFF47E000220121244801F03C
:10056C0026FF00220221224801F021FF0022042153
:10057C001F4801F01CFF002208211D4801F017FF45
:10058C00012210211A4801F012FF002220211848E4
:10059C0001F00DFF00224021154801F008FF23E077
:1005AC0001220121124801F002FF01220221104810
:1005BC0001F0FDFE012204210D4801F0F8FE01229C
:1005CC0008210B4801F0F3FE01221021084801F02C
:1005DC00EEFE01222021064801F0E9FE0122402115
:1005EC00034801F0E4FE00BF00BF0837BD4680BDE4
:1005FC00000C014080B582B000AF78607B68092B9D
:10060C0000F2BE8101A252F823F000BF410600089F
:10061C0095060008E90600083D0700089107000848
:10062C00E5070008390800088D080008E1080008F3
:10063C003509000800228021D04801F0B8FE0022C4
:10064C004FF48071CD4801F0B2FE00224FF40071DE
:10065C00CA4801F0ACFE00224FF48061C74801F09B
:10066C00A6FE00224FF40061C44801F0A0FE002257
:10067C004FF48051C14801F09AFE01224FF4005111
:10068C00BE4801F094FEA5E101228021BB4801F097
:10069C008EFE00224FF48071B84801F088FE0022D3
:1006AC004FF40071B54801F082FE01224FF48061D5
:1006BC00B24801F07CFE01224FF40061AF4801F01A
:1006CC0076FE01224FF48051AC4801F070FE0122FD
:1006DC004FF40051A94801F06AFE7BE10022802111
:1006EC00A64801F064FE00224FF48071A34801F08B
:1006FC005EFE01224FF40071A04801F058FE00226A
:10070C004FF480619D4801F052FE00224FF40061CD
:10071C009A4801F04CFE01224FF48051974801F0A9
:10072C0046FE00224FF40051944801F040FE51E186
:10073C0000228021914801F03AFE00224FF4807192
:10074C008E4801F034FE00224FF400718B4801F00A
:10075C002EFE00224FF48061884801F028FE012211
:10076C004FF40061854801F022FE01224FF48051C4
:10077C00824801F01CFE00224FF400517F4801F02A
:10078C0016FE27E1012280217C4801F010FE002298
:10079C004FF48071794801F00AFE00224FF4007189
:1007AC00764801F004FE01224FF48061734801F099
:1007BC00FEFD01224FF40061704801F0F8FD0022AB
:1007CC004FF480516D4801F0F2FD00224FF40051BE
:1007DC006A4801F0ECFDFDE000228021674801F041
:1007EC00E6FD01224FF48071644801F0E0FD002227
:1007FC004FF40071614801F0DAFD00224FF4806182
:10080C005E4801F0D4FD01224FF400615B4801F019
:10081C00CEFD00224FF48051584801F0C8FD002253
:10082C004FF40051554801F0C2FDD3E00022802165
:10083C00524801F0BCFD01224FF480714F4801F089
:10084C00B6FD00224FF400714C4801F0B0FD0022BF
:10085C004FF48061494801F0AAFD00224FF4006179
:10086C00464801F0A4FD00224FF48051434801F0AA
:10087C009EFD00224FF40051404801F098FDA9E084
:10088C00002280213D4801F092FD00224FF480713E
:10089C003A4801F08CFD00224FF40071374801F00A
:1008AC0086FD01224FF48061344801F080FD012265
:1008BC004FF40061314801F07AFD01224FF4805170
:1008CC002E4801F074FD01224FF400512B4801F029
:1008DC006EFD7FE000228021284801F068FD002297
:1008EC004FF48071254801F062FD00224FF4007135
:1008FC00224801F05CFD00224FF480611F4801F09A
:10090C0056FD00224FF400611C4801F050FD0022FE
:10091C004FF48051194801F04AFD00224FF4005168
:10092C00164801F044FD55E000228021134801F0E7
:10093C003EFD00224FF48071104801F038FD00227A
:10094C004FF400710D4801F032FD00224FF480612C
:10095C000A4801F02CFD01224FF40061074801F018
:10096C0026FD00224FF48051044801F020FD0022A6
:10097C004FF40051014801F01AFD2BE0000C01402E
:10098C0001228021154801F012FD01224FF48071E3
:10099C00124801F00CFD01224FF400710F4801F0D8
:1009AC0006FD01224FF480610C4801F000FD01228C
:1009BC004FF40061094801F0FAFC01224FF4805118
:1009CC00064801F0F4FC01224FF40051034801F0F9
:1009DC00EEFC00BF00BF0837BD4680BD000C0140D7
:1009EC0080B483B000AF00237B603FE0244A7B6877
:1009FC00012142F82310224A7B6852F82320214916
:100A0C007B6841F823201F4A7B6852F823201E493B
:100A1C007B6841F823201D4A7B68012142F8231092
:100A2C001B4A7B68002142F823101A4A7B6800217C
:100A3C0042F82310184A7B68002142F82310174A09
:100A4C007B68002142F82310154A7B68002142F88C
:100A5C002310144A7B68002142F82310124A7B6849
:100A6C00002142F823107B6801337B607B68022BEA
:100A7C00BCDD00BF00BF0C37BD4680BC704700BF5B
:100A8C006C00002060000020540000207800002042
:100A9C0084000020900000209C000020A800002072
:100AAC00B4000020C0000020CC00002080B582B033
:100ABC0000AF00237B60DDE0734A7B6852F8232093
:100ACC0072497B6841F82320714A7B6852F82320D5
:100ADC006D497B6841F823206E4A7B6852F82320CD
:100AEC006D497B6831F813301946104601F048FC0B
:100AFC0003461946664A7B6842F82310634A7B68B2
:100B0C0052F8232060497B6851F823309A4240F018
:100B1C00AE805D4A7B6852F823205D497B6851F8B2
:100B2C0023309A4240F0A3805C4A7B6852F8232021
:100B3C0057497B6851F823309A424ED0574A7B680C
:100B4C0052F82330002B34D1514A7B6852F82330B1
:100B5C00012B2ED1524A7B68012142F82310514AB5
:100B6C007B6852F823305A1C4E497B6841F823208D
:100B7C004C4A7B6852F82330012B05D14A4A7B68DA
:100B8C001E2142F8231014E0464A7B6852F82330A9
:100B9C00022B0ED1454A7B68012142F82310414AB1
:100BAC007B68002142F823103F4A7B68002142F801
:100BBC002310374A7B6852F8232038497B6841F868
:100BCC002320334A7B6852F82330002B2AD1384A31
:100BDC007B68642142F8231024E02D4A7B6852F88C
:100BEC002330002B1ED1324A7B6852F82330002B65
:100BFC0018DD2F4A7B6852F823305A1E2C497B682B
:100C0C0041F823202A4A7B6852F82330002B09DC58
:100C1C00284A7B68012142F82310254A7B6832213F
:100C2C0042F82310204A7B6852F82330002B1EDD3B
:100C3C001D4A7B6852F823305A1E1B497B6841F8C9
:100C4C002320194A7B6852F82330002B0FD1154A08
:100C5C007B6852F82330012B04D1174A7B680121A1
:100C6C0042F823100F4A7B68002142F823107B685E
:100C7C0001337B607B68022B7FF71EAF00BF00BF88
:100C8C000837BD4680BD00BF600000205400002026
:100C9C006C000020000000200C00002078000020D8
:100CAC00A8000020C0000020CC000020B4000020D0
:100CBC00840000209C0000209000002080B483B0B1
:100CCC0000AF78607B68002B02DB7B68022B01DDB8
:100CDC0000230DE0094A7B6852F82330012B06D122
:100CEC00064A7B68002142F82310012300E0002310
:100CFC0018460C37BD4680BC704700BF90000020E2
:100D0C0080B483B000AF78607B68002B02DB7B681B
:100D1C00022B01DD00230DE0094A7B6852F82330D9
:100D2C00012B06D1064A7B68002142F823100123CF
:100D3C0000E0002318460C37BD4680BC704700BF4E
:100D4C009C00002080B483B000AF78607B68002BDF
:100D5C0002DB7B68022B01DD00230DE0094A7B6876
:100D6C0052F82330012B06D1064A7B68002142F849
:100D7C002310012300E0002318460C37BD4680BC2D
:100D8C00704700BFB400002098B500AF974B1B789C
:100D9C00042B00F21E8101A252F823F0BD0D0008B5
:100DAC001F0E00088D0E0008010F00086D0F0008C3
:100DBC00032000F027FE0346002B08D040F612114A
:100DCC008B4801F00CFBFA21032000F0C3FD894B8A
:100DDC001B68022B40F0FF800220FFF76FFF0346D9
:100DEC00002B00F0F880814B01221A7041F28831FF
:100DFC00012000F0AFFD40F6B831022000F0AAFD52
:100E0C000A21042000F0A6FD0A21052000F0A2FD15
:100E1C00E1E000F0B5FE00F023FF052000F0F2FD4C
:100E2C000346002B10D0012000F004FE04460220E3
:100E3C0000F000FE034619462046FFF7C3F94FF4B5
:100E4C00FA71052000F086FD042000F0DBFD03465E
:100E5C00002B05D0FFF774F95021042000F07AFD27
:100E6C00022000F0CFFD0346002B00F0B6805F4B54
:100E7C0002221A704FF4FA61022000F06BFDACE014
:100E8C0000F00AFF052000F0BDFD0346002B10D03A
:100E9C00012000F0CFFD0446022000F0CBFD0346FC
:100EAC0019462046FFF78EF94FF4FA71052000F031
:100EBC0051FD042000F0A6FD0346002B05D0FFF7E2
:100ECC003FF95021042000F045FD012000F09AFD6F
:100EDC000346002B00F08380444B03221A7040F62B
:100EEC00B831012000F036FD41F28831022000F0CB
:100EFC0031FD74E000F060FE00F096FE052000F07D
:100F0C0081FD0346002B10D0012000F093FD044618
:100F1C00022000F08FFD034619462046FFF752F9D8
:100F2C004FF4FA71052000F015FD042000F06AFD65
:100F3C000346002B05D0FFF703F95021042000F0E5
:100F4C0009FD012000F05EFD0346002B49D0274B24
:100F5C0004221A704FF4FA61012000F0FBFC40E00F
:100F6C0000F046FE052000F04DFD0346002B10D08E
:100F7C00012000F05FFD0446022000F05BFD0346FB
:100F8C0019462046FFF71EF94FF4FA71052000F0C0
:100F9C00E1FC042000F036FD0346002B05D0FFF7E2
:100FAC00CFF85021042000F0D5FC012000F02AFDE0
:100FBC000346002B17D00D4B01221A7041F28831D9
:100FCC00012000F0C7FC40F6B831022000F0C2FC52
:100FDC0009E000BF08E000BF06E000BF04E000BF6E
:100FEC0002E000BF00E000BF00BF98BD1801002068
:100FFC0000080140E400002080B400AF00BFBD46F3
:10100C0080BC704798B500AF904B1B78042B00F256
:10101C00108101A252F823F0391000087310000857
:10102C00E31000085B110008C9110008884B1B680D
:10103C00032B40F00081854B01221A70854B1B68F5
:10104C001946012000F086FC834B1B6819460220D0
:10105C0000F080FC0A21042000F07CFC0A21052011
:10106C0000F078FCE7E000F08BFD00F0F9FD0520C6
:10107C0000F0C8FC0346002B10D0012000F0DAFC75
:10108C000446022000F0D6FC034619462046FFF722
:10109C0099F84FF4FA71052000F05CFC042000F084
:1010AC00B1FC0346002B05D0FFF74AF85021042071
:1010BC0000F050FC022000F0A5FC0346002B00F0D1
:1010CC00BC80624B02221A70644B1B6819460220CA
:1010DC0000F040FCB1E000F0DFFD052000F092FCD8
:1010EC000346002B10D0012000F0A4FC0446022083
:1010FC0000F0A0FC034619462046FFF763F84FF4B6
:10110C00FA71052000F026FC042000F07BFC03465D
:10111C00002B05D0FFF714F85021042000F01AFC26
:10112C00012000F06FFC0346002B00F08880474B39
:10113C0003221A70484B1B681946012000F00AFC68
:10114C00444B1B681946022000F004FC77E000F0C9
:10115C0033FD00F069FD052000F054FC0346002B24
:10116C0010D0012000F066FC0446022000F062FC66
:10117C00034619462046FFF725F84FF4FA7105206F
:10118C0000F0E8FB042000F03DFC0346002B05D0EA
:10119C00FEF7D6FF5021042000F0DCFB012000F00C
:1011AC0031FC0346002B4CD0284B04221A702B4BDD
:1011BC001B681946012000F0CDFB42E000F018FD41
:1011CC00052000F01FFC0346002B10D0012000F07E
:1011DC0031FC0446022000F02DFC03461946204643
:1011EC00FEF7F0FF4FF4FA71052000F0B3FB04207A
:1011FC0000F008FC0346002B05D0FEF7A1FF5021A0
:10120C00042000F0A7FB012000F0FCFB0346002BA0
:10121C0019D00E4B01221A700E4B1B681946012077
:10122C0000F098FB0C4B1B681946022000F092FB57
:10123C0009E000BF08E000BF06E000BF04E000BF0B
:10124C0002E000BF00E000BF00BF98BD1801002005
:10125C00E4000020D8000020E0000020DC0000208A
:10126C0080B500AFA74B1B680B3B032B00F24081F2
:10127C0001A252F823F000BF951200086113000878
:10128C002B140008F7140008032000F0BBFB0346E6
:10129C00002B08D040F612119B4801F0A0F8FA215F
:1012AC00032000F057FB052000F0ACFB0346002B9D
:1012BC000DD0964B1B68642202FB03F36421184685
:1012CC00FEF780FF4FF4FA71052000F043FB042079
:1012DC0000F098FB0346002B05D0FEF731FF5021A0
:1012EC00042000F037FB0120FFF7E8FC0346002B3D
:1012FC0005D10120FFF704FD0346002B04D0834BDE
:10130C001B680133814A13600220FFF7D7FC0346A8
:10131C00002B05D10220FFF7F3FC0346002B04D071
:10132C007A4B1B68013B794A13600220FFF70AFDD8
:10133C000346002B00F0DE80012240F612117248A9
:10134C0001F035F86F4B0C221A60FA21032000F0E3
:10135C0001FBCFE0032000F055FB0346002B08D027
:10136C0041F24421684801F03AF8FA21032000F0D8
:10137C00F1FA052000F046FB0346002B0DD0644B20
:10138C001B68642202FB03F3C8211846FEF71AFF00
:10139C004FF4FA71052000F0DDFA042000F032FB66
:1013AC000346002B05D0FEF7CBFE5021042000F0A5
:1013BC00D1FA0120FFF782FC0346002B05D1012056
:1013CC00FFF79EFC0346002B04D0514B1B680133E6
:1013DC004F4A13600220FFF771FC0346002B05D126
:1013EC000220FFF78DFC0346002B04D0484B1B68F2
:1013FC00013B474A13600220FFF7A4FC0346002B75
:10140C007AD0012241F244213F4800F0D0FF3D4BFD
:10141C000D221A60FA21032000F09CFA6CE00320E4
:10142C0000F0F0FA0346002B08D042F2884136480F
:10143C0000F0D5FFFA21032000F08CFA052000F013
:10144C00E1FA0346002B0ED0324B1B68642202FBE0
:10145C0003F34FF496711846FEF7B4FE4FF4FA718D
:10146C00052000F077FA042000F0CCFA0346002B9C
:10147C0005D0FEF765FE5021042000F06BFA012028
:10148C00FFF71CFC0346002B05D10120FFF738FCAD
:10149C000346002B04D01F4B1B6801331D4A1360FD
:1014AC000220FFF70BFC0346002B05D10220FFF7AF
:1014BC0027FC0346002B04D0164B1B68013B154A36
:1014CC0013600220FFF73EFC0346002B16D00122CE
:1014DC0042F288410C4800F06AFF0A4B0E221A6057
:1014EC00FA21032000F036FA08E0FFF78BFD06E046
:1014FC0000BF04E000BF02E000BF00E000BF00BF7F
:10150C0080BD00BF1400002000080140D80000205E
:10151C00DC000020E000002080B400AF044B00226F
:10152C001A70044B0B221A6000BFBD4680BC70477A
:10153C00180100201400002080B500AF584B1B6828
:10154C00013B032B00F2A18001A252F823F000BF53
:10155C006D150008ED15000823160008611600082B
:10156C0000F0B6FBFEF77CFEFFF7D6FF002000F084
:10157C0049FA0346002B08D020214A4800F02FFFDF
:10158C004FF47A71002000F0E5F90020FFF796FB8C
:10159C000346002B07D0424B02221A604FF47A719B
:1015AC00002000F0D7F90120FFF788FB0346002B41
:1015BC0007D03B4B03221A604FF47A71002000F0E5
:1015CC00C9F90220FFF77AFB0346002B5FD0344B9E
:1015DC0004221A604FF47A71002000F0BBF956E037
:1015EC00FFF7D2FB002000F00DFA0346002B08D0C9
:1015FC0020212C4800F0F3FE4FF47A71002000F00B
:10160C00A9F90020FFF75AFB0346002B41D0244BCD
:10161C0003221A603DE000F05BFBFEF721FEFFF7B2
:10162C001FFE002000F0EEF90346002B08D020210D
:10163C001C4800F0D4FE4FF47A71002000F08AF9B7
:10164C000020FFF73BFB0346002B24D0144B042255
:10165C001A6020E0FFF7D0FC002000F0D3F903461D
:10166C00002B08D020210F4800F0B9FE4FF47A71FE
:10167C00002000F06FF90020FFF720FB0346002B41
:10168C000BD0074B01221A6007E000BF06E000BF39
:10169C0004E000BF02E000BF00E000BF00BF80BD5F
:1016AC00E40000200008014080B500AF00F07EFB94
:1016BC0000F018F800F09EF800F050F8074801F020
:1016CC00D3FAFFF78DF9064B01221A604FF47A70AA
:1016DC0000F014F9FFF730FFFCE700BF1C010020FD
:1016EC00E400002080B590B000AF07F11803282269
:1016FC000021184601F068FE3B1D00221A605A605A
:10170C009A60DA601A610223BB610123BB62102369
:10171C00FB6200237B6307F11803184600F078FE88
:10172C000346002B01D000F0E3F80F237B6000236D
:10173C00BB600023FB6000233B6100237B613B1DEE
:10174C000021184601F0E4F80346002B01D000F00C
:10175C00CFF800BF4037BD4680BD000080B586B0D5
:10176C0000AF07F1080300221A605A609A60DA6031
:10177C003B4600221A605A601D4B4FF080421A60A3
:10178C001B4B41F63F725A60194B00229A60184B62
:10179C000922DA60164B00221A61154B00229A615D
:1017AC00134801F011FA0346002B01D000F0A0F809
:1017BC004FF48053BB6007F1080319460C4801F045
:1017CC008FFB0346002B01D000F092F800233B6006
:1017DC0000237B603B461946054801F067FD034634
:1017EC00002B01D000F084F800BF1837BD4680BD37
:1017FC001C01002080B588B000AF07F11003002257
:10180C001A605A609A60DA602F4B9B692E4A43F03B
:10181C00100393612C4B9B6903F01003FB60FB6876
:10182C00294B9B69284A43F004039361264B9B691F
:10183C0003F00403BB60BB68234B9B69224A43F053
:10184C0008039361204B9B6903F008037B607B6862
:10185C00002243F6FE711D4800F0A9FD00224FF650
:10186C00FF711B4800F0A3FD4FF460433B61002364
:10187C007B610123BB6107F110031946154800F089
:10188C0005FC43F6FE733B6101237B610023BB61C6
:10189C000223FB6107F1100319460C4800F0F6FB1C
:1018AC004FF6FF733B6101237B610023BB61022375
:1018BC00FB6107F110031946054800F0E7FB00BF78
:1018CC002037BD4680BD00BF00100240000801401B
:1018DC00000C01400010014080B582B000AF786070
:1018EC0000F060F8FFF7E2F800BF0837BD4680BD96
:1018FC0080B400AF72B600BFFEE7000080B485B0C4
:10190C0000AF78607B68104A82FB03129210DB17E1
:10191C00D31ABB600023FB600CE00C49FB68BA686F
:10192C0041F823200A4AFB68002142F82310FB6887
:10193C000133FB60FB68052BEFDD00BF00BF1437E4
:10194C00BD4680BC704700BF67666666E800002035
:10195C000001002080B483B000AF786039607B68F0
:10196C00002B13DB7B68052B10DC3B680A4A82FBDF
:10197C0003129210DB17D21A08497B6841F8232016
:10198C00074A7B68002142F8231000E000BF0C37A7
:10199C00BD4680BC704700BF67666666E8000020E5
:1019AC000001002080B483B000AF00237B601CE0FA
:1019BC00124A7B6852F82330002B13DD0F4A7B68E8
:1019CC0052F823305A1E0D497B6841F823200B4AEC
:1019DC007B6852F82330002B04DC094A7B68012118
:1019EC0042F823107B6801337B607B68052BDFDDBD
:1019FC0000BF00BF0C37BD4680BC7047E80000201C
:101A0C000001002080B483B000AF78607B68002BAD
:101A1C0002DB7B68052B01DD002303E0044A7B68B5
:101A2C0052F8233018460C37BD4680BC704700BFB7
:101A3C000001002080B483B000AF78607B68002B7D
:101A4C0002DB7B68052B01DD002303E0044A7B6885
:101A5C0052F8233018460C37BD4680BC704700BF87
:101A6C00E800002080B485B000AF154B9B69144A88
:101A7C0043F001039361124B9B6903F00103BB60BC
:101A8C00BB680F4BDB690E4A43F08053D3610C4BA0
:101A9C00DB6903F080537B607B680A4B5B68FB60FF
:101AAC00FB6823F0E063FB60FB6843F08063FB6042
:101ABC00044AFB68536000BF1437BD4680BC7047B6
:101ACC00001002400000014080B584B000AF786087
:101ADC007B681B68B3F1804F13D10C4BDB690B4A4D
:101AEC0043F00103D361094BDB6903F00103FB6095
:101AFC00FB68002200211C2000F091FA1C2000F051
:101B0C00AAFA00BF1037BD4680BD00BF00100240CE
:101B1C0080B400AFFEE780B400AFFEE780B400AF46
:101B2C00FEE780B400AFFEE780B400AFFEE780B400
:101B3C0000AF00BFBD4680BC704780B400AF00BF93
:101B4C00BD4680BC704780B400AF00BFBD4680BCB2
:101B5C00704780B500AF00F06FF900BF80BD00008A
:101B6C0080B500AF024801F0CBF800BF80BD00BFCC
:101B7C001C01002080B400AF00BFBD4680BC704784
:101B8C0080B500AF002202210A4800F010FC0122AF
:101B9C000421084800F00BFC00224FF4807105482A
:101BAC0000F005FC01224FF40071024800F0FFFB2D
:101BBC0000BF80BD0008014080B500AF01220221AA
:101BCC000A4800F0F4FB00220821084800F0EFFB63
:101BDC0001224FF48071054800F0E9FB00224FF41C
:101BEC008061024800F0E3FB00BF80BD00080140AB
:101BFC0080B500AF012208210A4800F0D8FB002272
:101C0C000421084800F0D3FB01224FF48061054801
:101C1C0000F0CDFB00224FF40071024800F0C7FB2E
:101C2C0000BF80BD0008014080B500AF002210212C
:101C3C000A4800F0BCFB01224021084800F0B7FB29
:101C4C0000224FF40061054800F0B1FB01224FF473
:101C5C008051024800F0ABFB00BF80BD0008014082
:101C6C0080B500AF012210210A4800F0A0FB002231
:101C7C008021084800F09BFB01224FF400610548CD
:101C8C0000F095FB00224FF40051024800F08FFB4E
:101C9C0000BF80BD0008014080B500AF012280214B
:101CAC000A4800F084FB00224021084800F07FFB2A
:101CBC0001224FF40051054800F079FB00224FF44B
:101CCC008051024800F073FB00BF80BD000801404A
:101CDC0080B500AF01220221204800F068FB0122F0
:101CEC0004211E4800F063FB012208211B4800F070
:101CFC005EFB01221021194800F059FB0122402102
:101D0C00164800F054FB01228021144800F04FFBD0
:101D1C0001224FF48071114800F049FB01224FF46D
:101D2C0000710E4800F043FB01224FF480610B4818
:101D3C0000F03DFB01224FF40061084800F037FB36
:101D4C0001224FF48051054800F031FB01224FF481
:101D5C000051024800F02BFB00BF80BD0008014081
:101D6C00FFF708FF0B480C490C4A002302E0D4583B
:101D7C00C4500433C4188C42F9D3094A094C0023CB
:101D8C0001E013600432A242FBD301F0F9FAFFF731
:101D9C008BFC704700000020240000202834000831
:101DAC002400002068010020FEE7000080B500AF91
:101DBC00084B1B68074A43F010031360032000F024
:101DCC0023F90F2000F008F8FFF74CFE002318460B
:101DDC0080BD00BF0020024080B582B000AF7860AB
:101DEC00124B1A68124B1B7819464FF47A73B3FBDB
:101DFC00F1F3B2FBF3F3184600F03BF90346002B6A
:101E0C0001D001230EE07B680F2B0AD800227968E1
:101E1C004FF0FF3000F003F9064A7B681360002393
:101E2C0000E0012318460837BD4680BD180000208D
:101E3C00200000201C00002080B400AF054B1B7854
:101E4C001A46054B1B681344034A136000BFBD467A
:101E5C0080BC7047200000206401002080B400AFDB
:101E6C00024B1B681846BD4680BC704764010020BD
:101E7C0080B485B000AF78607B6803F00703FB602B
:101E8C000C4BDB68BB60BA684FF6FF031340BB60BA
:101E9C00FB681A02BB68134343F0BF6343F400337F
:101EAC00BB60044ABB68D36000BF1437BD4680BC1E
:101EBC00704700BF00ED00E080B400AF044BDB685E
:101ECC001B0A03F007031846BD4680BC704700BFD1
:101EDC0000ED00E080B483B000AF0346FB7197F9CE
:101EEC000730002B0BDBFB7903F01F02064997F937
:101EFC0007305B09012000FA02F241F8232000BFF1
:101F0C000C37BD4680BC704700E100E080B483B064
:101F1C0000AF03463960FB7197F90730002B0ADBE1
:101F2C003B68DAB20C4997F907301201D2B20B4474
:101F3C0083F800230AE03B68DAB20849FB7903F026
:101F4C000F03043B1201D2B20B441A7600BF0C37BC
:101F5C00BD4680BC704700BF00E100E000ED00E032
:101F6C0080B489B000AFF860B9607A60FB6803F0A8
:101F7C000703FB61FB69C3F10703042B28BF042390
:101F8C00BB61FB690433062B02D9FB69033B00E000
:101F9C0000237B614FF0FF32BB6902FA03F3DA4393
:101FAC00BB681A407B699A404FF0FF317B6901FA9C
:101FBC0003F3D9437B680B40134318462437BD46C3
:101FCC0080BC704780B582B000AF78607B68013B05
:101FDC00B3F1807F01D301230FE00A4A7B68013BF8
:101FEC0053600F214FF0FF30FFF790FF054B00229D
:101FFC009A60044B07221A60002318460837BD4626
:10200C0080BD00BF10E000E080B582B000AF78600A
:10201C007868FFF72DFF00BF0837BD4680BD80B53F
:10202C0086B000AF0346B9607A60FB7300237B6116
:10203C00FFF742FF78617A68B9687869FFF790FF1B
:10204C00024697F90F3011461846FFF75FFF00BFA5
:10205C001837BD4680BD80B582B000AF0346FB711A
:10206C0097F907301846FFF735FF00BF0837BD4614
:10207C0080BD80B582B000AF78607868FFF7A2FFB2
:10208C00034618460837BD4680BD000080B48BB0AF
:10209C0000AF7860396000237B6200233B6248E12B
:1020AC0001227B6A02FA03F3FB613B681B68FA6945
:1020BC001340BB61BA69FB699A4240F037813B68B7
:1020CC005B68A34A93425ED0A14A934275D8A14A59
:1020DC00934258D09F4A93426FD89F4A934252D012
:1020EC009D4A934269D89D4A93424CD09B4A934255
:1020FC0063D89B4A934246D0994A93425DD8122B9F
:10210C002AD8122B59D801A252F823F09321000897
:10211C006D2100087F210008C1210008C72100089B
:10212C00C7210008C7210008C7210008C7210008E3
:10213C00C7210008C7210008C7210008C7210008D3
:10214C00C7210008C7210008C7210008C7210008C3
:10215C007521000889210008824A934213D02CE093
:10216C003B68DB683B6229E03B68DB6804333B621D
:10217C0024E03B68DB6808333B621FE03B68DB68AC
:10218C000C333B621AE03B689B68002B02D10423A2
:10219C003B6213E03B689B68012B05D108233B6233
:1021AC007B68FA691A6109E008233B627B68FA696B
:1021BC005A6103E000233B6200E000BFBB69FF2BC8
:1021CC0001D87B6801E07B6804337B61BB69FF2B22
:1021DC0002D87B6A9B0002E07B6A083B9B003B6158
:1021EC007B691A680F213B6901FA03F3DB431A4040
:1021FC00396A3B6901FA03F31A437B691A603B683D
:10220C005B6803F08053002B00F09080564B9B6969
:10221C00554A43F001039361534B9B6903F001034F
:10222C00BB60BB68514A7B6A9B08023352F823306F
:10223C00FB607B6A03F003039B000F2202FA03F39B
:10224C00DB43FA681340FB607B68494A93420DD02C
:10225C007B68484A934207D07B68474A934201D136
:10226C00022304E0032302E0012300E000237A6A46
:10227C0002F0030292009340FA681343FB603B495F
:10228C007B6A9B080233FA6841F823203B685B6841
:10229C0003F48013002B06D0384B9A683749BB697E
:1022AC0013438B6006E0354B9A68BB69DB433349BB
:1022BC0013408B603B685B6803F40013002B06D063
:1022CC002E4BDA682D49BB691343CB6006E02B4BD0
:1022DC00DA68BB69DB4329491340CB603B685B6818
:1022EC0003F40033002B06D0244B5A682349BB69F6
:1022FC0013434B6006E0214B5A68BB69DB431F4913
:10230C0013404B603B685B6803F48033002B06D0B2
:10231C001A4B1A681949BB6913430B6006E0174B3B
:10232C001A68BB69DB43154913400B607B6A0133A8
:10233C007B623B681A687B6A22FA03F3002B7FF4FA
:10234C00AFAE00BF00BF2C37BD4680BC704700BF8E
:10235C00000032100000311000002210000021108B
:10236C00000012100000111000100240000001408B
:10237C0000080140000C0140001001400004014025
:10238C0080B485B000AF78600B467B807B689A6820
:10239C007B881340002B02D00123FB7301E0002348
:1023AC00FB73FB7B18461437BD4680BC704780B46A
:1023BC0083B000AF78600B467B8013467B707B78D4
:1023CC00002B03D07A887B681A6103E07B881A049F
:1023DC007B681A6100BF0C37BD4680BC704780B467
:1023EC0085B000AF78600B467B807B68DB68FB6058
:1023FC007A88FB6813401A04FB68D9437B880B402E
:10240C001A437B681A6100BF1437BD4680BC704705
:10241C0080B586B000AF78607B68002B01D10123BA
:10242C006CE27B681B6803F00103002B00F08780D3
:10243C00924B5B6803F00C03042B0CD08F4B5B6846
:10244C0003F00C03082B12D18C4B5B6803F4803324
:10245C00B3F5803F0BD1894B1B6803F40033002B81
:10246C006CD07B685B68002B68D1012346E27B68EB
:10247C005B68B3F5803F06D1804B1B687F4A43F401
:10248C00803313602EE07B685B68002B0CD17B4B98
:10249C001B687A4A23F480331360784B1B68774AA5
:1024AC0023F4802313601DE07B685B68B3F5A02FD9
:1024BC000CD1724B1B68714A43F4802313606F4B31
:1024CC001B686E4A43F4803313600BE06B4B1B6844
:1024DC006A4A23F480331360684B1B68674A23F401
:1024EC00802313607B685B68002B13D0FFF7B6FC6E
:1024FC00386108E0FFF7B2FC02463B69D31A642B43
:10250C0001D90323FAE15D4B1B6803F40033002B64
:10251C00F0D014E0FFF7A2FC386108E0FFF79EFC56
:10252C0002463B69D31A642B01D90323E6E1534BD2
:10253C001B6803F40033002BF0D100E000BF7B6874
:10254C001B6803F00203002B63D04C4B5B6803F059
:10255C000C03002B0BD0494B5B6803F00C03082BCE
:10256C001CD1464B5B6803F48033002B16D1434BD4
:10257C001B6803F00203002B05D07B681B69012B41
:10258C0001D00123BAE13D4B1B6823F0F8027B68B4
:10259C005B69DB00394913430B603AE07B681B69CC
:1025AC00002B20D0364B01221A60FFF757FC386104
:1025BC0008E0FFF753FC02463B69D31A022B01D902
:1025CC0003239BE12D4B1B6803F00203002BF0D07F
:1025DC002A4B1B6823F0F8027B685B69DB002749F8
:1025EC0013430B6015E0264B00221A60FFF736FCF4
:1025FC00386108E0FFF732FC02463B69D31A022B24
:10260C0001D903237AE11D4B1B6803F00203002B55
:10261C00F0D17B681B6803F00803002B3AD07B6871
:10262C009B69002B19D0174B01221A60FFF716FC7F
:10263C00386108E0FFF712FC02463B69D31A022B03
:10264C0001D903235AE10D4B5B6A03F00203002B03
:10265C00F0D0012000F09AFA1CE00A4B00221A601C
:10266C00FFF7FCFB38610FE0FFF7F8FB02463B6914
:10267C00D31A022B08D9032340E100BF00100240FB
:10268C0000004242800442429E4B5B6A03F002030C
:10269C00002BE9D17B681B6803F00403002B00F0CE
:1026AC00A6800023FB75974BDB6903F08053002B4E
:1026BC000DD1944BDB69934A43F08053D361914B1A
:1026CC00DB6903F08053BB60BB680123FB758E4B49
:1026DC001B6803F48073002B18D18B4B1B688A4A40
:1026EC0043F480731360FFF7B9FB386108E0FFF720
:1026FC00B5FB02463B69D31A642B01D90323FDE0D9
:10270C00814B1B6803F48073002BF0D07B68DB6873
:10271C00012B06D17B4B1B6A7A4A43F001031362EF
:10272C002DE07B68DB68002B0CD1764B1B6A754A5D
:10273C0023F001031362734B1B6A724A23F00403E8
:10274C0013621CE07B68DB68052B0CD16D4B1B6A9C
:10275C006C4A43F0040313626A4B1B6A694A43F0E8
:10276C00010313620BE0674B1B6A664A23F00103FB
:10277C001362644B1B6A634A23F0040313627B6885
:10278C00DB68002B15D0FFF769FB38610AE0FFF717
:10279C0065FB02463B69D31A41F28832934201D958
:1027AC000323ABE0574B1B6A03F00203002BEED064
:1027BC0014E0FFF753FB38610AE0FFF74FFB0246CA
:1027CC003B69D31A41F28832934201D9032395E035
:1027DC004C4B1B6A03F00203002BEED1FB7D012B4B
:1027EC0005D1484BDB69474A23F08053D3617B68A2
:1027FC00DB69002B00F08180424B5B6803F00C031B
:10280C00082B61D07B68DB69022B46D13F4B002241
:10281C001A60FFF723FB386108E0FFF71FFB024645
:10282C003B69D31A022B01D9032367E0354B1B6894
:10283C0003F00073002BF0D17B681B6AB3F5803F6B
:10284C0008D1304B5B6823F400327B689B682D49C0
:10285C0013434B602B4B5B6823F474127B68196A2F
:10286C007B685B6A0B43274913434B60274B012260
:10287C001A60FFF7F3FA386108E0FFF7EFFA024647
:10288C003B69D31A022B01D9032337E01D4B1B687C
:10289C0003F00073002BF0D02FE01C4B00221A60C9
:1028AC00FFF7DCFA386108E0FFF7D8FA02463B691B
:1028BC00D31A022B01D9032320E0124B1B6803F01F
:1028CC000073002BF0D118E07B68DB69012B01D180
:1028DC00012313E00B4B5B68FB60FB6803F4803255
:1028EC007B681B6A9A4206D1FB6803F470127B6802
:1028FC005B6A9A4201D0012300E000231846183786
:10290C00BD4680BD00100240007000406000424295
:10291C0080B584B000AF786039607B68002B01D142
:10292C000123D0E06A4B1B6803F007033A689A4214
:10293C0010D9674B1B6823F0070265493B681343AA
:10294C000B60634B1B6803F007033A689A4201D093
:10295C000123B8E07B681B6803F00203002B20D036
:10296C007B681B6803F00403002B05D0594B5B6894
:10297C00584A43F4E06353607B681B6803F0080318
:10298C00002B05D0534B5B68524A43F460535360A1
:10299C00504B5B6823F0F0027B689B684D491343F6
:1029AC004B607B681B6803F00103002B40D07B68F5
:1029BC005B68012B07D1474B1B6803F40033002BDA
:1029CC0015D101237FE07B685B68022B07D1414B5B
:1029DC001B6803F00073002B09D1012373E03D4BFE
:1029EC001B6803F00203002B01D101236BE0394B70
:1029FC005B6823F003027B685B68364913434B60CA
:102A0C00FFF72CFAF8600AE0FFF728FA0246FB6899
:102A1C00D31A41F28832934201D9032353E02D4B50
:102A2C005B6803F00C027B685B689B009A42EBD1FD
:102A3C00274B1B6803F007033A689A4210D2244BC9
:102A4C001B6823F0070222493B6813430B60204BA1
:102A5C001B6803F007033A689A4201D0012332E065
:102A6C007B681B6803F00403002B08D0194B5B68D0
:102A7C0023F4E0627B68DB68164913434B607B6888
:102A8C001B6803F00803002B09D0124B5B6823F47E
:102A9C0060527B681B69DB000E4913434B6000F0EE
:102AAC0021F802460B4B5B681B0903F00F030A4924
:102ABC00CB5C22FA03F3094A1360094B1B681846D6
:102ACC00FFF78AF9002318461037BD4680BD00BFBA
:102ADC000020024000100240FC33000818000020C7
:102AEC001C00002080B487B000AF0023FB600023E3
:102AFC00BB6000237B6100237B6000233B611E4B8A
:102B0C005B68FB60FB6803F00C03042B02D0082B02
:102B1C0003D027E0194B3B6127E0FB689B0C03F0CB
:102B2C000F03174AD35C7B60FB6803F48033002BE4
:102B3C0010D0114B5B685B0C03F00103114AD35CA2
:102B4C00BB607B680D4A02FB03F2BB68B2FBF3F37C
:102B5C007B6104E07B680C4A02FB03F37B617B69BD
:102B6C003B6102E0054B3B6100BF3B6918461C37DB
:102B7C00BD4680BC704700BF0010024000127A00B6
:102B8C000C3400081C34000800093D0080B485B0EA
:102B9C0000AF78600A4B1B680A4AA2FB03235B0A4E
:102BAC007A6802FB03F3FB6000BFFB685A1EFA60F5
:102BBC00002BF9D100BF00BF1437BD4680BC704755
:102BCC0018000020D34D621080B582B000AF786041
:102BDC007B68002B01D1012341E07B6893F83D30E9
:102BEC00DBB2002B06D17B68002283F83C2078688E
:102BFC00FEF76AFF7B68022283F83D207B681A6827
:102C0C007B6804331946104600F056FA7B680122A3
:102C1C0083F846207B68012283F83E207B680122E2
:102C2C0083F83F207B68012283F840207B680122D7
:102C3C0083F841207B68012283F842207B680122C3
:102C4C0083F843207B68012283F844207B680122AF
:102C5C0083F845207B68012283F83D200023184629
:102C6C000837BD4680BD000080B485B000AF7860E9
:102C7C007B6893F83D30DBB2012B01D0012335E0AA
:102C8C007B68022283F83D207B681B68DA687B68CE
:102C9C001B6842F00102DA607B681B68164A93429B
:102CAC0009D07B681B68B3F1804F04D07B681B682C
:102CBC00124A934211D17B681B689B6803F007038F
:102CCC00FB60FB68062B10D07B681B681A687B685E
:102CDC001B6842F001021A6007E07B681B681A68E7
:102CEC007B681B6842F001021A60002318461437F7
:102CFC00BD4680BC704700BF002C01400004004062
:102D0C0080B584B000AF78607B681B68DB68FB60C3
:102D1C007B681B681B69BB60BB6803F00203002B5C
:102D2C0020D0FB6803F00203002B1BD07B681B68D0
:102D3C006FF002021A617B6801221A777B681B68AC
:102D4C009B6903F00303002B03D0786800F098F91B
:102D5C0005E0786800F08BF9786800F09AF97B68E8
:102D6C0000221A77BB6803F00403002B20D0FB6809
:102D7C0003F00403002B1BD07B681B686FF004026C
:102D8C001A617B6802221A777B681B689B6903F4C3
:102D9C004073002B03D0786800F072F905E0786876
:102DAC0000F065F9786800F074F97B6800221A77F6
:102DBC00BB6803F00803002B20D0FB6803F008036A
:102DCC00002B1BD07B681B686FF008021A617B68B4
:102DDC0004221A777B681B68DB6903F00303002B62
:102DEC0003D0786800F04CF905E0786800F03FF902
:102DFC00786800F04EF97B6800221A77BB6803F004
:102E0C001003002B20D0FB6803F01003002B1BD009
:102E1C007B681B686FF010021A617B6808221A77B6
:102E2C007B681B68DB6903F44073002B03D0786864
:102E3C0000F026F905E0786800F019F9786800F0E0
:102E4C0028F97B6800221A77BB6803F00103002B7A
:102E5C000CD0FB6803F00103002B07D07B681B68C8
:102E6C006FF001021A617868FEF736FDBB6803F05B
:102E7C008003002B0CD0FB6803F08003002B07D0E1
:102E8C007B681B686FF080021A61786800F06FFA3B
:102E9C00BB6803F04003002B0CD0FB6803F040032D
:102EAC00002B07D07B681B686FF040021A617868B2
:102EBC0000F0F8F8BB6803F02003002B0CD0FB6883
:102ECC0003F02003002B07D07B681B686FF02002F7
:102EDC001A61786800F042FA00BF1037BD4680BD19
:102EEC0080B584B000AF786039600023FB737B68D9
:102EFC0093F83C30012B01D10223B4E07B68012212
:102F0C0083F83C207B68022283F83D207B681B6899
:102F1C009B68BB60BB6823F07703BB60BB6823F482
:102F2C007F43BB607B681B68BA689A603B681B6810
:102F3C00B3F5005F3ED0B3F5005F00F28780B3F5C8
:102F4C00805F00F08680B3F5805F7FD8702B1AD03D
:102F5C00702B7BD8602B50D0602B77D8502B3CD06B
:102F6C00502B73D8402B58D0402B6FD8302B64D0BB
:102F7C00302B6BD8202B60D0202B67D8002B5CD04B
:102F8C00102B5AD062E07B6818683B6899683B68E4
:102F9C005A683B68DB6800F06AF97B681B689B68C1
:102FAC00BB60BB6843F07703BB607B681B68BA6887
:102FBC009A604FE07B6818683B6899683B685A6870
:102FCC003B68DB6800F053F97B681B689A687B6888
:102FDC001B6842F480429A603CE07B6818683B684E
:102FEC0059683B68DB681A4600F0CAF87B681B68B6
:102FFC005021184600F021F92CE07B6818683B68DA
:10300C0059683B68DB681A4600F0E8F87B681B6877
:10301C006021184600F011F91CE07B6818683B68C9
:10302C0059683B68DB681A4600F0AAF87B681B6895
:10303C004021184600F001F90CE07B681A683B68E7
:10304C001B681946104600F0F8F803E00123FB73E7
:10305C0000E000BF7B68012283F83D207B680022E2
:10306C0083F83C20FB7B18461037BD4680BD80B4EE
:10307C0083B000AF786000BF0C37BD4680BC704792
:10308C0080B483B000AF786000BF0C37BD4680BC05
:10309C00704780B483B000AF786000BF0C37BD467A
:1030AC0080BC704780B483B000AF786000BF0C3731
:1030BC00BD4680BC7047000080B485B000AF78601E
:1030CC0039607B681B68FB607B682B4A934207D096
:1030DC007B68B3F1804F03D07B68284A934208D1B8
:1030EC00FB6823F07003FB603B685B68FA68134372
:1030FC00FB607B68204A934207D07B68B3F1804F1A
:10310C0003D07B681D4A934208D1FB6823F44073BB
:10311C00FB603B68DB68FA681343FB60FB6823F0D9
:10312C0080023B685B691343FB607B68FA681A603A
:10313C003B689A687B68DA623B681A687B689A62BB
:10314C007B680D4A934203D13B681A697B681A630A
:10315C007B6801225A617B681B6903F00103002B19
:10316C0005D07B681B6923F001027B681A6100BFE4
:10317C001437BD4680BC7047002C01400004004051
:10318C0080B487B000AFF860B9607A60FB681B6AE6
:10319C007B61FB681B6A23F00102FB681A62FB6807
:1031AC009B693B613B6923F0F0033B617B681B012E
:1031BC003A6913433B617B6923F00A037B617A69AB
:1031CC00BB6813437B61FB683A699A61FB687A6957
:1031DC001A6200BF1C37BD4680BC704780B487B0F4
:1031EC0000AFF860B9607A60FB681B6A7B61FB68B2
:1031FC001B6A23F01002FB681A62FB689B693B6137
:10320C003B6923F470433B617B681B033A691343AE
:10321C003B617B6923F0A0037B61BB681B017A696E
:10322C0013437B61FB683A699A61FB687A691A629D
:10323C0000BF1C37BD4680BC704780B485B000AF62
:10324C00786039607B689B68FB60FB6823F07003D7
:10325C00FB603A68FB68134343F00703FB607B6831
:10326C00FA689A6000BF1437BD4680BC704780B4C2
:10327C0087B000AFF860B9607A603B60FB689B6810
:10328C007B617B6923F47F437B613B681A027B681B
:10329C001A43BB6813437A6913437B61FB687A69F1
:1032AC009A6000BF1C37BD4680BC704780B485B0A7
:1032BC0000AF786039607B6893F83C30012B01D10A
:1032CC00022341E07B68012283F83C207B680222C8
:1032DC0083F83D207B681B685B68FB607B681B6820
:1032EC009B68BB60FB6823F07003FB603B681B684A
:1032FC00FA681343FB607B681B68FA685A607B684A
:10330C001B68144A934209D07B681B68B3F1804F49
:10331C0004D07B681B68104A93420CD1BB6823F025
:10332C008003BB603B685B68BA681343BB607B6817
:10333C001B68BA689A607B68012283F83D207B6821
:10334C00002283F83C20002318461437BD4680BC6D
:10335C00704700BF002C01400004004080B483B0D3
:10336C0000AF786000BF0C37BD4680BC704780B49E
:10337C0083B000AF786000BF0C37BD4680BC70478F
:10338C0070B500260C4D0D4C641BA410A64209D13F
:10339C0000F022F800260A4D0A4C641BA410A64229
:1033AC0005D170BD55F8043B98470136EEE755F84A
:1033BC00043B98470136F2E720340008203400081B
:1033CC00203400082434000803460244934200D100
:1033DC00704703F8011BF9E7F8B500BFF8BC08BC4F
:1033EC009E467047F8B500BFF8BC08BC9E467047B7
:1033FC000000000000000000010203040607080999
:10340C0002030405060708090A0B0C0D0E0F101019
:04341C0001020000A9
:04342000310100086E
:043424000D0100088E
:103428000010014000100140001001400020004041
:10343800008000000B00000000127A00100000005D
:04344800010000007F
:0400000508001D6D65
:00000001FF
