:020000040800F2
:1000000000280020F91D0008A91B0008AF1B0008EC
:10001000B51B0008BB1B0008C11B00080000000046
:10002000000000000000000000000000C71B0008E6
:10003000D31B000800000000DF1B0008EB1B0008BA
:10004000411E0008411E0008411E0008411E000814
:10005000411E0008411E0008411E0008411E000804
:10006000411E0008411E0008411E0008411E0008F4
:10007000411E0008411E0008411E0008411E0008E4
:10008000411E0008411E0008411E0008411E0008D4
:10009000411E0008411E0008411E0008411E0008C4
:1000A000411E0008411E0008411E0008411E0008B4
:1000B000F91B0008411E000800000000411E000856
:1000C000411E00080000000000000000411E000862
:1000D00000000000411E0008411E00080000000052
:1000E000411E0008411E0008411E000800000000DB
:1000F0000000000000000000000000000000000000
:0C01000000000000000000005FF808F1A3
:10010C0010B5054C237833B9044B13B10448AFF345
:10011C0000800123237010BD24000020000000008B
:10012C007034000808B5034B1BB103490348AFF307
:10013C00008008BD0000000028000020703400087A
:10014C0080B500AF1C4B1B68002B19D11B4B1B68D7
:10015C00184600F09DF8194B5B68184600F04AFAF7
:10016C0000224FF48041164802F067F901224FF447
:10017C000041134802F061F90F4B01221A6018E09C
:10018C000E4B9B68184600F083F80C4BDB68184646
:10019C0000F030FA01224FF48041094802F04DF989
:1001AC0000224FF40041064802F047F9024B0022AE
:1001BC001A6000BF80BD00BF40000020440000203A
:1001CC00000C014080B485B000AF786039607B686A
:1001DC00204A82FB03125211DB17D31AFB603B68D7
:1001EC001C4A82FB03125211DB17D31ABB60FB684B
:1001FC00194A82FB03129210DB17D31A174A1360A9
:10020C00F968154B83FB01239A10CB17D21A1346AE
:10021C009B0013445B00CA1A104B5A60BB680E4A11
:10022C0082FB03129210DB17D31A0C4A9360B96845
:10023C00094B83FB01239A10CB17D21A13469B0050
:10024C0013445B00CA1A054BDA6000BF1437BD4675
:10025C0080BC70471F85EB516766666644000020C2
:10026C0080B500AF01224FF48041084802F0E5F858
:10027C0001224FF40041054802F0DFF80A2000F09B
:10028C0007F80A2000F0B6F900BF80BD000C014051
:10029C0080B582B000AF78607B68092B00F280815A
:1002AC0001A252F823F000BFDD020008250300086C
:1002BC006D030008B5030008FD03000845040008A1
:1002CC008D040008D50400081D050008650500080C
:1002DC0000220121C64802F0B0F800220221C448D5
:1002EC0002F0ABF800220421C14802F0A6F800226B
:1002FC000821BF4802F0A1F800221021BC4802F0EE
:10030C009CF800222021BA4802F097F801224021E3
:10031C00B74802F092F867E101220121B44802F0DB
:10032C008CF800220221B24802F087F80022042146
:10033C00AF4802F082F801220821AD4802F07DF8A6
:10034C0001221021AA4802F078F801222021A848A5
:10035C0002F073F801224021A54802F06EF843E147
:10036C0000220121A24802F068F800220221A048D4
:10037C0002F063F8012204219D4802F05EF800228D
:10038C0008219B4802F059F800221021984802F0ED
:10039C0054F801222021964802F04FF80022402107
:1003AC00934802F04AF81FE100220121904802F024
:1003BC0044F8002202218E4802F03FF8002204216A
:1003CC008B4802F03AF800220821894802F035F8EF
:1003DC0001221021864802F030F8012220218448A5
:1003EC0002F02BF800224021814802F026F8FBE0B5
:1003FC00012201217E4802F020F8002202217C48D3
:10040C0002F01BF800220421794802F016F80122B0
:10041C000821774802F011F801221021744802F0EB
:10042C000CF800222021724802F007F8002240212B
:10043C006F4802F002F8D7E0002201216C4801F06D
:10044C00FCFF012202216A4801F0F7FF002204217F
:10045C00674801F0F2FF00220821654801F0EDFF2A
:10046C0001221021624801F0E8FF0022202160489F
:10047C0001F0E3FF002240215D4801F0DEFFB3E014
:10048C00002201215A4801F0D8FF012202215848CC
:10049C0001F0D3FF00220421554801F0CEFF0022C9
:1004AC000821534801F0C9FF00221021504801F0E7
:1004BC00C4FF002220214E4801F0BFFF0022402142
:1004CC004B4801F0BAFF8FE000220121484801F0AF
:1004DC00B4FF00220221464801F0AFFF00220421A4
:1004EC00434801F0AAFF01220821414801F0A5FF71
:1004FC00012210213E4801F0A0FF012220213C489E
:10050C0001F09BFF01224021394801F096FF6BE07E
:10051C0000220121364801F090FF002202213448CC
:10052C0001F08BFF00220421314801F086FF0022EC
:10053C0008212F4801F081FF002210212C4801F0E6
:10054C007CFF002220212A4801F077FF0022402165
:10055C00274801F072FF47E000220121244801F0F6
:10056C006CFF00220221224801F067FF00220421C7
:10057C001F4801F062FF002208211D4801F05DFFB9
:10058C00012210211A4801F058FF0022202118489E
:10059C0001F053FF00224021154801F04EFF23E0EB
:1005AC0001220121124801F048FF012202211048CA
:1005BC0001F043FF012204210D4801F03EFF01220E
:1005CC0008210B4801F039FF01221021084801F0E5
:1005DC0034FF01222021064801F02FFF0122402187
:1005EC00034801F02AFF00BF00BF0837BD4680BD9D
:1005FC00000C014080B582B000AF78607B68092B9D
:10060C0000F2BE8101A252F823F000BF410600089F
:10061C0095060008E90600083D0700089107000848
:10062C00E5070008390800088D080008E1080008F3
:10063C003509000800228021D04801F0FEFE00227E
:10064C004FF48071CD4801F0F8FE00224FF4007198
:10065C00CA4801F0F2FE00224FF48061C74801F055
:10066C00ECFE00224FF40061C44801F0E6FE0022CB
:10067C004FF48051C14801F0E0FE01224FF40051CB
:10068C00BE4801F0DAFEA5E101228021BB4801F051
:10069C00D4FE00224FF48071B84801F0CEFE002247
:1006AC004FF40071B54801F0C8FE01224FF480618F
:1006BC00B24801F0C2FE01224FF40061AF4801F0D4
:1006CC00BCFE01224FF48051AC4801F0B6FE012271
:1006DC004FF40051A94801F0B0FE7BE100228021CB
:1006EC00A64801F0AAFE00224FF48071A34801F045
:1006FC00A4FE01224FF40071A04801F09EFE0022DE
:10070C004FF480619D4801F098FE00224FF4006187
:10071C009A4801F092FE01224FF48051974801F063
:10072C008CFE00224FF40051944801F086FE51E1FA
:10073C0000228021914801F080FE00224FF480714C
:10074C008E4801F07AFE00224FF400718B4801F0C4
:10075C0074FE00224FF48061884801F06EFE012285
:10076C004FF40061854801F068FE01224FF480517E
:10077C00824801F062FE00224FF400517F4801F0E4
:10078C005CFE27E1012280217C4801F056FE00220C
:10079C004FF48071794801F050FE00224FF4007143
:1007AC00764801F04AFE01224FF48061734801F053
:1007BC0044FE01224FF40061704801F03EFE00221D
:1007CC004FF480516D4801F038FE00224FF4005177
:1007DC006A4801F032FEFDE000228021674801F0FA
:1007EC002CFE01224FF48071644801F026FE002299
:1007FC004FF40071614801F020FE00224FF480613B
:10080C005E4801F01AFE01224FF400615B4801F0D2
:10081C0014FE00224FF48051584801F00EFE0022C5
:10082C004FF40051554801F008FED3E0002280211E
:10083C00524801F002FE01224FF480714F4801F042
:10084C00FCFD00224FF400714C4801F0F6FD002233
:10085C004FF48061494801F0F0FD00224FF4006133
:10086C00464801F0EAFD00224FF48051434801F064
:10087C00E4FD00224FF40051404801F0DEFDA9E0F8
:10088C00002280213D4801F0D8FD00224FF48071F8
:10089C003A4801F0D2FD00224FF40071374801F0C4
:1008AC00CCFD01224FF48061344801F0C6FD0122D9
:1008BC004FF40061314801F0C0FD01224FF480512A
:1008CC002E4801F0BAFD01224FF400512B4801F0E3
:1008DC00B4FD7FE000228021284801F0AEFD00220B
:1008EC004FF48071254801F0A8FD00224FF40071EF
:1008FC00224801F0A2FD00224FF480611F4801F054
:10090C009CFD00224FF400611C4801F096FD002272
:10091C004FF48051194801F090FD00224FF4005122
:10092C00164801F08AFD55E000228021134801F0A1
:10093C0084FD00224FF48071104801F07EFD0022EE
:10094C004FF400710D4801F078FD00224FF48061E6
:10095C000A4801F072FD01224FF40061074801F0D2
:10096C006CFD00224FF48051044801F066FD00221A
:10097C004FF40051014801F060FD2BE0000C0140E8
:10098C0001228021154801F058FD01224FF480719D
:10099C00124801F052FD01224FF400710F4801F092
:1009AC004CFD01224FF480610C4801F046FD012200
:1009BC004FF40061094801F040FD01224FF48051D1
:1009CC00064801F03AFD01224FF40051034801F0B2
:1009DC0034FD00BF00BF0837BD4680BD000C014090
:1009EC0080B483B000AF00237B603FE0244A7B6877
:1009FC00012142F82310224A7B6852F82320214916
:100A0C007B6841F823201F4A7B6852F823201E493B
:100A1C007B6841F823201D4A7B68012142F8231092
:100A2C001B4A7B68002142F823101A4A7B6800217C
:100A3C0042F82310184A7B68002142F82310174A09
:100A4C007B68002142F82310154A7B68002142F88C
:100A5C002310144A7B68002142F82310124A7B6849
:100A6C00002142F823107B6801337B607B68022BEA
:100A7C00BCDD00BF00BF0C37BD4680BC704700BF5B
:100A8C006C00002060000020540000207800002042
:100A9C0084000020900000209C000020A800002072
:100AAC00B4000020C0000020CC00002080B582B033
:100ABC0000AF00237B60DDE0734A7B6852F8232093
:100ACC0072497B6841F82320714A7B6852F82320D5
:100ADC006D497B6841F823206E4A7B6852F82320CD
:100AEC006D497B6831F813301946104601F08EFCC5
:100AFC0003461946664A7B6842F82310634A7B68B2
:100B0C0052F8232060497B6851F823309A4240F018
:100B1C00AE805D4A7B6852F823205D497B6851F8B2
:100B2C0023309A4240F0A3805C4A7B6852F8232021
:100B3C0057497B6851F823309A424ED0574A7B680C
:100B4C0052F82330002B34D1514A7B6852F82330B1
:100B5C00012B2ED1524A7B68012142F82310514AB5
:100B6C007B6852F823305A1C4E497B6841F823208D
:100B7C004C4A7B6852F82330012B05D14A4A7B68DA
:100B8C00282142F8231014E0464A7B6852F823309F
:100B9C00022B0ED1454A7B68012142F82310414AB1
:100BAC007B68002142F823103F4A7B68002142F801
:100BBC002310374A7B6852F8232038497B6841F868
:100BCC002320334A7B6852F82330002B2AD1384A31
:100BDC007B68642142F8231024E02D4A7B6852F88C
:100BEC002330002B1ED1324A7B6852F82330002B65
:100BFC0018DD2F4A7B6852F823305A1E2C497B682B
:100C0C0041F823202A4A7B6852F82330002B09DC58
:100C1C00284A7B68012142F82310254A7B6832213F
:100C2C0042F82310204A7B6852F82330002B1EDD3B
:100C3C001D4A7B6852F823305A1E1B497B6841F8C9
:100C4C002320194A7B6852F82330002B0FD1154A08
:100C5C007B6852F82330012B04D1174A7B680121A1
:100C6C0042F823100F4A7B68002142F823107B685E
:100C7C0001337B607B68022B7FF71EAF00BF00BF88
:100C8C000837BD4680BD00BF600000205400002026
:100C9C006C000020000000200C00002078000020D8
:100CAC00A8000020C0000020CC000020B4000020D0
:100CBC00840000209C0000209000002080B483B0B1
:100CCC0000AF78607B68002B02DB7B68022B01DDB8
:100CDC0000230DE0094A7B6852F82330012B06D122
:100CEC00064A7B68002142F82310012300E0002310
:100CFC0018460C37BD4680BC704700BF90000020E2
:100D0C0080B483B000AF78607B68002B02DB7B681B
:100D1C00022B01DD00230DE0094A7B6852F82330D9
:100D2C00012B06D1064A7B68002142F823100123CF
:100D3C0000E0002318460C37BD4680BC704700BF4E
:100D4C009C00002080B483B000AF78607B68002BDF
:100D5C0002DB7B68022B01DD00230DE0094A7B6876
:100D6C0052F82330012B06D1064A7B68002142F849
:100D7C002310012300E0002318460C37BD4680BC2D
:100D8C00704700BFB400002098B500AF9A4B1B7899
:100D9C00042B00F2248101A252F823F0BD0D0008AF
:100DAC002B0E0008990E00080D0F0008790F000893
:100DBC00032000F06DFE0346002B08D041F24421C5
:100DCC008E4801F052FBFA21032000F009FE8C4BF7
:100DDC001B68022B40F005810220FFF76FFF0346D2
:100DEC00002B00F0FE80012241F24421834801F0E7
:100DFC0024FB814B01221A7041F28831012000F052
:100E0C00EFFD40F6B831022000F0EAFD0A21042083
:100E1C0000F0E6FD0A21052000F0E2FDE1E000F023
:100E2C00F5FE00F063FF052000F032FE0346002BB8
:100E3C0010D0012000F044FE0446022000F040FED9
:100E4C00034619462046FFF7BDF94FF4FA71052009
:100E5C0000F0C6FD042000F01BFE0346002B05D05D
:100E6C00FFF76EF95021042000F0BAFD022000F0CB
:100E7C000FFE0346002B00F0B6805F4B02221A7067
:100E8C004FF4FA61022000F0ABFDACE000F04AFF39
:100E9C00052000F0FDFD0346002B10D0012000F0D2
:100EAC000FFE0446022000F00BFE034619462046B6
:100EBC00FFF788F94FF4FA71052000F091FD04203A
:100ECC0000F0E6FD0346002B05D0FFF739F9502161
:100EDC00042000F085FD012000F0DAFD0346002B14
:100EEC0000F08380444B03221A7040F6B831012085
:100EFC0000F076FD41F28831022000F071FD74E0C3
:100F0C0000F0A0FE00F0D6FE052000F0C1FD034667
:100F1C00002B10D0012000F0D3FD0446022000F07D
:100F2C00CFFD034619462046FFF74CF94FF4FA71F2
:100F3C00052000F055FD042000F0AAFD0346002B0F
:100F4C0005D0FFF7FDF85021042000F049FD0120E9
:100F5C0000F09EFD0346002B49D0274B04221A704B
:100F6C004FF4FA61012000F03BFD40E000F086FEFA
:100F7C00052000F08DFD0346002B10D0012000F061
:100F8C009FFD0446022000F09BFD034619462046B7
:100F9C00FFF718F94FF4FA71052000F021FD042039
:100FAC0000F076FD0346002B05D0FFF7C9F8502161
:100FBC00042000F015FD012000F06AFD0346002B13
:100FCC0017D00D4B01221A7041F28831012000F02C
:100FDC0007FD40F6B831022000F002FD09E000BF29
:100FEC0008E000BF06E000BF04E000BF02E000BF65
:100FFC0000E000BF00BF98BD1801002000080140B0
:10100C00E400002080B400AF00BFBD4680BC704738
:10101C0098B500AFA04B1B78042B00F2308101A2D5
:10102C0052F823F0451000088F1000080711000833
:10103C008F11000805120008984B1B68032B40F019
:10104C002081954B01221A70954B1B684FF47A72D4
:10105C0002FB03F31946012000F0C2FC914B1B6804
:10106C004FF47A7202FB03F31946022000F0B8FC2D
:10107C000A21042000F0B4FC0A21052000F0B0FC89
:10108C00FFE000F0C3FD00F031FE052000F000FD94
:10109C000346002B10D0012000F012FD0446022064
:1010AC0000F00EFD034619462046FFF78BF84FF46F
:1010BC00FA71052000F094FC042000F0E9FC0346D2
:1010CC00002B05D0FFF73CF85021042000F088FCE1
:1010DC00022000F0DDFC0346002B00F0D4806E4BA8
:1010EC0002221A70704B1B684FF47A7202FB03F3E6
:1010FC001946022000F074FCC5E000F013FE052038
:10110C0000F0C6FC0346002B10D0012000F0D8FCE8
:10111C000446022000F0D4FC034619462046FFF793
:10112C0051F84FF4FA71052000F05AFC042000F03D
:10113C00AFFC0346002B05D0FFF702F8502104202A
:10114C0000F04EFC012000F0A3FC0346002B00F045
:10115C009C80514B03221A70524B1B684FF47A72CD
:10116C0002FB03F31946012000F03AFC4C4B1B68C0
:10117C004FF47A7202FB03F31946022000F030FCA4
:10118C0083E000F05FFD00F095FD052000F080FC91
:10119C000346002B10D0012000F092FC04460220E4
:1011AC0000F08EFC034619462046FFF70BF84FF46F
:1011BC00FA71052000F014FC042000F069FC0346D1
:1011CC00002B05D0FEF7BCFF5021042000F008FCDA
:1011DC00012000F05DFC0346002B58D02E4B04225E
:1011EC001A70314B1B684FF47A7202FB03F31946E9
:1011FC00012000F0F5FB4AE000F040FD052000F076
:10120C0047FC0346002B10D0012000F059FC04468B
:10121C00022000F055FC034619462046FEF7D2FF8B
:10122C004FF4FA71052000F0DBFB042000F030FCD9
:10123C000346002B05D0FEF783FF5021042000F05D
:10124C00CFFB012000F024FC0346002B21D0124BD5
:10125C0001221A70124B1B684FF47A7202FB03F3D3
:10126C001946012000F0BCFB0E4B1B684FF47A7240
:10127C0002FB03F31946022000F0B2FB09E000BFA9
:10128C0008E000BF06E000BF04E000BF02E000BFC2
:10129C0000E000BF00BF98BD18010020E400002052
:1012AC00D8000020E0000020DC00002080B500AF5A
:1012BC00B24B1B680B3B032B00F2578101A252F877
:1012CC0023F000BFE1120008AD1300088D140008D4
:1012DC0071150008032000F0DBFB0346002B08D03F
:1012EC0040F61211A64801F0C0F8FA21032000F0D4
:1012FC0077FB052000F0CCFB0346002B0DD0A14B57
:10130C001B68642202FB03F364211846FEF75AFFA4
:10131C004FF49671052000F063FB042000F0B8FB3D
:10132C000346002B05D0FEF70BFF5021042000F0E4
:10133C0057FB0120FFF7C2FC0346002B05D101200F
:10134C00FFF7DEFC0346002B04D08E4B1B680133E9
:10135C008C4A13600220FFF7B1FC0346002B05D129
:10136C000220FFF7CDFC0346002B04D0854B1B68F5
:10137C00013B844A13600220FFF7E4FC0346002B78
:10138C0000F0F580012240F612117D4801F055F86D
:10139C007A4B0C221A60FA21032000F021FBE6E0C4
:1013AC00032000F075FB0346002B08D041F24421CA
:1013BC00734801F05AF8FA21032000F011FB0520C4
:1013CC0000F066FB0346002B0DD06F4B1B686422AC
:1013DC0002FB03F3C8211846FEF7F4FE4FF4967196
:1013EC00052000F0FDFA042000F052FB0346002B10
:1013FC0005D0FEF7A5FE5021042000F0F1FA0120E3
:10140C00FFF75CFC0346002B05D10120FFF778FCAD
:10141C000346002B0AD05C4B1A685A4B1B689A4245
:10142C0004DC594B1B680133574A13600220FFF749
:10143C0045FC0346002B05D10220FFF761FC034657
:10144C00002B08D0504B1B68002B04DD4E4B1B6847
:10145C00013B4D4A13600220FFF774FC0346002B3E
:10146C0000F08780012241F24421454800F0E5FF5D
:10147C00424B0D221A60FA21032000F0B1FA78E0F9
:10148C00032000F005FB0346002B08D042F28841F4
:10149C003B4800F0EAFFFA21032000F0A1FA0520F6
:1014AC0000F0F6FA0346002B0ED0384B1B68642272
:1014BC0002FB03F34FF496711846FEF783FE4FF4CC
:1014CC009671052000F08CFA042000F0E1FA034636
:1014DC00002B05D0FEF734FE5021042000F080FADA
:1014EC000120FFF7EBFB0346002B05D10120FFF792
:1014FC0007FC0346002B0DD0224B1A68224B1B68AD
:10150C00D21A224B1B689A4204DD204B1B68013314
:10151C001E4A13600220FFF7D1FB0346002B05D1B6
:10152C000220FFF7EDFB0346002B08D0174B1B687E
:10153C00002B04DD154B1B68013B144A1360022081
:10154C00FFF700FC0346002B15D0012242F2884124
:10155C000B4800F072FF094B0E221A600C4B002254
:10156C001A7008E0FFF754FD06E000BF04E000BF6E
:10157C0002E000BF00E000BF00BF80BD14000020EF
:10158C0000080140D8000020DC000020E000002012
:10159C001801002080B400AF044B00221A70044BD9
:1015AC000B221A6000BFBD4680BC7047180100209A
:1015BC001400002080B500AF5C4B1B68013B032B73
:1015CC0000F2A98001A252F823F000BFE91500082F
:1015DC0069160008AB160008ED16000800F0BEFBFB
:1015EC00FEF73EFEFFF7D6FF002000F051FA03464F
:1015FC00002B08D020214E4800F037FF4FF47A71B1
:10160C00002000F0EDF90020FFF758FB0346002BFB
:10161C0007D0464B02221A604FF47A71002000F07A
:10162C00DFF90120FFF74AFB0346002B07D03F4BA5
:10163C0003221A604FF47A71002000F0D1F90220D5
:10164C00FFF73CFB0346002B67D0384B04221A6093
:10165C004FF47A71002000F0C3F95EE0FFF794FBC1
:10166C00002000F015FA0346002B08D0202130484A
:10167C0000F0FBFE4FF47A71002000F0B1F900206D
:10168C00FFF71CFB0346002B49D0284B03221A60A2
:10169C0000F064FBFEF7E4FDFFF77CFF3FE0FFF793
:1016AC0005FE002000F0F4F90346002B08D02021A1
:1016BC001F4800F0DAFE4FF47A71002000F090F928
:1016CC000020FFF7FBFA0346002B2AD0174B04220D
:1016DC001A6000F043FBFEF7C3FDFFF75BFF20E051
:1016EC00FFF790FC002000F0D3F90346002B08D044
:1016FC0020210F4800F0B9FE4FF47A71002000F061
:10170C006FF90020FFF7DAFA0346002B0BD0074BDA
:10171C0001221A6007E000BF06E000BF04E000BF32
:10172C0002E000BF00E000BF00BF80BDE40000206D
:10173C000008014080B500AF00F07EFB00F018F807
:10174C0000F09EF800F050F8074801F0D3FAFFF7CC
:10175C0047F9064B01221A604FF47A7000F014F925
:10176C00FFF728FFFCE700BF1C010020E40000206D
:10177C0080B590B000AF07F118032822002118465D
:10178C0001F068FE3B1D00221A605A609A60DA6014
:10179C001A610223BB610123BB621023FB6200238D
:1017AC007B6307F11803184600F078FE0346002B04
:1017BC0001D000F0E3F80F237B600023BB60002313
:1017CC00FB6000233B6100237B613B1D002118461D
:1017DC0001F0E4F80346002B01D000F0CFF800BF75
:1017EC004037BD4680BD000080B586B000AF07F124
:1017FC00080300221A605A609A60DA603B460022A5
:10180C001A605A601D4B4FF080421A601B4B41F618
:10181C003F725A60194B00229A60184B0922DA6009
:10182C00164B00221A61154B00229A61134801F0E5
:10183C0011FA0346002B01D000F0A0F84FF48053AE
:10184C00BB6007F1080319460C4801F08FFB0346F7
:10185C00002B01D000F092F800233B6000237B604A
:10186C003B461946054801F067FD0346002B01D0A5
:10187C0000F084F800BF1837BD4680BD1C01002065
:10188C0080B588B000AF07F1100300221A605A60CF
:10189C009A60DA602F4B9B692E4A43F010039361D8
:1018AC002C4B9B6903F01003FB60FB68294B9B6975
:1018BC00284A43F004039361264B9B6903F004030D
:1018CC00BB60BB68234B9B69224A43F008039361BE
:1018DC00204B9B6903F008037B607B68002243F676
:1018EC00FE711D4800F0A9FD00224FF6FF711B4848
:1018FC0000F0A3FD4FF460433B6100237B610123A7
:10190C00BB6107F110031946154800F005FC43F6BE
:10191C00FE733B6101237B610023BB610223FB61EE
:10192C0007F1100319460C4800F0F6FB4FF6FF7355
:10193C003B6101237B610023BB610223FB6107F147
:10194C0010031946054800F0E7FB00BF2037BD46E1
:10195C0080BD00BF0010024000080140000C014097
:10196C000010014080B582B000AF786000F060F8E4
:10197C00FFF79CF800BF0837BD4680BD80B400AFB0
:10198C0072B600BFFEE7000080B485B000AF78608F
:10199C007B68104A82FB03129210DB17D31ABB60D0
:1019AC000023FB600CE00C49FB68BA6841F823206B
:1019BC000A4AFB68002142F82310FB680133FB60E4
:1019CC00FB68052BEFDD00BF00BF1437BD4680BCA4
:1019DC00704700BF67666666E800002000010020C3
:1019EC0080B483B000AF786039607B68002B13DB68
:1019FC007B68052B10DC3B680A4A82FB03129210B1
:101A0C00DB17D21A08497B6841F82320074A7B6808
:101A1C00002142F8231000E000BF0C37BD4680BC0B
:101A2C00704700BF67666666E80000200001002072
:101A3C0080B483B000AF00237B601CE0124A7B684B
:101A4C0052F82330002B13DD0F4A7B6852F82330F9
:101A5C005A1E0D497B6841F823200B4A7B6852F8CB
:101A6C002330002B04DC094A7B68012142F8231047
:101A7C007B6801337B607B68052BDFDD00BF00BF1B
:101A8C000C37BD4680BC7047E800002000010020E8
:101A9C0080B483B000AF78607B68002B02DB7B687E
:101AAC00052B01DD002303E0044A7B6852F8233048
:101ABC0018460C37BD4680BC704700BF00010020A3
:101ACC0080B483B000AF78607B68002B02DB7B684E
:101ADC00052B01DD002303E0044A7B6852F8233018
:101AEC0018460C37BD4680BC704700BFE80000208C
:101AFC0080B485B000AF154B9B69144A43F00103C9
:101B0C009361124B9B6903F00103BB60BB680F4BE5
:101B1C00DB690E4A43F08053D3610C4BDB6903F055
:101B2C0080537B607B680A4B5B68FB60FB6823F02F
:101B3C00E063FB60FB6843F08063FB60044AFB6876
:101B4C00536000BF1437BD4680BC70470010024084
:101B5C000000014080B584B000AF78607B681B68E2
:101B6C00B3F1804F13D10C4BDB690B4A43F00103EB
:101B7C00D361094BDB6903F00103FB60FB680022B6
:101B8C0000211C2000F091FA1C2000F0AAFA00BFE2
:101B9C001037BD4680BD00BF0010024080B400AFBE
:101BAC00FEE780B400AFFEE780B400AFFEE780B480
:101BBC0000AFFEE780B400AFFEE780B400AF00BF1B
:101BCC00BD4680BC704780B400AF00BFBD4680BC32
:101BDC00704780B400AF00BFBD4680BC704780B575
:101BEC0000AF00F06FF900BF80BD000080B500AF02
:101BFC00024801F0CBF800BF80BD00BF1C010020E3
:101C0C0080B400AF00BFBD4680BC704780B500AF4C
:101C1C00002202210A4800F010FC0122042108488D
:101C2C0000F00BFC00224FF48071054800F005FC1D
:101C3C0001224FF40071024800F0FFFB00BF80BD91
:101C4C000008014080B500AF012202210A4800F0D3
:101C5C00F4FB00220821084800F0EFFB01224FF4AE
:101C6C008071054800F0E9FB00224FF480610248C6
:101C7C0000F0E3FB00BF80BD0008014080B500AF61
:101C8C00012208210A4800F0D8FB00220421084850
:101C9C0000F0D3FB01224FF48061054800F0CDFB2E
:101CAC0000224FF40071024800F0C7FB00BF80BD5A
:101CBC000008014080B500AF002210210A4800F056
:101CCC00BCFB01224021084800F0B7FB00224FF476
:101CDC000061054800F0B1FB01224FF4805102482D
:101CEC0000F0ABFB00BF80BD0008014080B500AF29
:101CFC00012210210A4800F0A0FB00228021084894
:101D0C0000F09BFB01224FF40061054800F095FBAD
:101D1C0000224FF40051024800F08FFB00BF80BD41
:101D2C000008014080B500AF012280210A4800F074
:101D3C0084FB00224021084800F07FFB01224FF475
:101D4C000051054800F079FB00224FF48051024805
:101D5C0000F073FB00BF80BD0008014080B500AFF0
:101D6C0001220221204800F068FB012204211E48B8
:101D7C0000F063FB012208211B4800F05EFB0122EE
:101D8C001021194800F059FB01224021164800F09F
:101D9C0054FB01228021144800F04FFB01224FF428
:101DAC008071114800F049FB01224FF400710E487C
:101DBC0000F043FB01224FF480610B4800F03DFB27
:101DCC0001224FF40061084800F037FB01224FF468
:101DDC008051054800F031FB01224FF400510248BC
:101DEC0000F02BFB00BF80BD00080140FFF708FF8F
:101DFC000B480C490C4A002302E0D458C45004335D
:101E0C00C4188C42F9D3094A094C002301E0136031
:101E1C000432A242FBD301F0F9FAFFF78BFC7047B6
:101E2C000000002024000020B4340008240000200E
:101E3C0068010020FEE7000080B500AF084B1B686E
:101E4C00074A43F010031360032000F023F90F201E
:101E5C0000F008F8FFF74CFE0023184680BD00BFC9
:101E6C000020024080B582B000AF7860124B1A6837
:101E7C00124B1B7819464FF47A73B3FBF1F3B2FB98
:101E8C00F3F3184600F03BF90346002B01D0012375
:101E9C000EE07B680F2B0AD8002279684FF0FF30D8
:101EAC0000F003F9064A7B681360002300E001236D
:101EBC0018460837BD4680BD1800002020000020C1
:101ECC001C00002080B400AF054B1B781A46054B54
:101EDC001B681344034A136000BFBD4680BC7047A7
:101EEC00200000206401002080B400AF024B1B686E
:101EFC001846BD4680BC70476401002080B485B094
:101F0C0000AF78607B6803F00703FB600C4BDB6869
:101F1C00BB60BA684FF6FF031340BB60FB681A0244
:101F2C00BB68134343F0BF6343F40033BB60044A04
:101F3C00BB68D36000BF1437BD4680BC704700BF80
:101F4C0000ED00E080B400AF044BDB681B0A03F02B
:101F5C0007031846BD4680BC704700BF00ED00E08B
:101F6C0080B483B000AF0346FB7197F90730002BA8
:101F7C000BDBFB7903F01F02064997F907305B096D
:101F8C00012000FA02F241F8232000BF0C37BD46B5
:101F9C0080BC704700E100E080B483B000AF034622
:101FAC003960FB7197F90730002B0ADB3B68DAB21A
:101FBC000C4997F907301201D2B20B4483F8002375
:101FCC000AE03B68DAB20849FB7903F00F03043BE3
:101FDC001201D2B20B441A7600BF0C37BD4680BC3E
:101FEC00704700BF00E100E000ED00E080B489B074
:101FFC0000AFF860B9607A60FB6803F00703FB611F
:10200C00FB69C3F10703042B28BF0423BB61FB69E5
:10201C000433062B02D9FB69033B00E000237B61F0
:10202C004FF0FF32BB6902FA03F3DA43BB681A4084
:10203C007B699A404FF0FF317B6901FA03F3D94376
:10204C007B680B40134318462437BD4680BC704751
:10205C0080B582B000AF78607B68013BB3F1807FC4
:10206C0001D301230FE00A4A7B68013B53600F2127
:10207C004FF0FF30FFF790FF054B00229A60044BA6
:10208C0007221A60002318460837BD4680BD00BFE2
:10209C0010E000E080B582B000AF78607868FFF7A0
:1020AC002DFF00BF0837BD4680BD80B586B000AFA0
:1020BC000346B9607A60FB7300237B61FFF742FF34
:1020CC0078617A68B9687869FFF790FF024697F9EA
:1020DC000F3011461846FFF75FFF00BF1837BD469B
:1020EC0080BD80B582B000AF0346FB7197F9073015
:1020FC001846FFF735FF00BF0837BD4680BD80B5D9
:10210C0082B000AF78607868FFF7A2FF03461846EC
:10211C000837BD4680BD000080B48BB000AF78603E
:10212C00396000237B6200233B6248E101227B6A19
:10213C0002FA03F3FB613B681B68FA691340BB614D
:10214C00BA69FB699A4240F037813B685B68A34AE5
:10215C0093425ED0A14A934275D8A14A934258D07B
:10216C009F4A93426FD89F4A934252D09D4A9342C2
:10217C0069D89D4A93424CD09B4A934263D89B4A60
:10218C00934246D0994A93425DD8122B2AD8122BEF
:10219C0059D801A252F823F01F220008F921000897
:1021AC000B2200084D22000853220008532200087D
:1021BC00532200085322000853220008532200081F
:1021CC00532200085322000853220008532200080F
:1021DC005322000853220008532200080122000851
:1021EC0015220008824A934213D02CE03B68DB682E
:1021FC003B6229E03B68DB6804333B6224E03B68CC
:10220C00DB6808333B621FE03B68DB680C333B62E6
:10221C001AE03B689B68002B02D104233B6213E05D
:10222C003B689B68012B05D108233B627B68FA69EC
:10223C001A6109E008233B627B68FA695A6103E082
:10224C0000233B6200E000BFBB69FF2B01D87B6819
:10225C0001E07B6804337B61BB69FF2B02D87B6A8E
:10226C009B0002E07B6A083B9B003B617B691A6820
:10227C000F213B6901FA03F3DB431A40396A3B69CE
:10228C0001FA03F31A437B691A603B685B6803F03D
:10229C008053002B00F09080564B9B69554A43F0BD
:1022AC0001039361534B9B6903F00103BB60BB6853
:1022BC00514A7B6A9B08023352F82330FB607B6ADD
:1022CC0003F003039B000F2202FA03F3DB43FA68CB
:1022DC001340FB607B68494A93420DD07B68484AA7
:1022EC00934207D07B68474A934201D1022304E012
:1022FC00032302E0012300E000237A6A02F00302C8
:10230C0092009340FA681343FB603B497B6A9B083D
:10231C000233FA6841F823203B685B6803F48013AE
:10232C00002B06D0384B9A683749BB6913438B6036
:10233C0006E0354B9A68BB69DB43334913408B602D
:10234C003B685B6803F40013002B06D02E4BDA6855
:10235C002D49BB691343CB6006E02B4BDA68BB6994
:10236C00DB4329491340CB603B685B6803F40033C3
:10237C00002B06D0244B5A682349BB6913434B608E
:10238C0006E0214B5A68BB69DB431F4913404B6085
:10239C003B685B6803F48033002B06D01A4B1A6839
:1023AC001949BB6913430B6006E0174B1A68BB69EC
:1023BC00DB43154913400B607B6A01337B623B683E
:1023CC001A687B6A22FA03F3002B7FF4AFAE00BFCE
:1023DC0000BF2C37BD4680BC704700BF00003210D8
:1023EC00000031100000221000002110000012101B
:1023FC0000001110001002400000014000080140D4
:10240C00000C0140001001400004014080B485B074
:10241C0000AF78600B467B807B689A687B881340A2
:10242C00002B02D00123FB7301E00023FB73FB7B29
:10243C0018461437BD4680BC704780B483B000AFDB
:10244C0078600B467B8013467B707B78002B03D027
:10245C007A887B681A6103E07B881A047B681A61AE
:10246C0000BF0C37BD4680BC704780B485B000AF50
:10247C0078600B467B807B68DB68FB607A88FB6846
:10248C0013401A04FB68D9437B880B401A437B68C2
:10249C001A6100BF1437BD4680BC704780B586B04A
:1024AC0000AF78607B68002B01D101236CE27B6864
:1024BC001B6803F00103002B00F08780924B5B68D4
:1024CC0003F00C03042B0CD08F4B5B6803F00C0354
:1024DC00082B12D18C4B5B6803F48033B3F5803F2F
:1024EC000BD1894B1B6803F40033002B6CD07B6839
:1024FC005B68002B68D1012346E27B685B68B3F50F
:10250C00803F06D1804B1B687F4A43F480331360B5
:10251C002EE07B685B68002B0CD17B4B1B687A4AE6
:10252C0023F480331360784B1B68774A23F48023A1
:10253C0013601DE07B685B68B3F5A02F0CD1724B68
:10254C001B68714A43F4802313606F4B1B686E4AFF
:10255C0043F4803313600BE06B4B1B686A4A23F423
:10256C0080331360684B1B68674A23F48023136025
:10257C007B685B68002B13D0FFF7B6FC386108E072
:10258C00FFF7B2FC02463B69D31A642B01D9032333
:10259C00FAE15D4B1B6803F40033002BF0D014E020
:1025AC00FFF7A2FC386108E0FFF79EFC02463B698E
:1025BC00D31A642B01D90323E6E1534B1B6803F4B4
:1025CC000033002BF0D100E000BF7B681B6803F0E8
:1025DC000203002B63D04C4B5B6803F00C03002B05
:1025EC000BD0494B5B6803F00C03082B1CD1464BFA
:1025FC005B6803F48033002B16D1434B1B6803F04C
:10260C000203002B05D07B681B69012B01D0012331
:10261C00BAE13D4B1B6823F0F8027B685B69DB0079
:10262C00394913430B603AE07B681B69002B20D0BF
:10263C00364B01221A60FFF757FC386108E0FFF7B0
:10264C0053FC02463B69D31A022B01D903239BE1AD
:10265C002D4B1B6803F00203002BF0D02A4B1B6898
:10266C0023F0F8027B685B69DB00274913430B609E
:10267C0015E0264B00221A60FFF736FC386108E0A3
:10268C00FFF732FC02463B69D31A022B01D9032314
:10269C007AE11D4B1B6803F00203002BF0D17B6821
:1026AC001B6803F00803002B3AD07B689B69002B56
:1026BC0019D0174B01221A60FFF716FC386108E09D
:1026CC00FFF712FC02463B69D31A022B01D90323F4
:1026DC005AE10D4B5B6A03F00203002BF0D0012092
:1026EC0000F09AFA1CE00A4B00221A60FFF7FCFB80
:1026FC0038610FE0FFF7F8FB02463B69D31A022B57
:10270C0008D9032340E100BF001002400000424200
:10271C00800442429E4B5B6A03F00203002BE9D11A
:10272C007B681B6803F00403002B00F0A6800023D9
:10273C00FB75974BDB6903F08053002B0DD1944B49
:10274C00DB69934A43F08053D361914BDB6903F00F
:10275C008053BB60BB680123FB758E4B1B6803F475
:10276C008073002B18D18B4B1B688A4A43F48073FF
:10277C001360FFF7B9FB386108E0FFF7B5FB0246C1
:10278C003B69D31A642B01D90323FDE0814B1B68F1
:10279C0003F48073002BF0D07B68DB68012B06D12F
:1027AC007B4B1B6A7A4A43F0010313622DE07B6872
:1027BC00DB68002B0CD1764B1B6A754A23F00103A6
:1027CC001362734B1B6A724A23F0040313621CE0FE
:1027DC007B68DB68052B0CD16D4B1B6A6C4A43F094
:1027EC00040313626A4B1B6A694A43F001031362C8
:1027FC000BE0674B1B6A664A23F001031362644BC0
:10280C001B6A634A23F0040313627B68DB68002BAA
:10281C0015D0FFF769FB38610AE0FFF765FB02464C
:10282C003B69D31A41F28832934201D90323ABE0BE
:10283C00574B1B6A03F00203002BEED014E0FFF79A
:10284C0053FB38610AE0FFF74FFB02463B69D31A92
:10285C0041F28832934201D9032395E04C4B1B6A19
:10286C0003F00203002BEED1FB7D012B05D1484B6D
:10287C00DB69474A23F08053D3617B68DB69002B0B
:10288C0000F08180424B5B6803F00C03082B61D095
:10289C007B68DB69022B46D13F4B00221A60FFF7A5
:1028AC0023FB386108E0FFF71FFB02463B69D31A94
:1028BC00022B01D9032367E0354B1B6803F000732F
:1028CC00002BF0D17B681B6AB3F5803F08D1304BED
:1028DC005B6823F400327B689B682D4913434B6083
:1028EC002B4B5B6823F474127B68196A7B685B6AF8
:1028FC000B43274913434B60274B01221A60FFF708
:10290C00F3FA386108E0FFF7EFFA02463B69D31A95
:10291C00022B01D9032337E01D4B1B6803F0007316
:10292C00002BF0D02FE01C4B00221A60FFF7DCFAD2
:10293C00386108E0FFF7D8FA02463B69D31A022B3C
:10294C0001D9032320E0124B1B6803F00073002B0A
:10295C00F0D118E07B68DB69012B01D1012313E076
:10296C000B4B5B68FB60FB6803F480327B681B6A73
:10297C009A4206D1FB6803F470127B685B6A9A4238
:10298C0001D0012300E0002318461837BD4680BD56
:10299C0000100240007000406000424280B584B0DC
:1029AC0000AF786039607B68002B01D10123D0E047
:1029BC006A4B1B6803F007033A689A4210D9674BBD
:1029CC001B6823F0070265493B6813430B60634B9C
:1029DC001B6803F007033A689A4201D00123B8E060
:1029EC007B681B6803F00203002B20D07B681B68FC
:1029FC0003F00403002B05D0594B5B68584A43F491
:102A0C00E06353607B681B6803F00803002B05D060
:102A1C00534B5B68524A43F460535360504B5B68B2
:102A2C0023F0F0027B689B684D4913434B607B6835
:102A3C001B6803F00103002B40D07B685B68012B03
:102A4C0007D1474B1B6803F40033002B15D101232E
:102A5C007FE07B685B68022B07D1414B1B6803F05E
:102A6C000073002B09D1012373E03D4B1B6803F06D
:102A7C000203002B01D101236BE0394B5B6823F07F
:102A8C0003027B685B68364913434B60FFF72CFAF3
:102A9C00F8600AE0FFF728FA0246FB68D31A41F205
:102AAC008832934201D9032353E02D4B5B6803F02A
:102ABC000C027B685B689B009A42EBD1274B1B682E
:102ACC0003F007033A689A4210D2244B1B6823F098
:102ADC00070222493B6813430B60204B1B6803F031
:102AEC0007033A689A4201D0012332E07B681B68E5
:102AFC0003F00403002B08D0194B5B6823F4E0624D
:102B0C007B68DB68164913434B607B681B6803F0DA
:102B1C000803002B09D0124B5B6823F460527B68CE
:102B2C001B69DB000E4913434B6000F021F8024691
:102B3C000B4B5B681B0903F00F030A49CB5C22FAB1
:102B4C0003F3094A1360094B1B681846FFF78AF90F
:102B5C00002318461037BD4680BD00BF0020024040
:102B6C000010024088340008180000201C000020CF
:102B7C0080B487B000AF0023FB600023BB60002350
:102B8C007B6100237B6000233B611E4B5B68FB6019
:102B9C00FB6803F00C03042B02D0082B03D027E0B6
:102BAC00194B3B6127E0FB689B0C03F00F03174AA2
:102BBC00D35C7B60FB6803F48033002B10D0114B8B
:102BCC005B685B0C03F00103114AD35CBB607B6850
:102BDC000D4A02FB03F2BB68B2FBF3F37B6104E02A
:102BEC007B680C4A02FB03F37B617B693B6102E06F
:102BFC00054B3B6100BF3B6918461C37BD4680BC8A
:102C0C00704700BF0010024000127A009834000890
:102C1C00A834000800093D0080B485B000AF78608E
:102C2C000A4B1B680A4AA2FB03235B0A7A6802FB65
:102C3C0003F3FB6000BFFB685A1EFA60002BF9D14E
:102C4C0000BF00BF1437BD4680BC70471800002081
:102C5C00D34D621080B582B000AF78607B68002BDA
:102C6C0001D1012341E07B6893F83D30DBB2002BAE
:102C7C0006D17B68002283F83C207868FEF76AFF57
:102C8C007B68022283F83D207B681A687B680433DA
:102C9C001946104600F056FA7B68012283F846204C
:102CAC007B68012283F83E207B68012283F83F2059
:102CBC007B68012283F840207B68012283F8412045
:102CCC007B68012283F842207B68012283F8432031
:102CDC007B68012283F844207B68012283F845201D
:102CEC007B68012283F83D20002318460837BD4637
:102CFC0080BD000080B485B000AF78607B6893F82D
:102D0C003D30DBB2012B01D0012335E07B68022280
:102D1C0083F83D207B681B68DA687B681B6842F08F
:102D2C000102DA607B681B68164A934209D07B6803
:102D3C001B68B3F1804F04D07B681B68124A934226
:102D4C0011D17B681B689B6803F00703FB60FB6871
:102D5C00062B10D07B681B681A687B681B6842F0D6
:102D6C0001021A6007E07B681B681A687B681B68A5
:102D7C0042F001021A60002318461437BD4680BC8D
:102D8C00704700BF002C01400004004080B584B0A7
:102D9C0000AF78607B681B68DB68FB607B681B6836
:102DAC001B69BB60BB6803F00203002B20D0FB68DF
:102DBC0003F00203002B1BD07B681B686FF0020230
:102DCC001A617B6801221A777B681B689B6903F088
:102DDC000303002B03D0786800F098F905E07868BD
:102DEC0000F08BF9786800F09AF97B6800221A776A
:102DFC00BB6803F00403002B20D0FB6803F0040332
:102E0C00002B1BD07B681B686FF004021A617B6877
:102E1C0002221A777B681B689B6903F44073002BB2
:102E2C0003D0786800F072F905E0786800F065F975
:102E3C00786800F074F97B6800221A77BB6803F09D
:102E4C000803002B20D0FB6803F00803002B1BD0D9
:102E5C007B681B686FF008021A617B6804221A7782
:102E6C007B681B68DB6903F00303002B03D07868D5
:102E7C0000F04CF905E0786800F03FF9786800F054
:102E8C004EF97B6800221A77BB6803F01003002B05
:102E9C0020D0FB6803F01003002B1BD07B681B6851
:102EAC006FF010021A617B6808221A777B681B6826
:102EBC00DB6903F44073002B03D0786800F026F92B
:102ECC0005E0786800F019F9786800F028F97B685B
:102EDC0000221A77BB6803F00103002B0CD0FB68AF
:102EEC0003F00103002B07D07B681B686FF0010215
:102EFC001A617868FEF736FDBB6803F08003002B7F
:102F0C000CD0FB6803F08003002B07D07B681B6898
:102F1C006FF080021A61786800F06FFABB6803F0FA
:102F2C004003002B0CD0FB6803F04003002B07D0B0
:102F3C007B681B686FF040021A61786800F0F8F843
:102F4C00BB6803F02003002B0CD0FB6803F02003BC
:102F5C00002B07D07B681B686FF020021A61786821
:102F6C0000F042FA00BF1037BD4680BD80B584B07A
:102F7C0000AF786039600023FB737B6893F83C30BA
:102F8C00012B01D10223B4E07B68012283F83C20A1
:102F9C007B68022283F83D207B681B689B68BB60C2
:102FAC00BB6823F07703BB60BB6823F47F43BB6033
:102FBC007B681B68BA689A603B681B68B3F5005F56
:102FCC003ED0B3F5005F00F28780B3F5805F00F070
:102FDC008680B3F5805F7FD8702B1AD0702B7BD88E
:102FEC00602B50D0602B77D8502B3CD0502B73D803
:102FFC00402B58D0402B6FD8302B64D0302B6BD853
:10300C00202B60D0202B67D8002B5CD0102B5AD0F3
:10301C0062E07B6818683B6899683B685A683B6853
:10302C00DB6800F06AF97B681B689B68BB60BB6857
:10303C0043F07703BB607B681B68BA689A604FE00B
:10304C007B6818683B6899683B685A683B68DB6822
:10305C0000F053F97B681B689A687B681B6842F424
:10306C0080429A603CE07B6818683B6859683B6812
:10307C00DB681A4600F0CAF87B681B6850211846BA
:10308C0000F021F92CE07B6818683B6859683B68B4
:10309C00DB681A4600F0E8F87B681B68602118466C
:1030AC0000F011F91CE07B6818683B6859683B68B4
:1030BC00DB681A4600F0AAF87B681B6840211846AA
:1030CC0000F001F90CE07B681A683B681B68194634
:1030DC00104600F0F8F803E00123FB7300E000BF9A
:1030EC007B68012283F83D207B68002283F83C201A
:1030FC00FB7B18461037BD4680BD80B483B000AF53
:10310C00786000BF0C37BD4680BC704780B483B07C
:10311C0000AF786000BF0C37BD4680BC704780B4F0
:10312C0083B000AF786000BF0C37BD4680BC7047E1
:10313C0080B483B000AF786000BF0C37BD4680BC54
:10314C007047000080B485B000AF786039607B6850
:10315C001B68FB607B682B4A934207D07B68B3F1FA
:10316C00804F03D07B68284A934208D1FB6823F038
:10317C007003FB603B685B68FA681343FB607B6819
:10318C00204A934207D07B68B3F1804F03D07B6811
:10319C001D4A934208D1FB6823F44073FB603B68E3
:1031AC00DB68FA681343FB60FB6823F080023B6822
:1031BC005B691343FB607B68FA681A603B689A682A
:1031CC007B68DA623B681A687B689A627B680D4A96
:1031DC00934203D13B681A697B681A637B680122AE
:1031EC005A617B681B6903F00103002B05D07B68D7
:1031FC001B6923F001027B681A6100BF1437BD46BE
:10320C0080BC7047002C01400004004080B487B0A3
:10321C0000AFF860B9607A60FB681B6A7B61FB6881
:10322C001B6A23F00102FB681A62FB689B693B6115
:10323C003B6923F0F0033B617B681B013A69134344
:10324C003B617B6923F00A037B617A69BB6813439A
:10325C007B61FB683A699A61FB687A691A6200BF04
:10326C001C37BD4680BC704780B487B000AFF86097
:10327C00B9607A60FB681B6A7B61FB681B6A23F090
:10328C001002FB681A62FB689B693B613B6923F483
:10329C0070433B617B681B033A6913433B617B6959
:1032AC0023F0A0037B61BB681B017A6913437B612C
:1032BC00FB683A699A61FB687A691A6200BF1C372D
:1032CC00BD4680BC704780B485B000AF7860396073
:1032DC007B689B68FB60FB6823F07003FB603A68BB
:1032EC00FB68134343F00703FB607B68FA689A6042
:1032FC0000BF1437BD4680BC704780B487B000AFA8
:10330C00F860B9607A603B60FB689B687B617B69A5
:10331C0023F47F437B613B681A027B681A43BB68CA
:10332C0013437A6913437B61FB687A699A6000BF27
:10333C001C37BD4680BC704780B485B000AF786048
:10334C0039607B6893F83C30012B01D1022341E0BA
:10335C007B68012283F83C207B68022283F83D20A5
:10336C007B681B685B68FB607B681B689B68BB6049
:10337C00FB6823F07003FB603B681B68FA6813431F
:10338C00FB607B681B68FA685A607B681B68144A90
:10339C00934209D07B681B68B3F1804F04D07B68E3
:1033AC001B68104A93420CD1BB6823F08003BB60AE
:1033BC003B685B68BA681343BB607B681B68BA6880
:1033CC009A607B68012283F83D207B68002283F899
:1033DC003C20002318461437BD4680BC704700BF04
:1033EC00002C01400004004080B483B000AF786032
:1033FC0000BF0C37BD4680BC704780B483B000AFB3
:10340C00786000BF0C37BD4680BC704770B5002695
:10341C000C4D0D4C641BA410A64209D100F022F8EF
:10342C0000260A4D0A4C641BA410A64205D170BD9F
:10343C0055F8043B98470136EEE755F8043B98479E
:10344C000136F2E7AC340008AC340008AC340008A8
:10345C00B034000803460244934200D1704703F88D
:10346C00011BF9E7F8B500BFF8BC08BC9E467047D5
:0C347C00F8B500BFF8BC08BC9E467047C5
:10348800000000000000000001020304060708090C
:1034980002030405060708090A0B0C0D0E0F10108D
:0434A800010200001D
:0434AC0031010008E2
:0434B0000D01000802
:1034B40000100140001001400010014000200040B5
:1034C400008000000B00000000127A0010000000D1
:0434D40001000000F3
:0400000508001DF9D9
:00000001FF
