:020000040800F2
:1000000000280020111D0008C11A0008C71A0008A6
:10001000CD1A0008D31A0008D91A00080000000001
:10002000000000000000000000000000DF1A0008CF
:10003000EB1A000800000000F71A0008031B000874
:10004000591D0008591D0008591D0008591D0008B8
:10005000591D0008591D0008591D0008591D0008A8
:10006000591D0008591D0008591D0008591D000898
:10007000591D0008591D0008591D0008591D000888
:10008000591D0008591D0008591D0008591D000878
:10009000591D0008591D0008591D0008591D000868
:1000A000591D0008591D0008591D0008591D000858
:1000B000111B0008591D000800000000591D000810
:1000C000591D00080000000000000000591D000834
:1000D00000000000591D0008591D00080000000024
:1000E000591D0008591D0008591D00080000000096
:1000F0000000000000000000000000000000000000
:0C01000000000000000000005FF808F1A3
:10010C0010B5054C237833B9044B13B10448AFF345
:10011C0000800123237010BD24000020000000008B
:10012C008833000808B5034B1BB103490348AFF3F0
:10013C00008008BD00000000280000208833000863
:10014C0080B500AF1C4B1B68002B19D11B4B1B68D7
:10015C00184600F09DF8194B5B68184600F04AFAF7
:10016C0000224FF48041164802F0F3F801224FF4BC
:10017C000041134802F0EDF80F4B01221A6018E011
:10018C000E4B9B68184600F083F80C4BDB68184646
:10019C0000F030FA01224FF48041094802F0D9F8FE
:1001AC0000224FF40041064802F0D3F8024B002223
:1001BC001A6000BF80BD00BF40000020440000203A
:1001CC00000C014080B485B000AF786039607B686A
:1001DC00204A82FB03125211DB17D31AFB603B68D7
:1001EC001C4A82FB03125211DB17D31ABB60FB684B
:1001FC00194A82FB03129210DB17D31A174A1360A9
:10020C00F968154B83FB01239A10CB17D21A1346AE
:10021C009B0013445B00CA1A104B5A60BB680E4A11
:10022C0082FB03129210DB17D31A0C4A9360B96845
:10023C00094B83FB01239A10CB17D21A13469B0050
:10024C0013445B00CA1A054BDA6000BF1437BD4675
:10025C0080BC70471F85EB516766666644000020C2
:10026C0080B500AF01224FF48041084802F071F8CC
:10027C0001224FF40041054802F06BF80A2000F00F
:10028C0007F80A2000F0B6F900BF80BD000C014051
:10029C0080B582B000AF78607B68092B00F280815A
:1002AC0001A252F823F000BFDD020008250300086C
:1002BC006D030008B5030008FD03000845040008A1
:1002CC008D040008D50400081D050008650500080C
:1002DC0000220121C64802F03CF800220221C44849
:1002EC0002F037F800220421C14802F032F8002253
:1002FC000821BF4802F02DF800221021BC4802F062
:10030C0028F800222021BA4802F023F801224021CB
:10031C00B74802F01EF867E101220121B44802F04F
:10032C0018F800220221B24802F013F8002204212E
:10033C00AF4802F00EF801220821AD4802F009F88E
:10034C0001221021AA4802F004F801222021A84819
:10035C0001F0FFFF01224021A54801F0FAFF43E123
:10036C0000220121A24801F0F4FF00220221A04842
:10037C0001F0EFFF012204219D4801F0EAFF002269
:10038C0008219B4801F0E5FF00221021984801F05C
:10039C00E0FF01222021964801F0DBFF00224021E2
:1003AC00934801F0D6FF1FE100220121904801F093
:1003BC00D0FF002202218E4801F0CBFF0022042145
:1003CC008B4801F0C6FF00220821894801F0C1FFCB
:1003DC0001221021864801F0BCFF01222021844813
:1003EC0001F0B7FF00224021814801F0B2FFFBE091
:1003FC00012201217E4801F0ACFF002202217C4841
:10040C0001F0A7FF00220421794801F0A2FF01228C
:10041C000821774801F09DFF01221021744801F05A
:10042C0098FF00222021724801F093FF0022402106
:10043C006F4801F08EFFD7E0002201216C4801F0DB
:10044C0088FF012202216A4801F083FF0022042167
:10045C00674801F07EFF00220821654801F079FF12
:10046C0001221021624801F074FF00222021604813
:10047C0001F06FFF002240215D4801F06AFFB3E0FC
:10048C00002201215A4801F064FF01220221584840
:10049C0001F05FFF00220421554801F05AFF0022B1
:1004AC000821534801F055FF00221021504801F05B
:1004BC0050FF002220214E4801F04BFF002240212A
:1004CC004B4801F046FF8FE000220121484801F023
:1004DC0040FF00220221464801F03BFF002204218C
:1004EC00434801F036FF01220821414801F031FF59
:1004FC00012210213E4801F02CFF012220213C4812
:10050C0001F027FF01224021394801F022FF6BE066
:10051C0000220121364801F01CFF00220221344840
:10052C0001F017FF00220421314801F012FF0022D4
:10053C0008212F4801F00DFF002210212C4801F05A
:10054C0008FF002220212A4801F003FF002240214D
:10055C00274801F0FEFE47E000220121244801F06B
:10056C00F8FE00220221224801F0F3FE00220421B1
:10057C001F4801F0EEFE002208211D4801F0E9FEA3
:10058C00012210211A4801F0E4FE00222021184813
:10059C0001F0DFFE00224021154801F0DAFE23E0D5
:1005AC0001220121124801F0D4FE0122022110483F
:1005BC0001F0CFFE012204210D4801F0CAFE0122F8
:1005CC0008210B4801F0C5FE01221021084801F05A
:1005DC00C0FE01222021064801F0BBFE0122402171
:1005EC00034801F0B6FE00BF00BF0837BD4680BD12
:1005FC00000C014080B582B000AF78607B68092B9D
:10060C0000F2BE8101A252F823F000BF410600089F
:10061C0095060008E90600083D0700089107000848
:10062C00E5070008390800088D080008E1080008F3
:10063C003509000800228021D04801F08AFE0022F2
:10064C004FF48071CD4801F084FE00224FF400710C
:10065C00CA4801F07EFE00224FF48061C74801F0C9
:10066C0078FE00224FF40061C44801F072FE0022B3
:10067C004FF48051C14801F06CFE01224FF400513F
:10068C00BE4801F066FEA5E101228021BB4801F0C5
:10069C0060FE00224FF48071B84801F05AFE00222F
:1006AC004FF40071B54801F054FE01224FF4806103
:1006BC00B24801F04EFE01224FF40061AF4801F048
:1006CC0048FE01224FF48051AC4801F042FE012259
:1006DC004FF40051A94801F03CFE7BE1002280213F
:1006EC00A64801F036FE00224FF48071A34801F0B9
:1006FC0030FE01224FF40071A04801F02AFE0022C6
:10070C004FF480619D4801F024FE00224FF40061FB
:10071C009A4801F01EFE01224FF48051974801F0D7
:10072C0018FE00224FF40051944801F012FE51E1E2
:10073C0000228021914801F00CFE00224FF48071C0
:10074C008E4801F006FE00224FF400718B4801F038
:10075C0000FE00224FF48061884801F0FAFD01226E
:10076C004FF40061854801F0F4FD01224FF48051F3
:10077C00824801F0EEFD00224FF400517F4801F059
:10078C00E8FD27E1012280217C4801F0E2FD0022F6
:10079C004FF48071794801F0DCFD00224FF40071B8
:1007AC00764801F0D6FD01224FF48061734801F0C8
:1007BC00D0FD01224FF40061704801F0CAFD002207
:1007CC004FF480516D4801F0C4FD00224FF40051EC
:1007DC006A4801F0BEFDFDE000228021674801F06F
:1007EC00B8FD01224FF48071644801F0B2FD002283
:1007FC004FF40071614801F0ACFD00224FF48061B0
:10080C005E4801F0A6FD01224FF400615B4801F047
:10081C00A0FD00224FF48051584801F09AFD0022AF
:10082C004FF40051554801F094FDD3E00022802193
:10083C00524801F08EFD01224FF480714F4801F0B7
:10084C0088FD00224FF400714C4801F082FD00221B
:10085C004FF48061494801F07CFD00224FF40061A7
:10086C00464801F076FD00224FF48051434801F0D8
:10087C0070FD00224FF40051404801F06AFDA9E0E0
:10088C00002280213D4801F064FD00224FF480716C
:10089C003A4801F05EFD00224FF40071374801F038
:1008AC0058FD01224FF48061344801F052FD0122C1
:1008BC004FF40061314801F04CFD01224FF480519E
:1008CC002E4801F046FD01224FF400512B4801F057
:1008DC0040FD7FE000228021284801F03AFD0022F3
:1008EC004FF48071254801F034FD00224FF4007163
:1008FC00224801F02EFD00224FF480611F4801F0C8
:10090C0028FD00224FF400611C4801F022FD00225A
:10091C004FF48051194801F01CFD00224FF4005196
:10092C00164801F016FD55E000228021134801F015
:10093C0010FD00224FF48071104801F00AFD0022D6
:10094C004FF400710D4801F004FD00224FF480615A
:10095C000A4801F0FEFC01224FF40061074801F047
:10096C00F8FC00224FF48051044801F0F2FC002204
:10097C004FF40051014801F0ECFC2BE0000C01405D
:10098C0001228021154801F0E4FC01224FF4807112
:10099C00124801F0DEFC01224FF400710F4801F007
:1009AC00D8FC01224FF480610C4801F0D2FC0122EA
:1009BC004FF40061094801F0CCFC01224FF4805146
:1009CC00064801F0C6FC01224FF40051034801F027
:1009DC00C0FC00BF00BF0837BD4680BD000C014005
:1009EC0080B483B000AF00237B603FE0244A7B6877
:1009FC00012142F82310224A7B6852F82320214916
:100A0C007B6841F823201F4A7B6852F823201E493B
:100A1C007B6841F823201D4A7B68012142F8231092
:100A2C001B4A7B68002142F823101A4A7B6800217C
:100A3C0042F82310184A7B68002142F82310174A09
:100A4C007B68002142F82310154A7B68002142F88C
:100A5C002310144A7B68002142F82310124A7B6849
:100A6C00002142F823107B6801337B607B68022BEA
:100A7C00BCDD00BF00BF0C37BD4680BC704700BF5B
:100A8C006C00002060000020540000207800002042
:100A9C0084000020900000209C000020A800002072
:100AAC00B4000020C0000020CC00002080B582B033
:100ABC0000AF00237B60D7E0704A7B6852F823209C
:100ACC006F497B6841F823206E4A7B6852F82320DB
:100ADC006A497B6841F823206B4A7B6852F82320D3
:100AEC006A497B6831F813301946104601F01AFC3C
:100AFC0003461946634A7B6842F82310604A7B68B8
:100B0C0052F823205D497B6851F823309A4240F01B
:100B1C00A8805A4A7B6852F823205A497B6851F8BE
:100B2C0023309A4240F09D80594A7B6852F823202A
:100B3C0054497B6851F823309A4253D0544A7B680D
:100B4C0052F82330002B34D14E4A7B6852F82330B4
:100B5C00012B2ED14F4A7B68012142F823104E4ABB
:100B6C007B6852F823305A1C4B497B6841F8232090
:100B7C00494A7B6852F82330012B05D1474A7B68E0
:100B8C001E2142F8231014E0434A7B6852F82330AC
:100B9C00022B0ED1424A7B68012142F823103E4AB7
:100BAC007B68002142F823103C4A7B68002142F804
:100BBC002310344A7B6852F8232035497B6841F86E
:100BCC002320304A7B6852F82330002B2FD1354A32
:100BDC007B68012142F82310334A7B68642142F878
:100BEC00231024E0274A7B6852F82330002B1ED1B7
:100BFC002D4A7B6852F82330002B18DD2A4A7B687B
:100C0C0052F823305A1E28497B6841F82320264A83
:100C1C007B6852F82330002B09DC244A7B680121C5
:100C2C0042F82310204A7B68322142F823101B4AD9
:100C3C007B6852F82330002B13DD184A7B6852F87E
:100C4C0023305A1E15497B6841F82320134A7B68D0
:100C5C0052F82330002B04D10F4A7B68002142F854
:100C6C0023107B6801337B607B68022B7FF724AFFA
:100C7C0000BF00BF0837BD4680BD00BF600000202C
:100C8C00540000206C000020000000200C0000200C
:100C9C0078000020A8000020C0000020CC0000201C
:100CAC00B400002090000020840000209C00002054
:100CBC0080B483B000AF78607B68002B02DB7B686C
:100CCC00022B01DD00230DE0094A7B6852F823302A
:100CDC00012B06D1064A7B68002142F82310012320
:100CEC0000E0002318460C37BD4680BC704700BF9F
:100CFC009000002080B483B000AF78607B68002B3C
:100D0C0002DB7B68022B01DD00230DE0094A7B68C6
:100D1C0052F82330012B06D1064A7B68002142F899
:100D2C002310012300E0002318460C37BD4680BC7D
:100D3C00704700BF9C00002080B483B000AF786087
:100D4C007B68002B02DB7B68022B01DD00230DE0AE
:100D5C00094A7B6852F82330012B06D1064A7B687E
:100D6C00002142F82310012300E0002318460C3721
:100D7C00BD4680BC704700BFB400002098B500AFE2
:100D8C00974B1B78042B00F21E8101A252F823F022
:100D9C00B10D0008130E0008810E0008F50E0008B6
:100DAC00610F0008032000F0FFFD0346002B08D064
:100DBC0040F612118B4801F0E4FAFA21032000F0FE
:100DCC009BFD894B1B68022B40F0FF800220FFF734
:100DDC006FFF0346002B00F0F880814B01221A7044
:100DEC0041F28831012000F087FD40F6B831022035
:100DFC0000F082FD0A21042000F07EFD0A2105206E
:100E0C0000F07AFDE1E000F08DFE00F0FBFE052025
:100E1C0000F0CAFD0346002B10D0012000F0DCFDD1
:100E2C000446022000F0D8FD034619462046FFF781
:100E3C00C9F94FF4FA71052000F05EFD042000F0B2
:100E4C00B3FD0346002B05D0FFF77AF9502104209F
:100E5C0000F052FD022000F0A7FD0346002B00F02D
:100E6C00B6805F4B02221A704FF4FA61022000F038
:100E7C0043FDACE000F0E2FE052000F095FD0346DA
:100E8C00002B10D0012000F0A7FD0446022000F03A
:100E9C00A3FD034619462046FFF794F94FF4FA7167
:100EAC00052000F029FD042000F07EFD0346002BF8
:100EBC0005D0FFF745F95021042000F01DFD01205D
:100ECC0000F072FD0346002B00F08380444B03229C
:100EDC001A7040F6B831012000F00EFD41F2883155
:100EEC00022000F009FD74E000F038FE00F06EFE08
:100EFC00052000F059FD0346002B10D0012000F016
:100F0C006BFD0446022000F067FD0346194620469F
:100F1C00FFF758F94FF4FA71052000F0EDFC0420AE
:100F2C0000F042FD0346002B05D0FFF709F95021D4
:100F3C00042000F0E1FC012000F036FD0346002BFC
:100F4C0049D0274B04221A704FF4FA61012000F0AB
:100F5C00D3FC40E000F01EFE052000F025FD03460A
:100F6C00002B10D0012000F037FD0446022000F0C9
:100F7C0033FD034619462046FFF724F94FF4FA7166
:100F8C00052000F0B9FC042000F00EFD0346002BF8
:100F9C0005D0FFF7D5F85021042000F0ADFC01205E
:100FAC0000F002FD0346002B17D00D4B01221A70E6
:100FBC0041F28831012000F09FFC40F6B83102204C
:100FCC0000F09AFC09E000BF08E000BF06E000BF9B
:100FDC0004E000BF02E000BF00E000BF00BF98BD0E
:100FEC001801002000080140E400002080B400AF8C
:100FFC0000BFBD4680BC704798B500AF954B1B78C1
:10100C00042B00F2198101A252F823F02D100008D4
:10101C006D100008DD1000085B110008C9110008F4
:10102C008D4B1B68032B40F009818A4B01221A70EF
:10103C008A4B1A688A4B1B6813441946012000F02E
:10104C005BFC864B1B681946022000F055FC0A21FC
:10105C00042000F051FC0A21052000F04DFCEDE0CD
:10106C0000F060FD00F0CEFD052000F09DFC034675
:10107C00002B10D0012000F0AFFC0446022000F041
:10108C00ABFC034619462046FFF79CF84FF4FA7167
:10109C00052000F031FC042000F086FC0346002BF8
:1010AC0005D0FFF74DF85021042000F025FC02205C
:1010BC0000F07AFC0346002B00F0C280654B022244
:1010CC001A70674B1B681946022000F015FCB7E03C
:1010DC0000F0B4FD052000F067FC0346002B10D097
:1010EC00012000F079FC0446022000F075FC034658
:1010FC0019462046FFF766F84FF4FA71052000F008
:10110C00FBFB042000F050FC0346002B05D0FFF73E
:10111C0017F85021042000F0EFFB012000F044FCF4
:10112C000346002B00F08E804A4B03221A704B4B67
:10113C001B681946012000F0DFFB484B1A68484B2E
:10114C001B6813441946022000F0D6FB7AE000F02D
:10115C0005FD00F03BFD052000F026FC0346002BAE
:10116C0010D0012000F038FC0446022000F034FCC2
:10117C00034619462046FFF725F84FF4FA7105206F
:10118C0000F0BAFB042000F00FFC0346002B05D046
:10119C00FEF7D6FF5021042000F0AEFB012000F03A
:1011AC0003FC0346002B4FD02A4B04221A702C4B05
:1011BC001B681946012000F09FFB45E000F0EAFC9B
:1011CC00052000F0F1FB0346002B10D0012000F0AD
:1011DC0003FC0446022000F0FFFB034619462046A0
:1011EC00FEF7F0FF4FF4FA71052000F085FB0420A8
:1011FC0000F0DAFB0346002B05D0FEF7A1FF5021CF
:10120C00042000F079FB012000F0CEFB0346002BFC
:10121C001CD0104B01221A70104B1A68104B1B6813
:10122C0013441946012000F067FB0C4B1B68194650
:10123C00022000F061FB09E000BF08E000BF06E0FF
:10124C0000BF04E000BF02E000BF00E000BF00BF31
:10125C0098BD00BF18010020E4000020E000002031
:10126C00DC00002080B500AF914B1B680B3B032BBF
:10127C0000F2158101A252F823F000BF9912000868
:10128C0049130008F7130008A5140008032000F008
:10129C008BFB0346002B08D040F61211854801F059
:1012AC0070F8FA21032000F027FB042000F07CFBEF
:1012BC000346002B0BD0804B1B6801211846FEF710
:1012CC0081FFFEF73DFF5021042000F015FB0120AB
:1012DC00FFF7EEFC0346002B05D10120FFF70AFDBA
:1012EC000346002B04D0744B1B680133724A136005
:1012FC000220FFF7DDFC0346002B05D10220FFF78F
:10130C00F9FC0346002B04D06B4B1B68013B6A4A6B
:10131C0013600220FFF710FD0346002B00F0C18084
:10132C00012240F61211634801F013F8604B0C22B5
:10133C001A60FA21032000F0DFFAB2E0032000F07B
:10134C0033FB0346002B08D041F24421594801F0ED
:10135C0018F8FA21032000F0CFFA042000F024FB47
:10136C000346002B0BD0554B1B6802211846FEF789
:10137C0029FFFEF7E5FE5021042000F0BDFA012004
:10138C00FFF796FC0346002B05D10120FFF7B2FCBA
:10139C000346002B04D0494B1B680133474A1360AA
:1013AC000220FFF785FC0346002B05D10220FFF736
:1013BC00A1FC0346002B04D0404B1B68013B3F4A69
:1013CC0013600220FFF7B8FC0346002B6BD0012200
:1013DC0041F24421374800F0BCFF354B0D221A6016
:1013EC00FA21032000F088FA5DE0032000F0DCFA1B
:1013FC000346002B08D042F288412E4800F0C1FF72
:10140C00FA21032000F078FA042000F0CDFA03460C
:10141C00002B0BD0294B1B6803211846FEF7D2FE7C
:10142C00FEF78EFE5021042000F066FA0120FFF733
:10143C003FFC0346002B05D10120FFF75BFC034664
:10144C00002B04D01E4B1B6801331D4A1360022075
:10145C00FFF72EFC0346002B05D10220FFF74AFCB8
:10146C000346002B04D0164B1B68013B144A136037
:10147C000220FFF761FC0346002B16D0012242F23A
:10148C0088410C4800F065FF094B0E221A60FA21C6
:10149C00032000F031FA08E0FFF7AEFD06E000BFD4
:1014AC0004E000BF02E000BF00E000BF00BF80BD51
:1014BC001400002000080140D8000020DC000020AF
:1014CC00E000002080B400AF044B00221A70044BE3
:1014DC000B221A6000BFBD4680BC7047180100206B
:1014EC001400002080B500AF564B1B68013B032B4A
:1014FC0000F29D8001A252F823F000BF19150008DC
:10150C0099150008CF1500080516000800F0B2FB6D
:10151C00FEF7A6FEFFF7D6FF002000F045FA0346C3
:10152C00002B08D02021484800F02BFF4FF47A7193
:10153C00002000F0E1F90020FFF7BAFB0346002B76
:10154C0007D0404B02221A604FF47A71002000F051
:10155C00D3F90120FFF7ACFB0346002B07D0394B26
:10156C0003221A604FF47A71002000F0C5F90220B2
:10157C00FFF79EFB0346002B5BD0324B04221A6014
:10158C004FF47A71002000F0B7F952E0FFF7F6FB48
:10159C00002000F009FA0346002B08D020212A482D
:1015AC0000F0EFFE4FF47A71002000F0A5F9002056
:1015BC00FFF77EFB0346002B3DD0224B03221A6023
:1015CC0039E0FFF74FFE002000F0EEF90346002B48
:1015DC0008D020211C4800F0D4FE4FF47A71002072
:1015EC0000F08AF90020FFF763FB0346002B24D0A0
:1015FC00144B04221A6020E0FFF7F8FC002000F0E6
:10160C00D3F90346002B08D020210F4800F0B9FE77
:10161C004FF47A71002000F06FF90020FFF748FBBF
:10162C000346002B0BD0074B01221A6007E000BFCA
:10163C0006E000BF04E000BF02E000BF00E000BF16
:10164C0000BF80BDE40000200008014080B500AF61
:10165C0000F07EFB00F018F800F09EF800F050F857
:10166C00074801F0D3FAFFF7BBF9064B01221A60C9
:10167C004FF47A7000F014F9FFF734FFFCE700BF69
:10168C001C010020E400002080B590B000AF07F1F1
:10169C00180328220021184601F068FE3B1D002289
:1016AC001A605A609A60DA601A610223BB610123E6
:1016BC00BB621023FB6200237B6307F118031846FF
:1016CC0000F078FE0346002B01D000F0E3F80F2366
:1016DC007B600023BB600023FB6000233B61002385
:1016EC007B613B1D0021184601F0E4F80346002BFA
:1016FC0001D000F0CFF800BF4037BD4680BD0000E0
:10170C0080B586B000AF07F1080300221A605A605A
:10171C009A60DA603B4600221A605A601D4B4FF00B
:10172C0080421A601B4B41F63F725A60194B0022E3
:10173C009A60184B0922DA60164B00221A61154B7D
:10174C0000229A61134801F011FA0346002B01D0D4
:10175C0000F0A0F84FF48053BB6007F10803194662
:10176C000C4801F08FFB0346002B01D000F092F8DF
:10177C0000233B6000237B603B461946054801F083
:10178C0067FD0346002B01D000F084F800BF18372A
:10179C00BD4680BD1C01002080B588B000AF07F1AC
:1017AC00100300221A605A609A60DA602F4B9B6912
:1017BC002E4A43F0100393612C4B9B6903F01003EA
:1017CC00FB60FB68294B9B69284A43F00403936137
:1017DC00264B9B6903F00403BB60BB68234B9B69DE
:1017EC00224A43F008039361204B9B6903F00803E2
:1017FC007B607B68002243F6FE711D4800F0A9FD5A
:10180C0000224FF6FF711B4800F0A3FD4FF460431C
:10181C003B6100237B610123BB6107F11003194677
:10182C00154800F005FC43F6FE733B6101237B6118
:10183C000023BB610223FB6107F1100319460C481E
:10184C0000F0F6FB4FF6FF733B6101237B61002335
:10185C00BB610223FB6107F110031946054800F038
:10186C00E7FB00BF2037BD4680BD00BF0010024023
:10187C0000080140000C01400010014080B582B00E
:10188C0000AF786000F060F8FFF710F900BF083780
:10189C00BD4680BD80B400AF72B600BFFEE700004D
:1018AC0080B485B000AF78607B68104A82FB03126D
:1018BC009210DB17D31ABB600023FB600CE00C49C1
:1018CC00FB68BA6841F823200A4AFB68002142F8F9
:1018DC002310FB680133FB60FB68052BEFDD00BFB9
:1018EC0000BF1437BD4680BC704700BF6766666694
:1018FC00E80000200001002080B483B000AF7860C5
:10190C0039607B68002B13DB7B68052B10DC3B6894
:10191C000A4A82FB03129210DB17D21A08497B6821
:10192C0041F82320074A7B68002142F8231000E08D
:10193C0000BF0C37BD4680BC704700BF676666664B
:10194C00E80000200001002080B483B000AF002329
:10195C007B601CE0124A7B6852F82330002B13DDAD
:10196C000F4A7B6852F823305A1E0D497B6841F8A8
:10197C0023200B4A7B6852F82330002B04DC094AE5
:10198C007B68012142F823107B6801337B607B6804
:10199C00052BDFDD00BF00BF0C37BD4680BC704798
:1019AC00E80000200001002080B483B000AF786014
:1019BC007B68002B02DB7B68052B01DD002303E039
:1019CC00044A7B6852F8233018460C37BD4680BC5D
:1019DC00704700BF0001002080B483B000AF786076
:1019EC007B68002B02DB7B68052B01DD002303E009
:1019FC00044A7B6852F8233018460C37BD4680BC2D
:101A0C00704700BFE800002080B485B000AF154BD4
:101A1C009B69144A43F001039361124B9B6903F0D9
:101A2C000103BB60BB680F4BDB690E4A43F080536C
:101A3C00D3610C4BDB6903F080537B607B680A4BF2
:101A4C005B68FB60FB6823F0E063FB60FB6843F0C2
:101A5C008063FB60044AFB68536000BF1437BD46CB
:101A6C0080BC7047001002400000014080B584B07B
:101A7C0000AF78607B681B68B3F1804F13D10C4BBF
:101A8C00DB690B4A43F00103D361094BDB6903F0BB
:101A9C000103FB60FB68002200211C2000F091FA7E
:101AAC001C2000F0AAFA00BF1037BD4680BD00BF55
:101ABC000010024080B400AFFEE780B400AFFEE738
:101ACC0080B400AFFEE780B400AFFEE780B400AF97
:101ADC00FEE780B400AF00BFBD4680BC704780B449
:101AEC0000AF00BFBD4680BC704780B400AF00BFE4
:101AFC00BD4680BC704780B500AF00F06FF900BFE9
:101B0C0080BD000080B500AF024801F0CBF800BFEB
:101B1C0080BD00BF1C01002080B400AF00BFBD46DB
:101B2C0080BC704780B500AF002202210A4800F04B
:101B3C0010FC01220421084800F00BFC00224FF499
:101B4C008071054800F005FC01224FF40071024839
:101B5C0000F0FFFB00BF80BD0008014080B500AF66
:101B6C00012202210A4800F0F4FB00220821084857
:101B7C0000F0EFFB01224FF48071054800F0E9FB07
:101B8C0000224FF48061024800F0E3FB00BF80BDEF
:101B9C000008014080B500AF012208210A4800F07E
:101BAC00D8FB00220421084800F0D3FB01224FF49B
:101BBC008061054800F0CDFB00224FF40071024813
:101BCC0000F0C7FB00BF80BD0008014080B500AF2E
:101BDC00002210210A4800F0BCFB012240210848D9
:101BEC0000F0B7FB00224FF40061054800F0B1FB98
:101BFC0001224FF48051024800F0ABFB00BF80BDC6
:101C0C000008014080B500AF012210210A4800F005
:101C1C00A0FB00228021084800F09BFB01224FF41E
:101C2C000061054800F095FB00224FF4005102487A
:101C3C0000F08FFB00BF80BD0008014080B500AFF5
:101C4C00012280210A4800F084FB00224021084830
:101C5C0000F07FFB01224FF40051054800F079FBA6
:101C6C0000224FF48051024800F073FB00BF80BD8E
:101C7C000008014080B500AF01220221204800F08D
:101C8C0068FB012204211E4800F063FB012208219D
:101C9C001B4800F05EFB01221021194800F059FB93
:101CAC0001224021164800F054FB012280211448E7
:101CBC0000F04FFB01224FF48071114800F049FBFA
:101CCC0001224FF400710E4800F043FB01224FF447
:101CDC0080610B4800F03DFB01224FF40061084885
:101CEC0000F037FB01224FF48051054800F031FB26
:101CFC0001224FF40051024800F02BFB00BF80BDC5
:101D0C0000080140FFF708FF0B480C490C4A002360
:101D1C0002E0D458C4500433C4188C42F9D3094A95
:101D2C00094C002301E013600432A242FBD301F002
:101D3C00F9FAFFF78BFC704700000020240000200C
:101D4C00CC3300082400002068010020FEE70000CE
:101D5C0080B500AF084B1B68074A43F010031360B3
:101D6C00032000F023F90F2000F008F8FFF74CFED9
:101D7C000023184680BD00BF0020024080B582B011
:101D8C0000AF7860124B1A68124B1B7819464FF44F
:101D9C007A73B3FBF1F3B2FBF3F3184600F03BF9A3
:101DAC000346002B01D001230EE07B680F2B0AD8D1
:101DBC00002279684FF0FF3000F003F9064A7B6887
:101DCC001360002300E0012318460837BD4680BD90
:101DDC0018000020200000201C00002080B400AF60
:101DEC00054B1B781A46054B1B681344034A1360BA
:101DFC0000BFBD4680BC704720000020640100205D
:101E0C0080B400AF024B1B681846BD4680BC7047BF
:101E1C006401002080B485B000AF78607B6803F06B
:101E2C000703FB600C4BDB68BB60BA684FF6FF0323
:101E3C001340BB60FB681A02BB68134343F0BF63DB
:101E4C0043F40033BB60044ABB68D36000BF143753
:101E5C00BD4680BC704700BF00ED00E080B400AF11
:101E6C00044BDB681B0A03F007031846BD4680BC15
:101E7C00704700BF00ED00E080B483B000AF0346B4
:101E8C00FB7197F90730002B0BDBFB7903F01F027A
:101E9C00064997F907305B09012000FA02F241F874
:101EAC00232000BF0C37BD4680BC704700E100E02A
:101EBC0080B483B000AF03463960FB7197F90730EB
:101ECC00002B0ADB3B68DAB20C4997F90730120198
:101EDC00D2B20B4483F800230AE03B68DAB208491B
:101EEC00FB7903F00F03043B1201D2B20B441A76B8
:101EFC0000BF0C37BD4680BC704700BF00E100E05E
:101F0C0000ED00E080B489B000AFF860B9607A6091
:101F1C00FB6803F00703FB61FB69C3F10703042BA8
:101F2C0028BF0423BB61FB690433062B02D9FB6970
:101F3C00033B00E000237B614FF0FF32BB6902FAE8
:101F4C0003F3DA43BB681A407B699A404FF0FF31C8
:101F5C007B6901FA03F3D9437B680B4013431846A2
:101F6C002437BD4680BC704780B582B000AF786026
:101F7C007B68013BB3F1807F01D301230FE00A4A58
:101F8C007B68013B53600F214FF0FF30FFF790FF50
:101F9C00054B00229A60044B07221A600023184656
:101FAC000837BD4680BD00BF10E000E080B582B0B0
:101FBC0000AF78607868FFF72DFF00BF0837BD468B
:101FCC0080BD80B586B000AF0346B9607A60FB7304
:101FDC0000237B61FFF742FF78617A68B968786902
:101FEC00FFF790FF024697F90F3011461846FFF79E
:101FFC005FFF00BF1837BD4680BD80B582B000AF13
:10200C000346FB7197F907301846FFF735FF00BF01
:10201C000837BD4680BD80B582B000AF7860786867
:10202C00FFF7A2FF034618460837BD4680BD0000E7
:10203C0080B48BB000AF7860396000237B620023E2
:10204C003B6248E101227B6A02FA03F3FB613B68C5
:10205C001B68FA691340BB61BA69FB699A4240F08C
:10206C0037813B685B68A34A93425ED0A14A934296
:10207C0075D8A14A934258D09F4A93426FD89F4A31
:10208C00934252D09D4A934269D89D4A93424CD078
:10209C009B4A934263D89B4A934246D0994A9342B7
:1020AC005DD8122B2AD8122B59D801A252F823F042
:1020BC0037210008112100082321000865210008A0
:1020CC006B2100086B2100086B2100086B210008B4
:1020DC006B2100086B2100086B2100086B210008A4
:1020EC006B2100086B2100086B2100086B21000894
:1020FC006B210008192100082D210008824A934207
:10210C0013D02CE03B68DB683B6229E03B68DB6862
:10211C0004333B6224E03B68DB6808333B621FE01E
:10212C003B68DB680C333B621AE03B689B68002B16
:10213C0002D104233B6213E03B689B68012B05D161
:10214C0008233B627B68FA691A6109E008233B6249
:10215C007B68FA695A6103E000233B6200E000BF30
:10216C00BB69FF2B01D87B6801E07B6804337B6182
:10217C00BB69FF2B02D87B6A9B0002E07B6A083BA1
:10218C009B003B617B691A680F213B6901FA03F3E1
:10219C00DB431A40396A3B6901FA03F31A437B6942
:1021AC001A603B685B6803F08053002B00F0908052
:1021BC00564B9B69554A43F001039361534B9B6902
:1021CC0003F00103BB60BB68514A7B6A9B08023376
:1021DC0052F82330FB607B6A03F003039B000F2251
:1021EC0002FA03F3DB43FA681340FB607B68494A4D
:1021FC0093420DD07B68484A934207D07B68474A8C
:10220C00934201D1022304E0032302E0012300E006
:10221C0000237A6A02F0030292009340FA68134397
:10222C00FB603B497B6A9B080233FA6841F8232028
:10223C003B685B6803F48013002B06D0384B9A681C
:10224C003749BB6913438B6006E0354B9A68BB6911
:10225C00DB43334913408B603B685B6803F400132A
:10226C00002B06D02E4BDA682D49BB691343CB608B
:10227C0006E02B4BDA68BB69DB4329491340CB6082
:10228C003B685B6803F40033002B06D0244B5A6880
:10229C002349BB6913434B6006E0214B5A68BB6969
:1022AC00DB431F4913404B603B685B6803F480338E
:1022BC00002B06D01A4B1A681949BB6913430B60E3
:1022CC0006E0174B1A68BB69DB43154913400B60DA
:1022DC007B6A01337B623B681A687B6A22FA03F3E0
:1022EC00002B7FF4AFAE00BF00BF2C37BD4680BCC7
:1022FC00704700BF000032100000311000002210A7
:10230C0000002110000012100000111000100240FB
:10231C000000014000080140000C01400010014089
:10232C000004014080B485B000AF78600B467B8020
:10233C007B689A687B881340002B02D00123FB73C7
:10234C0001E00023FB73FB7B18461437BD4680BCB1
:10235C00704780B483B000AF78600B467B80134627
:10236C007B707B78002B03D07A887B681A6103E042
:10237C007B881A047B681A6100BF0C37BD4680BC91
:10238C00704780B485B000AF78600B467B807B686B
:10239C00DB68FB607A88FB6813401A04FB68D9433E
:1023AC007B880B401A437B681A6100BF1437BD460B
:1023BC0080BC704780B586B000AF78607B68002B1E
:1023CC0001D101236CE27B681B6803F00103002B35
:1023DC0000F08780924B5B6803F00C03042B0CD04D
:1023EC008F4B5B6803F00C03082B12D18C4B5B6892
:1023FC0003F48033B3F5803F0BD1894B1B6803F496
:10240C000033002B6CD07B685B68002B68D10123F8
:10241C0046E27B685B68B3F5803F06D1804B1B6856
:10242C007F4A43F4803313602EE07B685B68002B9B
:10243C000CD17B4B1B687A4A23F480331360784BA6
:10244C001B68774A23F4802313601DE07B685B686C
:10245C00B3F5A02F0CD1724B1B68714A43F4802347
:10246C0013606F4B1B686E4A43F4803313600BE0B0
:10247C006B4B1B686A4A23F480331360684B1B68F0
:10248C00674A23F4802313607B685B68002B13D0AE
:10249C00FFF7B6FC386108E0FFF7B2FC02463B6977
:1024AC00D31A642B01D90323FAE15D4B1B6803F4A7
:1024BC000033002BF0D014E0FFF7A2FC386108E0E9
:1024CC00FFF79EFC02463B69D31A642B01D9032308
:1024DC00E6E1534B1B6803F40033002BF0D100E012
:1024EC0000BF7B681B6803F00203002B63D04C4BCE
:1024FC005B6803F00C03002B0BD0494B5B6803F0BB
:10250C000C03082B1CD1464B5B6803F48033002B67
:10251C0016D1434B1B6803F00203002B05D07B68DC
:10252C001B69012B01D00123BAE13D4B1B6823F041
:10253C00F8027B685B69DB00394913430B603AE0B6
:10254C007B681B69002B20D0364B01221A60FFF7E9
:10255C0057FC386108E0FFF753FC02463B69D31A7D
:10256C00022B01D903239BE12D4B1B6803F00203C3
:10257C00002BF0D02A4B1B6823F0F8027B685B69B8
:10258C00DB00274913430B6015E0264B00221A6031
:10259C00FFF736FC386108E0FFF732FC02463B6976
:1025AC00D31A022B01D903237AE11D4B1B6803F0CC
:1025BC000203002BF0D17B681B6803F00803002B8F
:1025CC003AD07B689B69002B19D0174B01221A60FB
:1025DC00FFF716FC386108E0FFF712FC02463B6976
:1025EC00D31A022B01D903235AE10D4B5B6A03F07A
:1025FC000203002BF0D0012000F09AFA1CE00A4BE9
:10260C0000221A60FFF7FCFB38610FE0FFF7F8FBC4
:10261C0002463B69D31A022B08D9032340E100BFC1
:10262C000010024000004242800442429E4B5B6A12
:10263C0003F00203002BE9D17B681B6803F0040351
:10264C00002B00F0A6800023FB75974BDB6903F091
:10265C008053002B0DD1944BDB69934A43F080538C
:10266C00D361914BDB6903F08053BB60BB680123E2
:10267C00FB758E4B1B6803F48073002B18D18B4BAE
:10268C001B688A4A43F480731360FFF7B9FB386107
:10269C0008E0FFF7B5FB02463B69D31A642B01D95E
:1026AC000323FDE0814B1B6803F48073002BF0D0F7
:1026BC007B68DB68012B06D17B4B1B6A7A4A43F0A3
:1026CC00010313622DE07B68DB68002B0CD1764B89
:1026DC001B6A754A23F001031362734B1B6A724A1F
:1026EC0023F0040313621CE07B68DB68052B0CD120
:1026FC006D4B1B6A6C4A43F0040313626A4B1B6AF2
:10270C00694A43F0010313620BE0674B1B6A664A8C
:10271C0023F001031362644B1B6A634A23F0040326
:10272C0013627B68DB68002B15D0FFF769FB3861FF
:10273C000AE0FFF765FB02463B69D31A41F2883287
:10274C00934201D90323ABE0574B1B6A03F00203FE
:10275C00002BEED014E0FFF753FB38610AE0FFF7D3
:10276C004FFB02463B69D31A41F28832934201D99E
:10277C00032395E04C4B1B6A03F00203002BEED1B4
:10278C00FB7D012B05D1484BDB69474A23F0805375
:10279C00D3617B68DB69002B00F08180424B5B6866
:1027AC0003F00C03082B61D07B68DB69022B46D14C
:1027BC003F4B00221A60FFF723FB386108E0FFF75C
:1027CC001FFB02463B69D31A022B01D9032367E096
:1027DC00354B1B6803F00073002BF0D17B681B6A30
:1027EC00B3F5803F08D1304B5B6823F400327B6833
:1027FC009B682D4913434B602B4B5B6823F474127D
:10280C007B68196A7B685B6A0B43274913434B60EF
:10281C00274B01221A60FFF7F3FA386108E0FFF743
:10282C00EFFA02463B69D31A022B01D9032337E096
:10283C001D4B1B6803F00073002BF0D02FE01C4BDA
:10284C0000221A60FFF7DCFA386108E0FFF7D8FACB
:10285C0002463B69D31A022B01D9032320E0124B09
:10286C001B6803F00073002BF0D118E07B68DB6968
:10287C00012B01D1012313E00B4B5B68FB60FB6860
:10288C0003F480327B681B6A9A4206D1FB6803F41E
:10289C0070127B685B6A9A4201D0012300E000232E
:1028AC0018461837BD4680BD00100240007000402D
:1028BC006000424280B584B000AF786039607B68BC
:1028CC00002B01D10123D0E06A4B1B6803F00703F6
:1028DC003A689A4210D9674B1B6823F00702654986
:1028EC003B6813430B60634B1B6803F007033A68A8
:1028FC009A4201D00123B8E07B681B6803F0020305
:10290C00002B20D07B681B6803F00403002B05D040
:10291C00594B5B68584A43F4E06353607B681B680F
:10292C0003F00803002B05D0534B5B68524A43F469
:10293C0060535360504B5B6823F0F0027B689B68DC
:10294C004D4913434B607B681B6803F00103002B5C
:10295C0040D07B685B68012B07D1474B1B6803F4A5
:10296C000033002B15D101237FE07B685B68022BC1
:10297C0007D1414B1B6803F00073002B09D10123D5
:10298C0073E03D4B1B6803F00203002B01D10123C4
:10299C006BE0394B5B6823F003027B685B6836495C
:1029AC0013434B60FFF72CFAF8600AE0FFF728FAA4
:1029BC000246FB68D31A41F28832934201D90323B1
:1029CC0053E02D4B5B6803F00C027B685B689B004B
:1029DC009A42EBD1274B1B6803F007033A689A42E3
:1029EC0010D2244B1B6823F0070222493B68134387
:1029FC000B60204B1B6803F007033A689A4201D026
:102A0C00012332E07B681B6803F00403002B08D021
:102A1C00194B5B6823F4E0627B68DB68164913434F
:102A2C004B607B681B6803F00803002B09D0124B2A
:102A3C005B6823F460527B681B69DB000E4913430F
:102A4C004B6000F021F802460B4B5B681B0903F04E
:102A5C000F030A49CB5C22FA03F3094A1360094BB2
:102A6C001B681846FFF78AF9002318461037BD4635
:102A7C0080BD00BF0020024000100240A0330008BF
:102A8C00180000201C00002080B487B000AF002389
:102A9C00FB600023BB6000237B6100237B60002371
:102AAC003B611E4B5B68FB60FB6803F00C03042B63
:102ABC0002D0082B03D027E0194B3B6127E0FB68C1
:102ACC009B0C03F00F03174AD35C7B60FB6803F489
:102ADC008033002B10D0114B5B685B0C03F00103AF
:102AEC00114AD35CBB607B680D4A02FB03F2BB68E6
:102AFC00B2FBF3F37B6104E07B680C4A02FB03F34B
:102B0C007B617B693B6102E0054B3B6100BF3B692C
:102B1C0018461C37BD4680BC704700BF00100240F1
:102B2C0000127A00B0330008C033000800093D00E1
:102B3C0080B485B000AF78600A4B1B680A4AA2FBD0
:102B4C0003235B0A7A6802FB03F3FB6000BFFB689C
:102B5C005A1EFA60002BF9D100BF00BF1437BD46D6
:102B6C0080BC704718000020D34D621080B582B035
:102B7C0000AF78607B68002B01D1012341E07B68BA
:102B8C0093F83D30DBB2002B06D17B68002283F832
:102B9C003C207868FEF76AFF7B68022283F83D20B0
:102BAC007B681A687B6804331946104600F056FAA5
:102BBC007B68012283F846207B68012283F83E2043
:102BCC007B68012283F83F207B68012283F8402038
:102BDC007B68012283F841207B68012283F8422024
:102BEC007B68012283F843207B68012283F8442010
:102BFC007B68012283F845207B68012283F83D2005
:102C0C00002318460837BD4680BD000080B485B04F
:102C1C0000AF78607B6893F83D30DBB2012B01D0BC
:102C2C00012335E07B68022283F83D207B681B681A
:102C3C00DA687B681B6842F00102DA607B681B680B
:102C4C00164A934209D07B681B68B3F1804F04D0BD
:102C5C007B681B68124A934211D17B681B689B6886
:102C6C0003F00703FB60FB68062B10D07B681B6826
:102C7C001A687B681B6842F001021A6007E07B68E7
:102C8C001B681A687B681B6842F001021A600023FB
:102C9C0018461437BD4680BC704700BF002C01405D
:102CAC000004004080B584B000AF78607B681B687E
:102CBC00DB68FB607B681B681B69BB60BB6803F04F
:102CCC000203002B20D0FB6803F00203002B1BD067
:102CDC007B681B686FF002021A617B6801221A770D
:102CEC007B681B689B6903F00303002B03D0786897
:102CFC0000F098F905E0786800F08BF9786800F03E
:102D0C009AF97B6800221A77BB6803F00403002B46
:102D1C0020D0FB6803F00403002B1BD07B681B68DE
:102D2C006FF004021A617B6802221A777B681B68B9
:102D3C009B6903F44073002B03D0786800F072F9A0
:102D4C0005E0786800F065F9786800F074F97B6844
:102D5C0000221A77BB6803F00803002B20D0FB6815
:102D6C0003F00803002B1BD07B681B686FF0080274
:102D7C001A617B6804221A777B681B68DB6903F095
:102D8C000303002B03D0786800F04CF905E0786859
:102D9C0000F03FF9786800F04EF97B6800221A7752
:102DAC00BB6803F01003002B20D0FB6803F010036A
:102DBC00002B1BD07B681B686FF010021A617B68BC
:102DCC0008221A777B681B68DB6903F44073002BBD
:102DDC0003D0786800F026F905E0786800F019F95E
:102DEC00786800F028F97B6800221A77BB6803F03A
:102DFC000103002B0CD0FB6803F00103002B07D060
:102E0C007B681B686FF001021A617868FEF736FD6B
:102E1C00BB6803F08003002B0CD0FB6803F080032D
:102E2C00002B07D07B681B686FF080021A617868F2
:102E3C0000F06FFABB6803F04003002B0CD0FB686A
:102E4C0003F04003002B07D07B681B686FF0400237
:102E5C001A61786800F0F8F8BB6803F02003002BC7
:102E6C000CD0FB6803F02003002B07D07B681B6899
:102E7C006FF020021A61786800F042FA00BF103738
:102E8C00BD4680BD80B584B000AF7860396000234A
:102E9C00FB737B6893F83C30012B01D10223B4E027
:102EAC007B68012283F83C207B68022283F83D205A
:102EBC007B681B689B68BB60BB6823F07703BB60B7
:102ECC00BB6823F47F43BB607B681B68BA689A605D
:102EDC003B681B68B3F5005F3ED0B3F5005F00F2B2
:102EEC008780B3F5805F00F08680B3F5805F7FD874
:102EFC00702B1AD0702B7BD8602B50D0602B77D8CE
:102F0C00502B3CD0502B73D8402B58D0402B6FD823
:102F1C00302B64D0302B6BD8202B60D0202B67D873
:102F2C00002B5CD0102B5AD062E07B6818683B6891
:102F3C0099683B685A683B68DB6800F06AF97B6803
:102F4C001B689B68BB60BB6843F07703BB607B6806
:102F5C001B68BA689A604FE07B6818683B68996890
:102F6C003B685A683B68DB6800F053F97B681B6868
:102F7C009A687B681B6842F480429A603CE07B68EC
:102F8C0018683B6859683B68DB681A4600F0CAF859
:102F9C007B681B685021184600F021F92CE07B68F7
:102FAC0018683B6859683B68DB681A4600F0E8F81B
:102FBC007B681B686021184600F011F91CE07B68E7
:102FCC0018683B6859683B68DB681A4600F0AAF839
:102FDC007B681B684021184600F001F90CE07B6807
:102FEC001A683B681B681946104600F0F8F803E0B5
:102FFC000123FB7300E000BF7B68012283F83D20B6
:10300C007B68002283F83C20FB7B18461037BD46BA
:10301C0080BD80B483B000AF786000BF0C37BD4674
:10302C0080BC704780B483B000AF786000BF0C37B1
:10303C00BD4680BC704780B483B000AF786000BFE1
:10304C000C37BD4680BC704780B483B000AF78604D
:10305C0000BF0C37BD4680BC7047000080B485B003
:10306C0000AF786039607B681B68FB607B682B4A1B
:10307C00934207D07B68B3F1804F03D07B68284A1A
:10308C00934208D1FB6823F07003FB603B685B68DC
:10309C00FA681343FB607B68204A934207D07B6835
:1030AC00B3F1804F03D07B681D4A934208D1FB6873
:1030BC0023F44073FB603B68DB68FA681343FB60E6
:1030CC00FB6823F080023B685B691343FB607B6801
:1030DC00FA681A603B689A687B68DA623B681A681F
:1030EC007B689A627B680D4A934203D13B681A69EC
:1030FC007B681A637B6801225A617B681B6903F049
:10310C000103002B05D07B681B6923F001027B684F
:10311C001A6100BF1437BD4680BC7047002C0140BB
:10312C000004004080B487B000AFF860B9607A60EA
:10313C00FB681B6A7B61FB681B6A23F00102FB685E
:10314C001A62FB689B693B613B6923F0F0033B61AE
:10315C007B681B013A6913433B617B6923F00A03CB
:10316C007B617A69BB6813437B61FB683A699A613E
:10317C00FB687A691A6200BF1C37BD4680BC704779
:10318C0080B487B000AFF860B9607A60FB681B6AE6
:10319C007B61FB681B6A23F01002FB681A62FB68F8
:1031AC009B693B613B6923F470433B617B681B0368
:1031BC003A6913433B617B6923F0A0037B61BB68D5
:1031CC001B017A6913437B61FB683A699A61FB685E
:1031DC007A691A6200BF1C37BD4680BC704780B448
:1031EC0085B000AF786039607B689B68FB60FB68DA
:1031FC0023F07003FB603A68FB68134343F007034A
:10320C00FB607B68FA689A6000BF1437BD4680BCCF
:10321C00704780B487B000AFF860B9607A603B60EB
:10322C00FB689B687B617B6923F47F437B613B6814
:10323C001A027B681A43BB6813437A6913437B6198
:10324C00FB687A699A6000BF1C37BD4680BC70472A
:10325C0080B485B000AF786039607B6893F83C30FF
:10326C00012B01D1022341E07B68012283F83C2031
:10327C007B68022283F83D207B681B685B68FB60DF
:10328C007B681B689B68BB60FB6823F07003FB606A
:10329C003B681B68FA681343FB607B681B68FA6821
:1032AC005A607B681B68144A934209D07B681B6880
:1032BC00B3F1804F04D07B681B68104A93420CD149
:1032CC00BB6823F08003BB603B685B68BA68134340
:1032DC00BB607B681B68BA689A607B68012283F8C4
:1032EC003D207B68002283F83C20002318461437CD
:1032FC00BD4680BC704700BF002C0140000400405C
:10330C0080B483B000AF786000BF0C37BD4680BC82
:10331C00704780B483B000AF786000BF0C37BD46F7
:10332C0080BC704770B500260C4D0D4C641BA4106E
:10333C00A64209D100F022F800260A4D0A4C641B63
:10334C00A410A64205D170BD55F8043B9847013630
:10335C00EEE755F8043B98470136F2E7C433000812
:10336C00C4330008C4330008C833000803460244C1
:10337C00934200D1704703F8011BF9E7F8B500BF81
:10338C00F8BC08BC9E467047F8B500BFF8BC08BC3A
:04339C009E46704792
:1033A00000000000000000000102030406070809F5
:1033B00002030405060708090A0B0C0D0E0F101076
:0433C0000102000006
:0433C40031010008CB
:0433C8000D010008EB
:1033CC00001001400010014000100140002000409E
:1033DC00008000000B00000000127A0010000000BA
:0433EC0001000000DC
:0400000508001D11C1
:00000001FF
