:020000040800F2
:1000000000280020FD160008AD140008B3140008F5
:10001000B9140008BF140008C5140008000000004F
:10002000000000000000000000000000CB140008E9
:10003000D714000800000000E3140008EF140008C3
:100040004517000845170008451700084517000820
:100050004517000845170008451700084517000810
:100060004517000845170008451700084517000800
:1000700045170008451700084517000845170008F0
:1000800045170008451700084517000845170008E0
:1000900045170008451700084517000845170008D0
:1000A00045170008451700084517000845170008C0
:1000B000FD1400084517000800000000451700085F
:1000C0004517000800000000000000004517000868
:1000D0000000000045170008451700080000000058
:1000E00045170008451700084517000800000000E4
:1000F0000000000000000000000000000000000000
:0C01000000000000000000005FF808F1A3
:10010C0010B5054C237833B9044B13B10448AFF345
:10011C0000800123237010BD20000020000000008F
:10012C00742D000808B5034B1BB103490348AFF30A
:10013C00008008BD0000000024000020742D000881
:10014C0080B500AF1C4B1B68002B19D11B4B1B68D7
:10015C00184600F09DF8194B5B68184600F04AFAF7
:10016C0000224FF48041164801F0E9FD01224FF4C2
:10017C000041134801F0E3FD0F4B01221A6018E017
:10018C000E4B9B68184600F083F80C4BDB68184646
:10019C0000F030FA01224FF48041094801F0CFFD04
:1001AC0000224FF40041064801F0C9FD024B002229
:1001BC001A6000BF80BD00BF3C0000204000002042
:1001CC00000C014080B485B000AF786039607B686A
:1001DC00204A82FB03125211DB17D31AFB603B68D7
:1001EC001C4A82FB03125211DB17D31ABB60FB684B
:1001FC00194A82FB03129210DB17D31A174A1360A9
:10020C00F968154B83FB01239A10CB17D21A1346AE
:10021C009B0013445B00CA1A104B5A60BB680E4A11
:10022C0082FB03129210DB17D31A0C4A9360B96845
:10023C00094B83FB01239A10CB17D21A13469B0050
:10024C0013445B00CA1A054BDA6000BF1437BD4675
:10025C0080BC70471F85EB516766666640000020C6
:10026C0080B500AF01224FF48041084801F067FDD2
:10027C0001224FF40041054801F061FD0A2000F015
:10028C0007F80A2000F0B6F900BF80BD000C014051
:10029C0080B582B000AF78607B68092B00F280815A
:1002AC0001A252F823F000BFDD020008250300086C
:1002BC006D030008B5030008FD03000845040008A1
:1002CC008D040008D50400081D050008650500080C
:1002DC0000220121C64801F032FD00220221C4484F
:1002EC0001F02DFD00220421C14801F028FD00225F
:1002FC000821BF4801F023FD00221021BC4801F069
:10030C001EFD00222021BA4801F019FD01224021D6
:10031C00B74801F014FD67E101220121B44801F056
:10032C000EFD00220221B24801F009FD0022042139
:10033C00AF4801F004FD01220821AD4801F0FFFC9B
:10034C0001221021AA4801F0FAFC01222021A84820
:10035C0001F0F5FC01224021A54801F0F0FC43E13D
:10036C0000220121A24801F0EAFC00220221A0484F
:10037C0001F0E5FC012204219D4801F0E0FC002283
:10038C0008219B4801F0DBFC00221021984801F069
:10039C00D6FC01222021964801F0D1FC00224021FC
:1003AC00934801F0CCFC1FE100220121904801F0A0
:1003BC00C6FC002202218E4801F0C1FC002204215F
:1003CC008B4801F0BCFC00220821894801F0B7FCE5
:1003DC0001221021864801F0B2FC01222021844820
:1003EC0001F0ADFC00224021814801F0A8FCFBE0AB
:1003FC00012201217E4801F0A2FC002202217C484E
:10040C0001F09DFC00220421794801F098FC0122A6
:10041C000821774801F093FC01221021744801F067
:10042C008EFC00222021724801F089FC0022402120
:10043C006F4801F084FCD7E0002201216C4801F0E8
:10044C007EFC012202216A4801F079FC0022042181
:10045C00674801F074FC00220821654801F06FFC2C
:10046C0001221021624801F06AFC00222021604820
:10047C0001F065FC002240215D4801F060FCB3E016
:10048C00002201215A4801F05AFC0122022158484D
:10049C0001F055FC00220421554801F050FC0022CB
:1004AC000821534801F04BFC00221021504801F068
:1004BC0046FC002220214E4801F041FC0022402144
:1004CC004B4801F03CFC8FE000220121484801F030
:1004DC0036FC00220221464801F031FC00220421A6
:1004EC00434801F02CFC01220821414801F027FC73
:1004FC00012210213E4801F022FC012220213C481F
:10050C0001F01DFC01224021394801F018FC6BE080
:10051C0000220121364801F012FC0022022134484D
:10052C0001F00DFC00220421314801F008FC0022EE
:10053C0008212F4801F003FC002210212C4801F067
:10054C00FEFB002220212A4801F0F9FB0022402169
:10055C00274801F0F4FB47E000220121244801F078
:10056C00EEFB00220221224801F0E9FB00220421CB
:10057C001F4801F0E4FB002208211D4801F0DFFBBD
:10058C00012210211A4801F0DAFB00222021184820
:10059C0001F0D5FB00224021154801F0D0FB23E0EF
:1005AC0001220121124801F0CAFB0122022110484C
:1005BC0001F0C5FB012204210D4801F0C0FB012212
:1005CC0008210B4801F0BBFB01221021084801F067
:1005DC00B6FB01222021064801F0B1FB012240218B
:1005EC00034801F0ACFB00BF00BF0837BD4680BD1F
:1005FC00000C014080B582B000AF78607B68092B9D
:10060C0000F2BE8101A252F823F000BF410600089F
:10061C0095060008E90600083D0700089107000848
:10062C00E5070008390800088D080008E1080008F3
:10063C003509000800228021D04801F080FB0022FF
:10064C004FF48071CD4801F07AFB00224FF4007119
:10065C00CA4801F074FB00224FF48061C74801F0D6
:10066C006EFB00224FF40061C44801F068FB0022CD
:10067C004FF48051C14801F062FB01224FF400514C
:10068C00BE4801F05CFBA5E101228021BB4801F0D2
:10069C0056FB00224FF48071B84801F050FB002249
:1006AC004FF40071B54801F04AFB01224FF4806110
:1006BC00B24801F044FB01224FF40061AF4801F055
:1006CC003EFB01224FF48051AC4801F038FB012273
:1006DC004FF40051A94801F032FB7BE1002280214C
:1006EC00A64801F02CFB00224FF48071A34801F0C6
:1006FC0026FB01224FF40071A04801F020FB0022E0
:10070C004FF480619D4801F01AFB00224FF4006108
:10071C009A4801F014FB01224FF48051974801F0E4
:10072C000EFB00224FF40051944801F008FB51E1FC
:10073C0000228021914801F002FB00224FF48071CD
:10074C008E4801F0FCFA00224FF400718B4801F046
:10075C00F6FA00224FF48061884801F0F0FA012289
:10076C004FF40061854801F0EAFA01224FF4805100
:10077C00824801F0E4FA00224FF400517F4801F066
:10078C00DEFA27E1012280217C4801F0D8FA002210
:10079C004FF48071794801F0D2FA00224FF40071C5
:1007AC00764801F0CCFA01224FF48061734801F0D5
:1007BC00C6FA01224FF40061704801F0C0FA002221
:1007CC004FF480516D4801F0BAFA00224FF40051F9
:1007DC006A4801F0B4FAFDE000228021674801F07C
:1007EC00AEFA01224FF48071644801F0A8FA00229D
:1007FC004FF40071614801F0A2FA00224FF48061BD
:10080C005E4801F09CFA01224FF400615B4801F054
:10081C0096FA00224FF48051584801F090FA0022C9
:10082C004FF40051554801F08AFAD3E000228021A0
:10083C00524801F084FA01224FF480714F4801F0C4
:10084C007EFA00224FF400714C4801F078FA002235
:10085C004FF48061494801F072FA00224FF40061B4
:10086C00464801F06CFA00224FF48051434801F0E5
:10087C0066FA00224FF40051404801F060FAA9E0FA
:10088C00002280213D4801F05AFA00224FF4807179
:10089C003A4801F054FA00224FF40071374801F045
:1008AC004EFA01224FF48061344801F048FA0122DB
:1008BC004FF40061314801F042FA01224FF48051AB
:1008CC002E4801F03CFA01224FF400512B4801F064
:1008DC0036FA7FE000228021284801F030FA00220D
:1008EC004FF48071254801F02AFA00224FF4007170
:1008FC00224801F024FA00224FF480611F4801F0D5
:10090C001EFA00224FF400611C4801F018FA002274
:10091C004FF48051194801F012FA00224FF40051A3
:10092C00164801F00CFA55E000228021134801F022
:10093C0006FA00224FF48071104801F000FA0022F0
:10094C004FF400710D4801F0FAF900224FF4806168
:10095C000A4801F0F4F901224FF40061074801F054
:10096C00EEF900224FF48051044801F0E8F900221E
:10097C004FF40051014801F0E2F92BE0000C01406A
:10098C0001228021154801F0DAF901224FF480711F
:10099C00124801F0D4F901224FF400710F4801F014
:1009AC00CEF901224FF480610C4801F0C8F9012204
:1009BC004FF40061094801F0C2F901224FF4805153
:1009CC00064801F0BCF901224FF40051034801F034
:1009DC00B6F900BF00BF0837BD4680BD000C014012
:1009EC0080B483B000AF00237B6030E01C4A7B688E
:1009FC00012142F823101A4A7B6852F82320194926
:100A0C007B6841F82320174A7B6852F8232016494B
:100A1C007B6841F82320154A7B68012142F823109A
:100A2C00134A7B68002142F82310124A7B6800218C
:100A3C0042F82310104A7B68002142F823100F4A19
:100A4C007B68002142F823107B6801337B607B6854
:100A5C00022BCBDD00BF00BF0C37BD4680BC7047FE
:100A6C00680000205C000020500000207400002072
:100A7C00800000208C00002098000020A4000020A2
:100A8C0080B582B000AF00237B6091E04D4A7B685B
:100A9C0052F823204C497B6841F823204B4A7B6851
:100AAC0052F8232047497B6841F82320484A7B6849
:100ABC0052F8232047497B6831F813301946104609
:100ACC0001F026F903461946404A7B6842F8231088
:100ADC003D4A7B6852F823203A497B6851F8233011
:100AEC009A4262D1374A7B6852F8232037497B6897
:100AFC0051F823309A4258D1374A7B6852F8232058
:100B0C0032497B6851F823309A4229D0324A7B68AB
:100B1C0052F82330002B0AD12C4A7B6852F8233030
:100B2C00012B04D12D4A7B68012142F82310274A5E
:100B3C007B6852F8232028497B6841F82320234AFC
:100B4C007B6852F82330002B2FD1254A7B6801217A
:100B5C0042F82310234A7B68642142F8231024E0D6
:100B6C001A4A7B6852F82330002B1ED11D4A7B6831
:100B7C0052F82330002B18DD1A4A7B6852F82330C8
:100B8C005A1E18497B6841F82320164A7B6852F894
:100B9C002330002B09DC144A7B68012142F8231016
:100BAC00104A7B68322142F823107B6801337B604A
:100BBC007B68022B7FF76AAF00BF00BF0837BD46CA
:100BCC0080BD00BF5C0000205000002068000020A9
:100BDC00000000200C00002074000020A400002065
:100BEC008C000020800000209800002080B483B08E
:100BFC0000AF78607B68002B02DB7B68022B01DD89
:100C0C0000230DE0094A7B6852F82330012B06D1F2
:100C1C00064A7B68002142F82310012300E00023E0
:100C2C0018460C37BD4680BC704700BF8C000020B6
:100C3C0098B500AF974B1B78042B00F21E8101A2D4
:100C4C0052F823F0650C0008C70C0008350D00089D
:100C5C00A90D0008150E0008032000F09BFB0346AD
:100C6C00002B08D040F612118B4801F080F8FA21C5
:100C7C00032000F037FB894B1B68022B40F0FF80F0
:100C8C000220FFF7B3FF0346002B00F0F880814BE6
:100C9C0001221A7041F28831012000F023FB40F64A
:100CAC00B831022000F01EFB0A21042000F01AFBD0
:100CBC000A21052000F016FBE1E000F029FC00F011
:100CCC0097FC052000F066FB0346002B10D001209A
:100CDC0000F078FB0446022000F074FB0346194632
:100CEC002046FFF76FFA4FF4FA71052000F0FAFA7C
:100CFC00042000F04FFB0346002B05D0FFF720FA31
:100D0C005021042000F0EEFA022000F043FB0346D1
:100D1C00002B00F0B6805F4B02221A704FF4FA6180
:100D2C00022000F0DFFAACE000F07EFC052000F0C1
:100D3C0031FB0346002B10D0012000F043FB04468E
:100D4C00022000F03FFB034619462046FFF73AFA13
:100D5C004FF4FA71052000F0C5FA042000F01AFBDC
:100D6C000346002B05D0FFF7EBF95021042000F0CF
:100D7C00B9FA012000F00EFB0346002B00F0838033
:100D8C00444B03221A7040F6B831012000F0AAFA45
:100D9C0041F28831022000F0A5FA74E000F0D4FB97
:100DAC0000F00AFC052000F0F5FA0346002B10D0E9
:100DBC00012000F007FB0446022000F003FB034671
:100DCC0019462046FFF7FEF94FF4FA71052000F0A2
:100DDC0089FA042000F0DEFA0346002B05D0FFF759
:100DEC00AFF95021042000F07DFA012000F0D2FA76
:100DFC000346002B49D0274B04221A704FF4FA619A
:100E0C00012000F06FFA40E000F0BAFB052000F082
:100E1C00C1FA0346002B10D0012000F0D3FA04468F
:100E2C00022000F0CFFA034619462046FFF7CAF914
:100E3C004FF4FA71052000F055FA042000F0AAFADC
:100E4C000346002B05D0FFF77BF95021042000F05E
:100E5C0049FA012000F09EFA0346002B17D00D4BE7
:100E6C0001221A7041F28831012000F03BFA40F661
:100E7C00B831022000F036FA09E000BF08E000BFEC
:100E8C0006E000BF04E000BF02E000BF00E000BFCE
:100E9C0000BF98BDE400002000080140B000002015
:100EAC0080B400AF00BFBD4680BC704780B400AFBB
:100EBC0000BFBD4680BC704780B400AF034B00221E
:100ECC001A7000BFBD4680BC704700BFE400002014
:100EDC0080B500AF564B1B68013B032B00F29D8085
:100EEC0001A252F823F000BF050F0008850F00087F
:100EFC00BB0F0008F10F000800F0B2FBFFF7B0F9D0
:100F0C00FFF7DAFF002000F045FA0346002B08D06B
:100F1C002021484800F02BFF4FF47A71002000F09C
:100F2C00E1F90020FFF762FE0346002B07D0404B8F
:100F3C0002221A604FF47A71002000F0D3F90120DC
:100F4C00FFF754FE0346002B07D0394B03221A60DF
:100F5C004FF47A71002000F0C5F90220FFF746FE2D
:100F6C000346002B5BD0324B04221A604FF47A718B
:100F7C00002000F0B7F952E0FFF75AFE002000F015
:100F8C0009FA0346002B08D020212A4800F0EFFE76
:100F9C004FF47A71002000F0A5F90020FFF726FE2F
:100FAC000346002B3DD0224B03221A6039E0FFF799
:100FBC007DFF002000F0EEF90346002B08D0202125
:100FCC001C4800F0D4FE4FF47A71002000F08AF92E
:100FDC000020FFF70BFE0346002B24D0144B0422F9
:100FEC001A6020E0FFF75CFF002000F0D3F9034605
:100FFC00002B08D020210F4800F0B9FE4FF47A7175
:10100C00002000F06FF90020FFF7F0FD0346002BE5
:10101C000BD0074B01221A6007E000BF06E000BFAF
:10102C0004E000BF02E000BF00E000BF00BF80BDD5
:10103C00B00000200008014080B500AF00F07EFB3E
:10104C0000F018F800F09EF800F050F8074801F096
:10105C00D3FAFFF7C5FC064B01221A604FF47A70E5
:10106C0000F014F9FFF734FFFCE700BFE8000020A4
:10107C00B000002080B590B000AF07F11803282213
:10108C000021184601F068FE3B1D00221A605A60D0
:10109C009A60DA601A610223BB610123BB621023E0
:1010AC00FB6200237B6307F11803184600F078FEFF
:1010BC000346002B01D000F0E3F80F237B600023E4
:1010CC00BB600023FB6000233B6100237B613B1D65
:1010DC000021184601F0E4F80346002B01D000F083
:1010EC00CFF800BF4037BD4680BD000080B586B04C
:1010FC0000AF07F1080300221A605A609A60DA60A8
:10110C003B4600221A605A601D4B4FF080421A6019
:10111C001B4B41F63F725A60194B00229A60184BD8
:10112C000922DA60164B00221A61154B00229A61D3
:10113C00134801F011FA0346002B01D000F0A0F87F
:10114C004FF48053BB6007F1080319460C4801F0BB
:10115C008FFB0346002B01D000F092F800233B607C
:10116C0000237B603B461946054801F067FD0346AA
:10117C00002B01D000F084F800BF1837BD4680BDAD
:10118C00E800002080B588B000AF07F11003002202
:10119C001A605A609A60DA602F4B9B692E4A43F0B2
:1011AC00100393612C4B9B6903F01003FB60FB68ED
:1011BC00294B9B69284A43F004039361264B9B6996
:1011CC0003F00403BB60BB68234B9B69224A43F0CA
:1011DC0008039361204B9B6903F008037B607B68D9
:1011EC00002243F6FE711D4800F0A9FD00224FF6C7
:1011FC00FF711B4800F0A3FD4FF460433B610023DB
:10120C007B610123BB6107F110031946154800F0FF
:10121C0005FC43F6FE733B6101237B610023BB613C
:10122C000223FB6107F1100319460C4800F0F6FB92
:10123C004FF6FF733B6101237B610023BB610223EB
:10124C00FB6107F110031946054800F0E7FB00BFEE
:10125C002037BD4680BD00BF001002400008014091
:10126C00000C01400010014080B582B000AF7860E6
:10127C0000F060F8FFF704FC00BF0837BD4680BDE6
:10128C0080B400AF72B600BFFEE7000080B485B03A
:10129C0000AF78607B68104A82FB03129210DB1758
:1012AC00D31ABB600023FB600CE00C49FB68BA68E6
:1012BC0041F823200A4AFB68002142F82310FB68FE
:1012CC000133FB60FB68052BEFDD00BF00BF14375B
:1012DC00BD4680BC704700BF67666666B4000020E0
:1012EC00CC00002080B483B000AF786039607B689C
:1012FC00002B13DB7B68052B10DC3B680A4A82FB56
:10130C0003129210DB17D21A08497B6841F823208C
:10131C00074A7B68002142F8231000E000BF0C371D
:10132C00BD4680BC704700BF67666666B40000208F
:10133C00CC00002080B483B000AF00237B601CE0A5
:10134C00124A7B6852F82330002B13DD0F4A7B685E
:10135C0052F823305A1E0D497B6841F823200B4A62
:10136C007B6852F82330002B04DC094A7B6801218E
:10137C0042F823107B6801337B607B68052BDFDD33
:10138C0000BF00BF0C37BD4680BC7047B4000020C6
:10139C00CC00002080B483B000AF78607B68002B59
:1013AC0002DB7B68052B01DD002303E0044A7B682C
:1013BC0052F8233018460C37BD4680BC704700BF2E
:1013CC00CC00002080B483B000AF78607B68002B29
:1013DC0002DB7B68052B01DD002303E0044A7B68FC
:1013EC0052F8233018460C37BD4680BC704700BFFE
:1013FC00B400002080B485B000AF154B9B69144A33
:10140C0043F001039361124B9B6903F00103BB6032
:10141C00BB680F4BDB690E4A43F08053D3610C4B16
:10142C00DB6903F080537B607B680A4B5B68FB6075
:10143C00FB6823F0E063FB60FB6843F08063FB60B8
:10144C00044AFB68536000BF1437BD4680BC70472C
:10145C00001002400000014080B584B000AF7860FD
:10146C007B681B68B3F1804F13D10C4BDB690B4AC3
:10147C0043F00103D361094BDB6903F00103FB600B
:10148C00FB68002200211C2000F091FA1C2000F0C7
:10149C00AAFA00BF1037BD4680BD00BF0010024045
:1014AC0080B400AFFEE780B400AFFEE780B400AFBD
:1014BC00FEE780B400AFFEE780B400AFFEE780B477
:1014CC0000AF00BFBD4680BC704780B400AF00BF0A
:1014DC00BD4680BC704780B400AF00BFBD4680BC29
:1014EC00704780B500AF00F06FF900BF80BD000001
:1014FC0080B500AF024801F0CBF800BF80BD00BF43
:10150C00E800002080B400AF00BFBD4680BC70472F
:10151C0080B500AF002202210A4800F010FC012225
:10152C000421084800F00BFC00224FF480710548A0
:10153C0000F005FC01224FF40071024800F0FFFBA3
:10154C0000BF80BD0008014080B500AF0122022120
:10155C000A4800F0F4FB00220821084800F0EFFBD9
:10156C0001224FF48071054800F0E9FB00224FF492
:10157C008061024800F0E3FB00BF80BD0008014021
:10158C0080B500AF012208210A4800F0D8FB0022E8
:10159C000421084800F0D3FB01224FF48061054878
:1015AC0000F0CDFB00224FF40071024800F0C7FBA5
:1015BC0000BF80BD0008014080B500AF00221021A3
:1015CC000A4800F0BCFB01224021084800F0B7FBA0
:1015DC0000224FF40061054800F0B1FB01224FF4EA
:1015EC008051024800F0ABFB00BF80BD00080140F9
:1015FC0080B500AF012210210A4800F0A0FB0022A8
:10160C008021084800F09BFB01224FF40061054843
:10161C0000F095FB00224FF40051024800F08FFBC4
:10162C0000BF80BD0008014080B500AF01228021C1
:10163C000A4800F084FB00224021084800F07FFBA0
:10164C0001224FF40051054800F079FB00224FF4C1
:10165C008051024800F073FB00BF80BD00080140C0
:10166C0080B500AF01220221204800F068FB012266
:10167C0004211E4800F063FB012208211B4800F0E6
:10168C005EFB01221021194800F059FB0122402178
:10169C00164800F054FB01228021144800F04FFB47
:1016AC0001224FF48071114800F049FB01224FF4E4
:1016BC0000710E4800F043FB01224FF480610B488F
:1016CC0000F03DFB01224FF40061084800F037FBAD
:1016DC0001224FF48051054800F031FB01224FF4F8
:1016EC000051024800F02BFB00BF80BD00080140F8
:1016FC00FFF708FF0B480C490C4A002302E0D458B2
:10170C00C4500433C4188C42F9D3094A094C002341
:10171C0001E013600432A242FBD301F0F9FAFFF7A7
:10172C008BFC70470000002020000020B82D000822
:10173C002000002034010020FEE7000080B500AF3F
:10174C00084B1B68074A43F010031360032000F09A
:10175C0023F90F2000F008F8FFF74CFE0023184681
:10176C0080BD00BF0020024080B582B000AF786021
:10177C00124B1A68124B1B7819464FF47A73B3FB51
:10178C00F1F3B2FBF3F3184600F03BF90346002BE0
:10179C0001D001230EE07B680F2B0AD80022796858
:1017AC004FF0FF3000F003F9064A7B68136000230A
:1017BC0000E0012318460837BD4680BD1400002008
:1017CC001C0000201800002080B400AF054B1B78D3
:1017DC001A46054B1B681344034A136000BFBD46F1
:1017EC0080BC70471C0000203001002080B400AF8A
:1017FC00024B1B681846BD4680BC70473001002068
:10180C0080B485B000AF78607B6803F00703FB60A1
:10181C000C4BDB68BB60BA684FF6FF031340BB6030
:10182C00FB681A02BB68134343F0BF6343F40033F5
:10183C00BB60044ABB68D36000BF1437BD4680BC94
:10184C00704700BF00ED00E080B400AF044BDB68D4
:10185C001B0A03F007031846BD4680BC704700BF47
:10186C0000ED00E080B483B000AF0346FB7197F944
:10187C000730002B0BDBFB7903F01F02064997F9AD
:10188C0007305B09012000FA02F241F8232000BF67
:10189C000C37BD4680BC704700E100E080B483B0DB
:1018AC0000AF03463960FB7197F90730002B0ADB58
:1018BC003B68DAB20C4997F907301201D2B20B44EB
:1018CC0083F800230AE03B68DAB20849FB7903F09D
:1018DC000F03043B1201D2B20B441A7600BF0C3733
:1018EC00BD4680BC704700BF00E100E000ED00E0A9
:1018FC0080B489B000AFF860B9607A60FB6803F01F
:10190C000703FB61FB69C3F10703042B28BF042306
:10191C00BB61FB690433062B02D9FB69033B00E076
:10192C0000237B614FF0FF32BB6902FA03F3DA4309
:10193C00BB681A407B699A404FF0FF317B6901FA12
:10194C0003F3D9437B680B40134318462437BD4639
:10195C0080BC704780B582B000AF78607B68013B7B
:10196C00B3F1807F01D301230FE00A4A7B68013B6E
:10197C0053600F214FF0FF30FFF790FF054B002213
:10198C009A60044B07221A60002318460837BD469C
:10199C0080BD00BF10E000E080B582B000AF786081
:1019AC007868FFF72DFF00BF0837BD4680BD80B5B6
:1019BC0086B000AF0346B9607A60FB7300237B618D
:1019CC00FFF742FF78617A68B9687869FFF790FF92
:1019DC00024697F90F3011461846FFF75FFF00BF1C
:1019EC001837BD4680BD80B582B000AF0346FB7191
:1019FC0097F907301846FFF735FF00BF0837BD468B
:101A0C0080BD80B582B000AF78607868FFF7A2FF28
:101A1C00034618460837BD4680BD000080B48BB025
:101A2C0000AF7860396000237B6200233B6248E1A1
:101A3C0001227B6A02FA03F3FB613B681B68FA69BB
:101A4C001340BB61BA69FB699A4240F037813B682D
:101A5C005B68A34A93425ED0A14A934275D8A14ACF
:101A6C00934258D09F4A93426FD89F4A934252D088
:101A7C009D4A934269D89D4A93424CD09B4A9342CB
:101A8C0063D89B4A934246D0994A93425DD8122B15
:101A9C002AD8122B59D801A252F823F0231B000884
:101AAC00FD1A00080F1B0008511B0008571B0008EB
:101ABC00571B0008571B0008571B0008571B000832
:101ACC00571B0008571B0008571B0008571B000822
:101ADC00571B0008571B0008571B0008571B000812
:101AEC00051B0008191B0008824A934213D02CE0F6
:101AFC003B68DB683B6229E03B68DB6804333B6294
:101B0C0024E03B68DB6808333B621FE03B68DB6822
:101B1C000C333B621AE03B689B68002B02D1042318
:101B2C003B6213E03B689B68012B05D108233B62A9
:101B3C007B68FA691A6109E008233B627B68FA69E1
:101B4C005A6103E000233B6200E000BFBB69FF2B3E
:101B5C0001D87B6801E07B6804337B61BB69FF2B98
:101B6C0002D87B6A9B0002E07B6A083B9B003B61CE
:101B7C007B691A680F213B6901FA03F3DB431A40B6
:101B8C00396A3B6901FA03F31A437B691A603B68B3
:101B9C005B6803F08053002B00F09080564B9B69E0
:101BAC00554A43F001039361534B9B6903F00103C6
:101BBC00BB60BB68514A7B6A9B08023352F82330E6
:101BCC00FB607B6A03F003039B000F2202FA03F312
:101BDC00DB43FA681340FB607B68494A93420DD0A3
:101BEC007B68484A934207D07B68474A934201D1AD
:101BFC00022304E0032302E0012300E000237A6ABD
:101C0C0002F0030292009340FA681343FB603B49D5
:101C1C007B6A9B080233FA6841F823203B685B68B7
:101C2C0003F48013002B06D0384B9A683749BB69F4
:101C3C0013438B6006E0354B9A68BB69DB43334931
:101C4C0013408B603B685B6803F40013002B06D0D9
:101C5C002E4BDA682D49BB691343CB6006E02B4B46
:101C6C00DA68BB69DB4329491340CB603B685B688E
:101C7C0003F40033002B06D0244B5A682349BB696C
:101C8C0013434B6006E0214B5A68BB69DB431F4989
:101C9C0013404B603B685B6803F48033002B06D029
:101CAC001A4B1A681949BB6913430B6006E0174BB2
:101CBC001A68BB69DB43154913400B607B6A01331F
:101CCC007B623B681A687B6A22FA03F3002B7FF471
:101CDC00AFAE00BF00BF2C37BD4680BC704700BF05
:101CEC000000321000003110000022100000211002
:101CFC000000121000001110001002400000014002
:101D0C0000080140000C014000100140000401409B
:101D1C0080B485B000AF78600B467B807B689A6896
:101D2C007B881340002B02D00123FB7301E00023BE
:101D3C00FB73FB7B18461437BD4680BC704780B4E0
:101D4C0083B000AF78600B467B8013467B707B784A
:101D5C00002B03D07A887B681A6103E07B881A0415
:101D6C007B681A6100BF0C37BD4680BC704780B4DD
:101D7C0085B000AF78600B467B807B68DB68FB60CE
:101D8C007A88FB6813401A04FB68D9437B880B40A4
:101D9C001A437B681A6100BF1437BD4680BC70477C
:101DAC0080B586B000AF78607B68002B01D1012331
:101DBC006CE27B681B6803F00103002B00F087804A
:101DCC00924B5B6803F00C03042B0CD08F4B5B68BD
:101DDC0003F00C03082B12D18C4B5B6803F480339B
:101DEC00B3F5803F0BD1894B1B6803F40033002BF8
:101DFC006CD07B685B68002B68D1012346E27B6862
:101E0C005B68B3F5803F06D1804B1B687F4A43F477
:101E1C00803313602EE07B685B68002B0CD17B4B0E
:101E2C001B687A4A23F480331360784B1B68774A1B
:101E3C0023F4802313601DE07B685B68B3F5A02F4F
:101E4C000CD1724B1B68714A43F4802313606F4BA7
:101E5C001B686E4A43F4803313600BE06B4B1B68BA
:101E6C006A4A23F480331360684B1B68674A23F477
:101E7C00802313607B685B68002B13D0FFF7B6FCE4
:101E8C00386108E0FFF7B2FC02463B69D31A642BB9
:101E9C0001D90323FAE15D4B1B6803F40033002BDB
:101EAC00F0D014E0FFF7A2FC386108E0FFF79EFCCD
:101EBC0002463B69D31A642B01D90323E6E1534B49
:101ECC001B6803F40033002BF0D100E000BF7B68EB
:101EDC001B6803F00203002B63D04C4B5B6803F0D0
:101EEC000C03002B0BD0494B5B6803F00C03082B45
:101EFC001CD1464B5B6803F48033002B16D1434B4B
:101F0C001B6803F00203002B05D07B681B69012BB7
:101F1C0001D00123BAE13D4B1B6823F0F8027B682A
:101F2C005B69DB00394913430B603AE07B681B6942
:101F3C00002B20D0364B01221A60FFF757FC38617A
:101F4C0008E0FFF753FC02463B69D31A022B01D978
:101F5C0003239BE12D4B1B6803F00203002BF0D0F5
:101F6C002A4B1B6823F0F8027B685B69DB0027496E
:101F7C0013430B6015E0264B00221A60FFF736FC6A
:101F8C00386108E0FFF732FC02463B69D31A022B9A
:101F9C0001D903237AE11D4B1B6803F00203002BCC
:101FAC00F0D17B681B6803F00803002B3AD07B68E8
:101FBC009B69002B19D0174B01221A60FFF716FCF6
:101FCC00386108E0FFF712FC02463B69D31A022B7A
:101FDC0001D903235AE10D4B5B6A03F00203002B7A
:101FEC00F0D0012000F09AFA1CE00A4B00221A6093
:101FFC00FFF7FCFB38610FE0FFF7F8FB02463B698B
:10200C00D31A022B08D9032340E100BF0010024071
:10201C0000004242800442429E4B5B6A03F0020382
:10202C00002BE9D17B681B6803F00403002B00F044
:10203C00A6800023FB75974BDB6903F08053002BC4
:10204C000DD1944BDB69934A43F08053D361914B90
:10205C00DB6903F08053BB60BB680123FB758E4BBF
:10206C001B6803F48073002B18D18B4B1B688A4AB6
:10207C0043F480731360FFF7B9FB386108E0FFF796
:10208C00B5FB02463B69D31A642B01D90323FDE04F
:10209C00814B1B6803F48073002BF0D07B68DB68EA
:1020AC00012B06D17B4B1B6A7A4A43F00103136266
:1020BC002DE07B68DB68002B0CD1764B1B6A754AD4
:1020CC0023F001031362734B1B6A724A23F004035F
:1020DC0013621CE07B68DB68052B0CD16D4B1B6A13
:1020EC006C4A43F0040313626A4B1B6A694A43F05F
:1020FC00010313620BE0674B1B6A664A23F0010372
:10210C001362644B1B6A634A23F0040313627B68FB
:10211C00DB68002B15D0FFF769FB38610AE0FFF78D
:10212C0065FB02463B69D31A41F28832934201D9CE
:10213C000323ABE0574B1B6A03F00203002BEED0DA
:10214C0014E0FFF753FB38610AE0FFF74FFB024640
:10215C003B69D31A41F28832934201D9032395E0AB
:10216C004C4B1B6A03F00203002BEED1FB7D012BC1
:10217C0005D1484BDB69474A23F08053D3617B6818
:10218C00DB69002B00F08180424B5B6803F00C0391
:10219C00082B61D07B68DB69022B46D13F4B0022B8
:1021AC001A60FFF723FB386108E0FFF71FFB0246BC
:1021BC003B69D31A022B01D9032367E0354B1B680B
:1021CC0003F00073002BF0D17B681B6AB3F5803FE2
:1021DC0008D1304B5B6823F400327B689B682D4937
:1021EC0013434B602B4B5B6823F474127B68196AA6
:1021FC007B685B6A0B43274913434B60274B0122D7
:10220C001A60FFF7F3FA386108E0FFF7EFFA0246BD
:10221C003B69D31A022B01D9032337E01D4B1B68F2
:10222C0003F00073002BF0D02FE01C4B00221A603F
:10223C00FFF7DCFA386108E0FFF7D8FA02463B6991
:10224C00D31A022B01D9032320E0124B1B6803F095
:10225C000073002BF0D118E07B68DB69012B01D1F6
:10226C00012313E00B4B5B68FB60FB6803F48032CB
:10227C007B681B6A9A4206D1FB6803F470127B6878
:10228C005B6A9A4201D0012300E0002318461837FC
:10229C00BD4680BD0010024000700040600042420C
:1022AC0080B584B000AF786039607B68002B01D1B9
:1022BC000123D0E06A4B1B6803F007033A689A428B
:1022CC0010D9674B1B6823F0070265493B68134321
:1022DC000B60634B1B6803F007033A689A4201D00A
:1022EC000123B8E07B681B6803F00203002B20D0AD
:1022FC007B681B6803F00403002B05D0594B5B680B
:10230C00584A43F4E06353607B681B6803F008038E
:10231C00002B05D0534B5B68524A43F46053536017
:10232C00504B5B6823F0F0027B689B684D4913436C
:10233C004B607B681B6803F00103002B40D07B686B
:10234C005B68012B07D1474B1B6803F40033002B50
:10235C0015D101237FE07B685B68022B07D1414BD1
:10236C001B6803F00073002B09D1012373E03D4B74
:10237C001B6803F00203002B01D101236BE0394BE6
:10238C005B6823F003027B685B68364913434B6040
:10239C00FFF72CFAF8600AE0FFF728FA0246FB6810
:1023AC00D31A41F28832934201D9032353E02D4BC7
:1023BC005B6803F00C027B685B689B009A42EBD174
:1023CC00274B1B6803F007033A689A4210D2244B40
:1023DC001B6823F0070222493B6813430B60204B18
:1023EC001B6803F007033A689A4201D0012332E0DC
:1023FC007B681B6803F00403002B08D0194B5B6847
:10240C0023F4E0627B68DB68164913434B607B68FE
:10241C001B6803F00803002B09D0124B5B6823F4F4
:10242C0060527B681B69DB000E4913434B6000F064
:10243C0021F802460B4B5B681B0903F00F030A499A
:10244C00CB5C22FA03F3094A1360094B1B6818464C
:10245C00FFF78AF9002318461037BD4680BD00BF30
:10246C0000200240001002408C2D000814000020B7
:10247C001800002080B487B000AF0023FB6000235D
:10248C00BB6000237B6100237B6000233B611E4B00
:10249C005B68FB60FB6803F00C03042B02D0082B79
:1024AC0003D027E0194B3B6127E0FB689B0C03F042
:1024BC000F03174AD35C7B60FB6803F48033002B5B
:1024CC0010D0114B5B685B0C03F00103114AD35C19
:1024DC00BB607B680D4A02FB03F2BB68B2FBF3F3F3
:1024EC007B6104E07B680C4A02FB03F37B617B6934
:1024FC003B6102E0054B3B6100BF3B6918461C3752
:10250C00BD4680BC704700BF0010024000127A002C
:10251C009C2D0008AC2D000800093D0080B485B04E
:10252C0000AF78600A4B1B680A4AA2FB03235B0AC4
:10253C007A6802FB03F3FB6000BFFB685A1EFA606B
:10254C00002BF9D100BF00BF1437BD4680BC7047CB
:10255C0014000020D34D621080B582B000AF7860BB
:10256C007B68002B01D1012341E07B6893F83D305F
:10257C00DBB2002B06D17B68002283F83C20786804
:10258C00FEF76AFF7B68022283F83D207B681A689D
:10259C007B6804331946104600F056FA7B6801221A
:1025AC0083F846207B68012283F83E207B68012259
:1025BC0083F83F207B68012283F840207B6801224E
:1025CC0083F841207B68012283F842207B6801223A
:1025DC0083F843207B68012283F844207B68012226
:1025EC0083F845207B68012283F83D2000231846A0
:1025FC000837BD4680BD000080B485B000AF786060
:10260C007B6893F83D30DBB2012B01D0012335E020
:10261C007B68022283F83D207B681B68DA687B6844
:10262C001B6842F00102DA607B681B68164A934211
:10263C0009D07B681B68B3F1804F04D07B681B68A2
:10264C00124A934211D17B681B689B6803F0070305
:10265C00FB60FB68062B10D07B681B681A687B68D4
:10266C001B6842F001021A6007E07B681B681A685D
:10267C007B681B6842F001021A600023184614376D
:10268C00BD4680BC704700BF002C014000040040D8
:10269C0080B584B000AF78607B681B68DB68FB603A
:1026AC007B681B681B69BB60BB6803F00203002BD3
:1026BC0020D0FB6803F00203002B1BD07B681B6847
:1026CC006FF002021A617B6801221A777B681B6823
:1026DC009B6903F00303002B03D0786800F098F992
:1026EC0005E0786800F08BF9786800F09AF97B685F
:1026FC0000221A77BB6803F00403002B20D0FB6880
:10270C0003F00403002B1BD07B681B686FF00402E2
:10271C001A617B6802221A777B681B689B6903F439
:10272C004073002B03D0786800F072F905E07868EC
:10273C0000F065F9786800F074F97B6800221A776C
:10274C00BB6803F00803002B20D0FB6803F00803E0
:10275C00002B1BD07B681B686FF008021A617B682A
:10276C0004221A777B681B68DB6903F00303002BD8
:10277C0003D0786800F04CF905E0786800F03FF978
:10278C00786800F04EF97B6800221A77BB6803F07A
:10279C001003002B20D0FB6803F01003002B1BD080
:1027AC007B681B686FF010021A617B6808221A772D
:1027BC007B681B68DB6903F44073002B03D07868DB
:1027CC0000F026F905E0786800F019F9786800F057
:1027DC0028F97B6800221A77BB6803F00103002BF1
:1027EC000CD0FB6803F00103002B07D07B681B683F
:1027FC006FF001021A617868FEF736FDBB6803F0D2
:10280C008003002B0CD0FB6803F08003002B07D057
:10281C007B681B686FF080021A61786800F06FFAB1
:10282C00BB6803F04003002B0CD0FB6803F04003A3
:10283C00002B07D07B681B686FF040021A61786828
:10284C0000F0F8F8BB6803F02003002B0CD0FB68F9
:10285C0003F02003002B07D07B681B686FF020026D
:10286C001A61786800F042FA00BF1037BD4680BD8F
:10287C0080B584B000AF786039600023FB737B684F
:10288C0093F83C30012B01D10223B4E07B68012288
:10289C0083F83C207B68022283F83D207B681B6810
:1028AC009B68BB60BB6823F07703BB60BB6823F4F9
:1028BC007F43BB607B681B68BA689A603B681B6887
:1028CC00B3F5005F3ED0B3F5005F00F28780B3F53F
:1028DC00805F00F08680B3F5805F7FD8702B1AD0B4
:1028EC00702B7BD8602B50D0602B77D8502B3CD0E2
:1028FC00502B73D8402B58D0402B6FD8302B64D032
:10290C00302B6BD8202B60D0202B67D8002B5CD0C1
:10291C00102B5AD062E07B6818683B6899683B685A
:10292C005A683B68DB6800F06AF97B681B689B6837
:10293C00BB60BB6843F07703BB607B681B68BA68FD
:10294C009A604FE07B6818683B6899683B685A68E6
:10295C003B68DB6800F053F97B681B689A687B68FE
:10296C001B6842F480429A603CE07B6818683B68C4
:10297C0059683B68DB681A4600F0CAF87B681B682C
:10298C005021184600F021F92CE07B6818683B6850
:10299C0059683B68DB681A4600F0E8F87B681B68EE
:1029AC006021184600F011F91CE07B6818683B6840
:1029BC0059683B68DB681A4600F0AAF87B681B680C
:1029CC004021184600F001F90CE07B681A683B685E
:1029DC001B681946104600F0F8F803E00123FB735E
:1029EC0000E000BF7B68012283F83D207B68002259
:1029FC0083F83C20FB7B18461037BD4680BD80B465
:102A0C0083B000AF786000BF0C37BD4680BC704708
:102A1C0080B483B000AF786000BF0C37BD4680BC7B
:102A2C00704780B483B000AF786000BF0C37BD46F0
:102A3C0080BC704780B483B000AF786000BF0C37A7
:102A4C00BD4680BC7047000080B485B000AF786094
:102A5C0039607B681B68FB607B682B4A934207D00C
:102A6C007B68B3F1804F03D07B68284A934208D12E
:102A7C00FB6823F07003FB603B685B68FA681343E8
:102A8C00FB607B68204A934207D07B68B3F1804F90
:102A9C0003D07B681D4A934208D1FB6823F4407332
:102AAC00FB603B68DB68FA681343FB60FB6823F050
:102ABC0080023B685B691343FB607B68FA681A60B1
:102ACC003B689A687B68DA623B681A687B689A6232
:102ADC007B680D4A934203D13B681A697B681A6381
:102AEC007B6801225A617B681B6903F00103002B90
:102AFC0005D07B681B6923F001027B681A6100BF5B
:102B0C001437BD4680BC7047002C014000040040C7
:102B1C0080B487B000AFF860B9607A60FB681B6A5C
:102B2C007B61FB681B6A23F00102FB681A62FB687D
:102B3C009B693B613B6923F0F0033B617B681B01A4
:102B4C003A6913433B617B6923F00A037B617A6921
:102B5C00BB6813437B61FB683A699A61FB687A69CD
:102B6C001A6200BF1C37BD4680BC704780B487B06A
:102B7C0000AFF860B9607A60FB681B6A7B61FB6828
:102B8C001B6A23F01002FB681A62FB689B693B61AD
:102B9C003B6923F470433B617B681B033A69134325
:102BAC003B617B6923F0A0037B61BB681B017A69E5
:102BBC0013437B61FB683A699A61FB687A691A6214
:102BCC0000BF1C37BD4680BC704780B485B000AFD9
:102BDC00786039607B689B68FB60FB6823F070034E
:102BEC00FB603A68FB68134343F00703FB607B68A8
:102BFC00FA689A6000BF1437BD4680BC704780B439
:102C0C0087B000AFF860B9607A603B60FB689B6886
:102C1C007B617B6923F47F437B613B681A027B6891
:102C2C001A43BB6813437A6913437B61FB687A6967
:102C3C009A6000BF1C37BD4680BC704780B485B01D
:102C4C0000AF786039607B6893F83C30012B01D180
:102C5C00022341E07B68012283F83C207B6802223E
:102C6C0083F83D207B681B685B68FB607B681B6896
:102C7C009B68BB60FB6823F07003FB603B681B68C0
:102C8C00FA681343FB607B681B68FA685A607B68C0
:102C9C001B68144A934209D07B681B68B3F1804FC0
:102CAC0004D07B681B68104A93420CD1BB6823F09C
:102CBC008003BB603B685B68BA681343BB607B688E
:102CCC001B68BA689A607B68012283F83D207B6898
:102CDC00002283F83C20002318461437BD4680BCE4
:102CEC00704700BF002C01400004004080B483B04A
:102CFC0000AF786000BF0C37BD4680BC704780B415
:102D0C0083B000AF786000BF0C37BD4680BC704705
:102D1C0070B500260C4D0D4C641BA410A64209D1B5
:102D2C0000F022F800260A4D0A4C641BA410A6429F
:102D3C0005D170BD55F8043B98470136EEE755F8C0
:102D4C00043B98470136F2E7B02D0008B02D00087F
:102D5C00B02D0008B42D000803460244934200D164
:102D6C00704703F8011BF9E7F8B500BFF8BC08BCC5
:102D7C009E467047F8B500BFF8BC08BC9E4670472D
:102D8C00000000000000000001020304060708090F
:102D9C0002030405060708090A0B0C0D0E0F101090
:042DAC000102000020
:042DB00031010008E5
:042DB4000D01000805
:102DB80000100140001001400010014000200040B8
:102DC8000080000000127A001000000001000000DE
:04000005080016FDDC
:00000001FF
