:020000040800F2
:1000000000280020FD200008AD1E0008B31E0008D7
:10001000B91E0008BF1E0008C51E00080000000031
:10002000000000000000000000000000CB1E0008DF
:10003000D71E000800000000E31E0008EF1E0008A5
:1000400045210008452100084521000845210008F8
:1000500045210008452100084521000845210008E8
:1000600045210008452100084521000845210008D8
:1000700045210008452100084521000845210008C8
:1000800045210008452100084521000845210008B8
:1000900045210008452100084521000845210008A8
:1000A0004521000845210008452100084521000898
:1000B000FD1E000845210008000000004521000841
:1000C0004521000800000000000000004521000854
:1000D0000000000045210008452100080000000044
:1000E00045210008452100084521000800000000C6
:1000F0000000000000000000000000000000000000
:0C01000000000000000000005FF808F1A3
:10010C0010B5054C237833B9044B13B10448AFF345
:10011C0000800123237010BD280000200000000087
:10012C007437000808B5034B1BB103490348AFF300
:10013C00008008BD000000002C000020743700086F
:10014C0080B500AF1C4B1B68002B19D11B4B1B68D7
:10015C00184600F09DF8194B5B68184600F04AFAF7
:10016C0000224FF48041164802F0E9FA01224FF4C4
:10017C000041134802F0E3FA0F4B01221A6018E019
:10018C000E4B9B68184600F083F80C4BDB68184646
:10019C0000F030FA01224FF48041094802F0CFFA06
:1001AC0000224FF40041064802F0C9FA024B00222B
:1001BC001A6000BF80BD00BF440000204800002032
:1001CC00000C014080B485B000AF786039607B686A
:1001DC00204A82FB03125211DB17D31AFB603B68D7
:1001EC001C4A82FB03125211DB17D31ABB60FB684B
:1001FC00194A82FB03129210DB17D31A174A1360A9
:10020C00F968154B83FB01239A10CB17D21A1346AE
:10021C009B0013445B00CA1A104B5A60BB680E4A11
:10022C0082FB03129210DB17D31A0C4A9360B96845
:10023C00094B83FB01239A10CB17D21A13469B0050
:10024C0013445B00CA1A054BDA6000BF1437BD4675
:10025C0080BC70471F85EB516766666648000020BE
:10026C0080B500AF01224FF48041084802F067FAD4
:10027C0001224FF40041054802F061FA0A2000F017
:10028C0007F80A2000F0B6F900BF80BD000C014051
:10029C0080B582B000AF78607B68092B00F280815A
:1002AC0001A252F823F000BFDD020008250300086C
:1002BC006D030008B5030008FD03000845040008A1
:1002CC008D040008D50400081D050008650500080C
:1002DC0000220121C64802F032FA00220221C44851
:1002EC0002F02DFA00220421C14802F028FA002263
:1002FC000821BF4802F023FA00221021BC4802F06A
:10030C001EFA00222021BA4802F019FA01224021DB
:10031C00B74802F014FA67E101220121B44802F057
:10032C000EFA00220221B24802F009FA002204213E
:10033C00AF4802F004FA01220821AD4802F0FFF99F
:10034C0001221021AA4802F0FAF901222021A84822
:10035C0002F0F5F901224021A54802F0F0F943E141
:10036C0000220121A24802F0EAF900220221A04851
:10037C0002F0E5F9012204219D4802F0E0F9002287
:10038C0008219B4802F0DBF900221021984802F06A
:10039C00D6F901222021964802F0D1F90022402101
:1003AC00934802F0CCF91FE100220121904802F0A1
:1003BC00C6F9002202218E4802F0C1F90022042164
:1003CC008B4802F0BCF900220821894802F0B7F9E9
:1003DC0001221021864802F0B2F901222021844822
:1003EC0002F0ADF900224021814802F0A8F9FBE0AF
:1003FC00012201217E4802F0A2F9002202217C4850
:10040C0002F09DF900220421794802F098F90122AA
:10041C000821774802F093F901221021744802F068
:10042C008EF900222021724802F089F90022402125
:10043C006F4802F084F9D7E0002201216C4802F0E9
:10044C007EF9012202216A4802F079F90022042186
:10045C00674802F074F900220821654802F06FF930
:10046C0001221021624802F06AF900222021604822
:10047C0002F065F9002240215D4802F060F9B3E01A
:10048C00002201215A4802F05AF90122022158484F
:10049C0002F055F900220421554802F050F90022CF
:1004AC000821534802F04BF900221021504802F069
:1004BC0046F9002220214E4802F041F90022402149
:1004CC004B4802F03CF98FE000220121484802F031
:1004DC0036F900220221464802F031F900220421AB
:1004EC00434802F02CF901220821414802F027F977
:1004FC00012210213E4802F022F9012220213C4821
:10050C0002F01DF901224021394802F018F96BE084
:10051C0000220121364802F012F90022022134484F
:10052C0002F00DF900220421314802F008F90022F2
:10053C0008212F4802F003F9002210212C4802F068
:10054C00FEF8002220212A4802F0F9F8002240216E
:10055C00274802F0F4F847E000220121244802F079
:10056C00EEF800220221224802F0E9F800220421D0
:10057C001F4802F0E4F8002208211D4802F0DFF8C1
:10058C00012210211A4802F0DAF800222021184822
:10059C0002F0D5F800224021154802F0D0F823E0F3
:1005AC0001220121124802F0CAF80122022110484E
:1005BC0002F0C5F8012204210D4802F0C0F8012216
:1005CC0008210B4802F0BBF801221021084802F068
:1005DC00B6F801222021064802F0B1F80122402190
:1005EC00034802F0ACF800BF00BF0837BD4680BD21
:1005FC00000C014080B582B000AF78607B68092B9D
:10060C0000F2BE8101A252F823F000BF410600089F
:10061C0095060008E90600083D0700089107000848
:10062C00E5070008390800088D080008E1080008F3
:10063C003509000800228021D04802F080F8002201
:10064C004FF48071CD4802F07AF800224FF400711B
:10065C00CA4802F074F800224FF48061C74802F0D7
:10066C006EF800224FF40061C44802F068F80022D2
:10067C004FF48051C14802F062F801224FF400514E
:10068C00BE4802F05CF8A5E101228021BB4802F0D3
:10069C0056F800224FF48071B84802F050F800224E
:1006AC004FF40071B54802F04AF801224FF4806112
:1006BC00B24802F044F801224FF40061AF4802F056
:1006CC003EF801224FF48051AC4802F038F8012278
:1006DC004FF40051A94802F032F87BE1002280214E
:1006EC00A64802F02CF800224FF48071A34802F0C7
:1006FC0026F801224FF40071A04802F020F80022E5
:10070C004FF480619D4802F01AF800224FF400610A
:10071C009A4802F014F801224FF48051974802F0E5
:10072C000EF800224FF40051944802F008F851E101
:10073C0000228021914802F002F800224FF48071CF
:10074C008E4801F0FCFF00224FF400718B4801F041
:10075C00F6FF00224FF48061884801F0F0FF01227F
:10076C004FF40061854801F0EAFF01224FF48051FB
:10077C00824801F0E4FF00224FF400517F4801F061
:10078C00DEFF27E1012280217C4801F0D8FF002206
:10079C004FF48071794801F0D2FF00224FF40071C0
:1007AC00764801F0CCFF01224FF48061734801F0D0
:1007BC00C6FF01224FF40061704801F0C0FF002217
:1007CC004FF480516D4801F0BAFF00224FF40051F4
:1007DC006A4801F0B4FFFDE000228021674801F077
:1007EC00AEFF01224FF48071644801F0A8FF002293
:1007FC004FF40071614801F0A2FF00224FF48061B8
:10080C005E4801F09CFF01224FF400615B4801F04F
:10081C0096FF00224FF48051584801F090FF0022BF
:10082C004FF40051554801F08AFFD3E0002280219B
:10083C00524801F084FF01224FF480714F4801F0BF
:10084C007EFF00224FF400714C4801F078FF00222B
:10085C004FF48061494801F072FF00224FF40061AF
:10086C00464801F06CFF00224FF48051434801F0E0
:10087C0066FF00224FF40051404801F060FFA9E0F0
:10088C00002280213D4801F05AFF00224FF4807174
:10089C003A4801F054FF00224FF40071374801F040
:1008AC004EFF01224FF48061344801F048FF0122D1
:1008BC004FF40061314801F042FF01224FF48051A6
:1008CC002E4801F03CFF01224FF400512B4801F05F
:1008DC0036FF7FE000228021284801F030FF002203
:1008EC004FF48071254801F02AFF00224FF400716B
:1008FC00224801F024FF00224FF480611F4801F0D0
:10090C001EFF00224FF400611C4801F018FF00226A
:10091C004FF48051194801F012FF00224FF400519E
:10092C00164801F00CFF55E000228021134801F01D
:10093C0006FF00224FF48071104801F000FF0022E6
:10094C004FF400710D4801F0FAFE00224FF4806163
:10095C000A4801F0F4FE01224FF40061074801F04F
:10096C00EEFE00224FF48051044801F0E8FE002214
:10097C004FF40051014801F0E2FE2BE0000C014065
:10098C0001228021154801F0DAFE01224FF480711A
:10099C00124801F0D4FE01224FF400710F4801F00F
:1009AC00CEFE01224FF480610C4801F0C8FE0122FA
:1009BC004FF40061094801F0C2FE01224FF480514E
:1009CC00064801F0BCFE01224FF40051034801F02F
:1009DC00B6FE00BF00BF0837BD4680BD000C01400D
:1009EC0080B483B000AF00237B603FE0244A7B6877
:1009FC00012142F82310224A7B6852F82320214916
:100A0C007B6841F823201F4A7B6852F823201E493B
:100A1C007B6841F823201D4A7B68012142F8231092
:100A2C001B4A7B68002142F823101A4A7B6800217C
:100A3C0042F82310184A7B68002142F82310174A09
:100A4C007B68002142F82310154A7B68002142F88C
:100A5C002310144A7B68002142F82310124A7B6849
:100A6C00002142F823107B6801337B607B68022BEA
:100A7C00BCDD00BF00BF0C37BD4680BC704700BF5B
:100A8C007000002064000020580000207C00002032
:100A9C008800002094000020A0000020AC00002062
:100AAC00B8000020C4000020D000002080B582B027
:100ABC0000AF00237B60DDE0734A7B6852F8232093
:100ACC0072497B6841F82320714A7B6852F82320D5
:100ADC006D497B6841F823206E4A7B6852F82320CD
:100AEC006D497B6831F813301946104601F010FE41
:100AFC0003461946664A7B6842F82310634A7B68B2
:100B0C0052F8232060497B6851F823309A4240F018
:100B1C00AE805D4A7B6852F823205D497B6851F8B2
:100B2C0023309A4240F0A3805C4A7B6852F8232021
:100B3C0057497B6851F823309A424ED0574A7B680C
:100B4C0052F82330002B34D1514A7B6852F82330B1
:100B5C00012B2ED1524A7B68012142F82310514AB5
:100B6C007B6852F823305A1C4E497B6841F823208D
:100B7C004C4A7B6852F82330012B05D14A4A7B68DA
:100B8C00282142F8231014E0464A7B6852F823309F
:100B9C00022B0ED1454A7B68012142F82310414AB1
:100BAC007B68002142F823103F4A7B68002142F801
:100BBC002310374A7B6852F8232038497B6841F868
:100BCC002320334A7B6852F82330002B2AD1384A31
:100BDC007B68642142F8231024E02D4A7B6852F88C
:100BEC002330002B1ED1324A7B6852F82330002B65
:100BFC0018DD2F4A7B6852F823305A1E2C497B682B
:100C0C0041F823202A4A7B6852F82330002B09DC58
:100C1C00284A7B68012142F82310254A7B6832213F
:100C2C0042F82310204A7B6852F82330002B1EDD3B
:100C3C001D4A7B6852F823305A1E1B497B6841F8C9
:100C4C002320194A7B6852F82330002B0FD1154A08
:100C5C007B6852F82330012B04D1174A7B680121A1
:100C6C0042F823100F4A7B68002142F823107B685E
:100C7C0001337B607B68022B7FF71EAF00BF00BF88
:100C8C000837BD4680BD00BF64000020580000201E
:100C9C0070000020000000200C0000207C000020D0
:100CAC00AC000020C4000020D0000020B8000020C0
:100CBC0088000020A00000209400002080B483B0A5
:100CCC0000AF78607B68002B02DB7B68022B01DDB8
:100CDC0000230DE0094A7B6852F82330012B06D122
:100CEC00064A7B68002142F82310012300E0002310
:100CFC0018460C37BD4680BC704700BF94000020DE
:100D0C0080B483B000AF78607B68002B02DB7B681B
:100D1C00022B01DD00230DE0094A7B6852F82330D9
:100D2C00012B06D1064A7B68002142F823100123CF
:100D3C0000E0002318460C37BD4680BC704700BF4E
:100D4C00A000002080B483B000AF78607B68002BDB
:100D5C0002DB7B68022B01DD00230DE0094A7B6876
:100D6C0052F82330012B06D1064A7B68002142F849
:100D7C002310012300E0002318460C37BD4680BC2D
:100D8C00704700BFB800002098B500AF9A4B1B7895
:100D9C00042B00F2248101A252F823F0BD0D0008AF
:100DAC002B0E0008990E00080D0F0008790F000893
:100DBC00032000F0EFFF0346002B08D041F2442142
:100DCC008E4801F0D4FCFA21032000F08BFF8C4BF1
:100DDC001B68022B40F005810220FFF76FFF0346D2
:100DEC00002B00F0FE80012241F24421834801F0E7
:100DFC00A6FC814B01221A7041F28831012000F0CF
:100E0C0071FF40F6B831022000F06CFF0A2104207B
:100E1C0000F068FF0A21052000F064FFE1E001F01A
:100E2C0077F801F0E5F8052000F0B4FF0346002B3D
:100E3C0010D0012000F0C6FF0446022000F0C2FFD3
:100E4C00034619462046FFF7BDF94FF4FA71052009
:100E5C0000F048FF042000F09DFF0346002B05D056
:100E6C00FFF76EF95021042000F03CFF022000F047
:100E7C0091FF0346002B00F0B6805F4B02221A70E4
:100E8C004FF4FA61022000F02DFFACE001F0CCF839
:100E9C00052000F07FFF0346002B10D0012000F04E
:100EAC0091FF0446022000F08DFF034619462046B0
:100EBC00FFF788F94FF4FA71052000F013FF0420B6
:100ECC0000F068FF0346002B05D0FFF739F95021DD
:100EDC00042000F007FF012000F05CFF0346002B0C
:100EEC0000F08380444B03221A7040F6B831012085
:100EFC0000F0F8FE41F28831022000F0F3FE74E0BD
:100F0C0001F022F801F058F8052000F043FF0346E9
:100F1C00002B10D0012000F055FF0446022000F0F9
:100F2C0051FF034619462046FFF74CF94FF4FA716E
:100F3C00052000F0D7FE042000F02CFF0346002B08
:100F4C0005D0FFF7FDF85021042000F0CBFE012066
:100F5C0000F020FF0346002B49D0274B04221A70C7
:100F6C004FF4FA61012000F0BDFE40E001F008F8FA
:100F7C00052000F00FFF0346002B10D0012000F0DD
:100F8C0021FF0446022000F01DFF034619462046AF
:100F9C00FFF718F94FF4FA71052000F0A3FE0420B6
:100FAC0000F0F8FE0346002B05D0FFF7C9F85021DE
:100FBC00042000F097FE012000F0ECFE0346002B0D
:100FCC0017D00D4B01221A7041F28831012000F02C
:100FDC0089FE40F6B831022000F084FE09E000BF23
:100FEC0008E000BF06E000BF04E000BF02E000BF65
:100FFC0000E000BF00BF98BD2401002000080140A4
:10100C00F000002080B500AF124B1B68002B0FD1F5
:10101C0000224FF40171104801F091FB01224FF4B2
:10102C0082510D4801F08BFB0A4B01221A600EE035
:10103C0001224FF40171084801F081FB00224FF4AA
:10104C008251054801F07BFB024B00221A6000BF65
:10105C0080BD00BFDC0000200008014080B500AF5F
:10106C00184B1B68002B15D10920FFF711F909202B
:10107C00FFF7C0FA00224FF48041134801F05FFBE8
:10108C0001224FF40041104801F059FB0D4B012295
:10109C001A6014E00920FFF7FBF80920FFF7AAFA01
:1010AC0001224FF48041084801F049FB00224FF423
:1010BC000041054801F043FB024B00221A6000BFBF
:1010CC0080BD00BFE0000020000C014080B500AFE7
:1010DC00444B1B78042B78D801A252F823F000BFA4
:1010EC000111000843110008751100088D1100084A
:1010FC00BF110008012000F04DFE0346002B08D064
:10110C0040F61211384801F032FBFA21012000F0B0
:10111C00E9FD364B1B68042B59D10120FFF7CEFD9E
:10112C000346002B53D02F4B01221A705021022062
:10113C0000F0D8FD4BE000F0EBFE00F059FF012071
:10114C00FFF7DEFD0346002B04D04FF40251264876
:10115C0001F00DFB0120FFF7B1FD0346002B38D049
:10116C00204B02221A7034E000F05EFF0120FFF7E2
:10117C00A5FD0346002B2ED01A4B03221A702AE031
:10118C0000F0E2FE00F018FF0120FFF7B9FD034666
:10119C00002B04D04FF48161134801F0E8FA0120D0
:1011AC00FFF78CFD0346002B17D00E4B04221A7050
:1011BC0013E000F0E5FE0120FFF780FD0346002B55
:1011CC000DD0084B01221A7009E000BF08E000BFE7
:1011DC0006E000BF04E000BF02E000BF00E000BF7B
:1011EC0000BF80BD2401002000080140F000002059
:1011FC0080B500AF414B1B68162B5DD0162B73DCF2
:10120C00142B02D0152B26D06EE03D4B1B68042B03
:10121C0010D10120FFF796FD0346002B0AD0374B67
:10122C0015221A60FA21012000F05CFD50210220E9
:10123C0000F058FD324B1B68042B57D10220FFF7EE
:10124C0081FD0346002B51D02C4B16221A602D4BDE
:10125C0000221A704AE0012000F09CFD0346002B8E
:10126C0005D0FFF7CFFEFA21012000F03BFD022054
:10127C0000F090FD0346002B05D0FFF7EFFE502148
:10128C00022000F02FFD0220FFF75CFD0346002B2F
:10129C002ED000F0E5FEFEF7E3FF184B16221A6085
:1012AC00184B00221A70FA21012000F01BFD50216E
:1012BC00022000F017FD1BE0FFF708FF0120FFF7ED
:1012CC0041FD0346002B15D0FEF7CAFF00F0C8FE07
:1012DC000A4B15221A60FA21012000F003FD50215F
:1012EC00022000F0FFFC05E000BF04E000BF02E0BC
:1012FC0000BF00E000BF00BF80BD00BF1400002095
:10130C00F00000202401002098B500AFA04B1B7802
:10131C00042B00F2308101A252F823F03D13000897
:10132C0087130008FF13000887140008FD14000839
:10133C00984B1B68032B40F02081954B01221A70AF
:10134C00954B1B684FF47A7202FB03F3194601208C
:10135C0000F0C8FC914B1B684FF47A7202FB03F34C
:10136C001946022000F0BEFC0A21042000F0BAFC51
:10137C000A21052000F0B6FCFFE000F0C9FD00F0EA
:10138C0037FE052000F006FD0346002B10D001208F
:10139C0000F018FD0446022000F014FD0346194627
:1013AC002046FEF70FFF4FF4FA71052000F09AFC6F
:1013BC00042000F0EFFC0346002B05D0FEF7C0FE26
:1013CC005021042000F08EFC022000F0E3FC0346C8
:1013DC00002B00F0D4806E4B02221A70704B1B68ED
:1013EC004FF47A7202FB03F31946022000F07AFCE8
:1013FC00C5E000F019FE052000F0CCFC0346002BE4
:10140C0010D0012000F0DEFC0446022000F0DAFCD3
:10141C00034619462046FEF7D5FE4FF4FA71052017
:10142C0000F060FC042000F0B5FC0346002B05D056
:10143C00FEF786FE5021042000F054FC012000F041
:10144C00A9FC0346002B00F09C80514B03221A7020
:10145C00524B1B684FF47A7202FB03F319460120BE
:10146C0000F040FC4C4B1B684FF47A7202FB03F308
:10147C001946022000F036FC83E000F065FD00F018
:10148C009BFD052000F086FC0346002B10D00120AC
:10149C0000F098FC0446022000F094FC0346194628
:1014AC002046FEF78FFE4FF4FA71052000F01AFC6F
:1014BC00042000F06FFC0346002B05D0FEF740FE25
:1014CC005021042000F00EFC012000F063FC0346C8
:1014DC00002B58D02E4B04221A70314B1B684FF442
:1014EC007A7202FB03F31946012000F0FBFB4AE081
:1014FC0000F046FD052000F04DFC0346002B10D0FB
:10150C00012000F05FFC0446022000F05BFC034667
:10151C0019462046FEF756FE4FF4FA71052000F0EE
:10152C00E1FB042000F036FC0346002B05D0FEF74F
:10153C0007FE5021042000F0D5FB012000F02AFC0E
:10154C000346002B21D0124B01221A70124B1B6840
:10155C004FF47A7202FB03F31946012000F0C2FB30
:10156C000E4B1B684FF47A7202FB03F319460220F0
:10157C0000F0B8FB09E000BF08E000BF06E000BFC8
:10158C0004E000BF02E000BF00E000BF00BF98BD58
:10159C0024010020F0000020E4000020EC000020DA
:1015AC00E800002080B500AFB24B1B680B3B032B4F
:1015BC0000F2578101A252F823F000BFD9150008A0
:1015CC00A51600088517000869180008032000F00C
:1015DC00E1FB0346002B08D040F61211A64801F09F
:1015EC00C6F8FA21032000F07DFB052000F0D2FBA9
:1015FC000346002B0DD0A14B1B68642202FB03F3A6
:10160C0064211846FEF7DEFD4FF49671052000F0BC
:10161C0069FB042000F0BEFB0346002B05D0FEF74F
:10162C008FFD5021042000F05DFB0120FFF746FBED
:10163C000346002B05D10120FFF762FB0346002B6C
:10164C0004D08E4B1B6801338C4A13600220FFF7C9
:10165C0035FB0346002B05D10220FFF751FB034657
:10166C00002B04D0854B1B68013B844A136002207D
:10167C00FFF768FB0346002B00F0F580012240F6D3
:10168C0012117D4801F05BF87A4B0C221A60FA219A
:10169C00032000F027FBE6E0032000F07BFB034671
:1016AC00002B08D041F24421734801F060F8FA2174
:1016BC00032000F017FB052000F06CFB0346002B09
:1016CC000DD06F4B1B68642202FB03F3C821184634
:1016DC00FEF778FD4FF49671052000F003FB042013
:1016EC0000F058FB0346002B05D0FEF729FD5021D6
:1016FC00042000F0F7FA0120FFF7E0FA0346002B74
:10170C0005D10120FFF7FCFA0346002B0AD05C4BF5
:10171C001A685A4B1B689A4204DC594B1B680133FC
:10172C00574A13600220FFF7C9FA0346002B05D174
:10173C000220FFF7E5FA0346002B08D0504B1B683C
:10174C00002B04DD4E4B1B68013B4D4A13600220FD
:10175C00FFF7F8FA0346002B00F08780012241F2D4
:10176C004421454800F0EBFF424B0D221A60FA2150
:10177C00032000F0B7FA78E0032000F00BFB0346DF
:10178C00002B08D042F288413B4800F0F0FFFA21D0
:10179C00032000F0A7FA052000F0FCFA0346002B0A
:1017AC000ED0384B1B68642202FB03F34FF4967186
:1017BC001846FEF707FD4FF49671052000F092FADB
:1017CC00042000F0E7FA0346002B05D0FEF7B8FC26
:1017DC005021042000F086FA0120FFF76FFA03462F
:1017EC00002B05D10120FFF78BFA0346002B0DD0FF
:1017FC00224B1A68224B1B68D21A224B1B689A4246
:10180C0004DD204B1B6801331E4A13600220FFF7D6
:10181C0055FA0346002B05D10220FFF771FA034657
:10182C00002B08D0174B1B68002B04DD154B1B68D5
:10183C00013B144A13600220FFF784FA0346002B85
:10184C0015D0012242F288410B4800F078FF094B79
:10185C000E221A600C4B00221A7008E0FFF754FDA0
:10186C0006E000BF04E000BF02E000BF00E000BFE4
:10187C0000BF80BD1800002000080140E4000020DB
:10188C00E8000020EC0000202401002080B400AF10
:10189C00064B00221A70064B0B221A60054B1422C1
:1018AC001A6000BFBD4680BC704700BF24010020F9
:1018BC00180000201400002080B500AF5C4B1B68A2
:1018CC00013B032B00F2A98001A252F823F000BFC8
:1018DC00ED1800086D190008AF190008F11900087F
:1018EC0000F0BEFBFEF7BCFCFFF7D0FF002000F0C1
:1018FC0051FA0346002B08D020214E4800F037FF48
:10190C004FF47A71002000F0EDF90020FFF7D6F9C2
:10191C000346002B07D0464B02221A604FF47A7113
:10192C00002000F0DFF90120FFF7C8F90346002B77
:10193C0007D03F4B03221A604FF47A71002000F05D
:10194C00D1F90220FFF7BAF90346002B67D0384BC8
:10195C0004221A604FF47A71002000F0C3F95EE0A3
:10196C00FFF712FA002000F015FA0346002B08D0FE
:10197C002021304800F0FBFE4FF47A71002000F07B
:10198C00B1F90020FFF79AF90346002B49D0284BF8
:10199C0003221A6000F064FBFEF762FCFFF776FF8F
:1019AC003FE0FFF7FFFD002000F0F4F90346002BA9
:1019BC0008D020211F4800F0DAFE4FF47A71002085
:1019CC0000F090F90020FFF779F90346002B2AD09C
:1019DC00174B04221A6000F043FBFEF741FCFFF7A3
:1019EC0055FF20E0FFF704FC002000F0D3F903467C
:1019FC00002B08D020210F4800F0B9FE4FF47A716B
:101A0C00002000F06FF90020FFF758F90346002B77
:101A1C000BD0074B01221A6007E000BF06E000BFA5
:101A2C0004E000BF02E000BF00E000BF00BF80BDCB
:101A3C00F00000200008014080B500AF00F07EFBF4
:101A4C0000F018F800F09EF800F050F8074801F08C
:101A5C00D3FAFEF7C5FF064B01221A604FF47A70D9
:101A6C0000F014F9FFF728FFFCE700BF2801002065
:101A7C00F000002080B590B000AF07F118032822C9
:101A8C000021184601F068FE3B1D00221A605A60C6
:101A9C009A60DA601A610223BB610123BB621023D6
:101AAC00FB6200237B6307F11803184600F078FEF5
:101ABC000346002B01D000F0E3F80F237B600023DA
:101ACC00BB600023FB6000233B6100237B613B1D5B
:101ADC000021184601F0E4F80346002B01D000F079
:101AEC00CFF800BF4037BD4680BD000080B586B042
:101AFC0000AF07F1080300221A605A609A60DA609E
:101B0C003B4600221A605A601D4B4FF080421A600F
:101B1C001B4B41F63F725A60194B00229A60184BCE
:101B2C000922DA60164B00221A61154B00229A61C9
:101B3C00134801F011FA0346002B01D000F0A0F875
:101B4C004FF48053BB6007F1080319460C4801F0B1
:101B5C008FFB0346002B01D000F092F800233B6072
:101B6C0000237B603B461946054801F067FD0346A0
:101B7C00002B01D000F084F800BF1837BD4680BDA3
:101B8C002801002080B588B000AF07F110030022B7
:101B9C001A605A609A60DA602F4B9B692E4A43F0A8
:101BAC00100393612C4B9B6903F01003FB60FB68E3
:101BBC00294B9B69284A43F004039361264B9B698C
:101BCC0003F00403BB60BB68234B9B69224A43F0C0
:101BDC0008039361204B9B6903F008037B607B68CF
:101BEC00002243F6FE711D4800F0A9FD00224FF6BD
:101BFC00FF711B4800F0A3FD4FF460433B610023D1
:101C0C007B610123BB6107F110031946154800F0F5
:101C1C0005FC43F6FE733B6101237B610023BB6132
:101C2C000223FB6107F1100319460C4800F0F6FB88
:101C3C004FF6FF733B6101237B610023BB610223E1
:101C4C00FB6107F110031946054800F0E7FB00BFE4
:101C5C002037BD4680BD00BF001002400008014087
:101C6C00000C01400010014080B582B000AF7860DC
:101C7C0000F060F8FEF71AFF00BF0837BD4680BDC4
:101C8C0080B400AF72B600BFFEE7000080B485B030
:101C9C0000AF78607B68104A82FB03129210DB174E
:101CAC00D31ABB600023FB600CE00C49FB68BA68DC
:101CBC0041F823200A4AFB68002142F82310FB68F4
:101CCC000133FB60FB68052BEFDD00BF00BF143751
:101CDC00BD4680BC704700BF67666666F400002096
:101CEC000C01002080B483B000AF786039607B6851
:101CFC00002B13DB7B68052B10DC3B680A4A82FB4C
:101D0C0003129210DB17D21A08497B6841F8232082
:101D1C00074A7B68002142F8231000E000BF0C3713
:101D2C00BD4680BC704700BF67666666F400002045
:101D3C000C01002080B483B000AF00237B601CE05A
:101D4C00124A7B6852F82330002B13DD0F4A7B6854
:101D5C0052F823305A1E0D497B6841F823200B4A58
:101D6C007B6852F82330002B04DC094A7B68012184
:101D7C0042F823107B6801337B607B68052BDFDD29
:101D8C0000BF00BF0C37BD4680BC7047F40000207C
:101D9C000C01002080B483B000AF78607B68002B0E
:101DAC0002DB7B68052B01DD002303E0044A7B6822
:101DBC0052F8233018460C37BD4680BC704700BF24
:101DCC000C01002080B483B000AF78607B68002BDE
:101DDC0002DB7B68052B01DD002303E0044A7B68F2
:101DEC0052F8233018460C37BD4680BC704700BFF4
:101DFC00F400002080B485B000AF154B9B69144AE9
:101E0C0043F001039361124B9B6903F00103BB6028
:101E1C00BB680F4BDB690E4A43F08053D3610C4B0C
:101E2C00DB6903F080537B607B680A4B5B68FB606B
:101E3C00FB6823F0E063FB60FB6843F08063FB60AE
:101E4C00044AFB68536000BF1437BD4680BC704722
:101E5C00001002400000014080B584B000AF7860F3
:101E6C007B681B68B3F1804F13D10C4BDB690B4AB9
:101E7C0043F00103D361094BDB6903F00103FB6001
:101E8C00FB68002200211C2000F091FA1C2000F0BD
:101E9C00AAFA00BF1037BD4680BD00BF001002403B
:101EAC0080B400AFFEE780B400AFFEE780B400AFB3
:101EBC00FEE780B400AFFEE780B400AFFEE780B46D
:101ECC0000AF00BFBD4680BC704780B400AF00BF00
:101EDC00BD4680BC704780B400AF00BFBD4680BC1F
:101EEC00704780B500AF00F06FF900BF80BD0000F7
:101EFC0080B500AF024801F0CBF800BF80BD00BF39
:101F0C002801002080B400AF00BFBD4680BC7047E4
:101F1C0080B500AF002202210A4800F010FC01221B
:101F2C000421084800F00BFC00224FF48071054896
:101F3C0000F005FC01224FF40071024800F0FFFB99
:101F4C0000BF80BD0008014080B500AF0122022116
:101F5C000A4800F0F4FB00220821084800F0EFFBCF
:101F6C0001224FF48071054800F0E9FB00224FF488
:101F7C008061024800F0E3FB00BF80BD0008014017
:101F8C0080B500AF012208210A4800F0D8FB0022DE
:101F9C000421084800F0D3FB01224FF4806105486E
:101FAC0000F0CDFB00224FF40071024800F0C7FB9B
:101FBC0000BF80BD0008014080B500AF0022102199
:101FCC000A4800F0BCFB01224021084800F0B7FB96
:101FDC0000224FF40061054800F0B1FB01224FF4E0
:101FEC008051024800F0ABFB00BF80BD00080140EF
:101FFC0080B500AF012210210A4800F0A0FB00229E
:10200C008021084800F09BFB01224FF40061054839
:10201C0000F095FB00224FF40051024800F08FFBBA
:10202C0000BF80BD0008014080B500AF01228021B7
:10203C000A4800F084FB00224021084800F07FFB96
:10204C0001224FF40051054800F079FB00224FF4B7
:10205C008051024800F073FB00BF80BD00080140B6
:10206C0080B500AF01220221204800F068FB01225C
:10207C0004211E4800F063FB012208211B4800F0DC
:10208C005EFB01221021194800F059FB012240216E
:10209C00164800F054FB01228021144800F04FFB3D
:1020AC0001224FF48071114800F049FB01224FF4DA
:1020BC0000710E4800F043FB01224FF480610B4885
:1020CC0000F03DFB01224FF40061084800F037FBA3
:1020DC0001224FF48051054800F031FB01224FF4EE
:1020EC000051024800F02BFB00BF80BD00080140EE
:1020FC00FFF708FF0B480C490C4A002302E0D458A8
:10210C00C4500433C4188C42F9D3094A094C002337
:10211C0001E013600432A242FBD301F0F9FAFFF79D
:10212C008BFC70470000002028000020B837000806
:10213C002800002074010020FEE7000080B500AFED
:10214C00084B1B68074A43F010031360032000F090
:10215C0023F90F2000F008F8FFF74CFE0023184677
:10216C0080BD00BF0020024080B582B000AF786017
:10217C00124B1A68124B1B7819464FF47A73B3FB47
:10218C00F1F3B2FBF3F3184600F03BF90346002BD6
:10219C0001D001230EE07B680F2B0AD8002279684E
:1021AC004FF0FF3000F003F9064A7B681360002300
:1021BC0000E0012318460837BD4680BD1C000020F6
:1021CC00240000202000002080B400AF054B1B78B9
:1021DC001A46054B1B681344034A136000BFBD46E7
:1021EC0080BC7047240000207001002080B400AF38
:1021FC00024B1B681846BD4680BC7047700100201E
:10220C0080B485B000AF78607B6803F00703FB6097
:10221C000C4BDB68BB60BA684FF6FF031340BB6026
:10222C00FB681A02BB68134343F0BF6343F40033EB
:10223C00BB60044ABB68D36000BF1437BD4680BC8A
:10224C00704700BF00ED00E080B400AF044BDB68CA
:10225C001B0A03F007031846BD4680BC704700BF3D
:10226C0000ED00E080B483B000AF0346FB7197F93A
:10227C000730002B0BDBFB7903F01F02064997F9A3
:10228C0007305B09012000FA02F241F8232000BF5D
:10229C000C37BD4680BC704700E100E080B483B0D1
:1022AC0000AF03463960FB7197F90730002B0ADB4E
:1022BC003B68DAB20C4997F907301201D2B20B44E1
:1022CC0083F800230AE03B68DAB20849FB7903F093
:1022DC000F03043B1201D2B20B441A7600BF0C3729
:1022EC00BD4680BC704700BF00E100E000ED00E09F
:1022FC0080B489B000AFF860B9607A60FB6803F015
:10230C000703FB61FB69C3F10703042B28BF0423FC
:10231C00BB61FB690433062B02D9FB69033B00E06C
:10232C0000237B614FF0FF32BB6902FA03F3DA43FF
:10233C00BB681A407B699A404FF0FF317B6901FA08
:10234C0003F3D9437B680B40134318462437BD462F
:10235C0080BC704780B582B000AF78607B68013B71
:10236C00B3F1807F01D301230FE00A4A7B68013B64
:10237C0053600F214FF0FF30FFF790FF054B002209
:10238C009A60044B07221A60002318460837BD4692
:10239C0080BD00BF10E000E080B582B000AF786077
:1023AC007868FFF72DFF00BF0837BD4680BD80B5AC
:1023BC0086B000AF0346B9607A60FB7300237B6183
:1023CC00FFF742FF78617A68B9687869FFF790FF88
:1023DC00024697F90F3011461846FFF75FFF00BF12
:1023EC001837BD4680BD80B582B000AF0346FB7187
:1023FC0097F907301846FFF735FF00BF0837BD4681
:10240C0080BD80B582B000AF78607868FFF7A2FF1E
:10241C00034618460837BD4680BD000080B48BB01B
:10242C0000AF7860396000237B6200233B6248E197
:10243C0001227B6A02FA03F3FB613B681B68FA69B1
:10244C001340BB61BA69FB699A4240F037813B6823
:10245C005B68A34A93425ED0A14A934275D8A14AC5
:10246C00934258D09F4A93426FD89F4A934252D07E
:10247C009D4A934269D89D4A93424CD09B4A9342C1
:10248C0063D89B4A934246D0994A93425DD8122B0B
:10249C002AD8122B59D801A252F823F02325000870
:1024AC00FD2400080F2500085125000857250008B9
:1024BC005725000857250008572500085725000800
:1024CC0057250008572500085725000857250008F0
:1024DC0057250008572500085725000857250008E0
:1024EC000525000819250008824A934213D02CE0D8
:1024FC003B68DB683B6229E03B68DB6804333B628A
:10250C0024E03B68DB6808333B621FE03B68DB6818
:10251C000C333B621AE03B689B68002B02D104230E
:10252C003B6213E03B689B68012B05D108233B629F
:10253C007B68FA691A6109E008233B627B68FA69D7
:10254C005A6103E000233B6200E000BFBB69FF2B34
:10255C0001D87B6801E07B6804337B61BB69FF2B8E
:10256C0002D87B6A9B0002E07B6A083B9B003B61C4
:10257C007B691A680F213B6901FA03F3DB431A40AC
:10258C00396A3B6901FA03F31A437B691A603B68A9
:10259C005B6803F08053002B00F09080564B9B69D6
:1025AC00554A43F001039361534B9B6903F00103BC
:1025BC00BB60BB68514A7B6A9B08023352F82330DC
:1025CC00FB607B6A03F003039B000F2202FA03F308
:1025DC00DB43FA681340FB607B68494A93420DD099
:1025EC007B68484A934207D07B68474A934201D1A3
:1025FC00022304E0032302E0012300E000237A6AB3
:10260C0002F0030292009340FA681343FB603B49CB
:10261C007B6A9B080233FA6841F823203B685B68AD
:10262C0003F48013002B06D0384B9A683749BB69EA
:10263C0013438B6006E0354B9A68BB69DB43334927
:10264C0013408B603B685B6803F40013002B06D0CF
:10265C002E4BDA682D49BB691343CB6006E02B4B3C
:10266C00DA68BB69DB4329491340CB603B685B6884
:10267C0003F40033002B06D0244B5A682349BB6962
:10268C0013434B6006E0214B5A68BB69DB431F497F
:10269C0013404B603B685B6803F48033002B06D01F
:1026AC001A4B1A681949BB6913430B6006E0174BA8
:1026BC001A68BB69DB43154913400B607B6A013315
:1026CC007B623B681A687B6A22FA03F3002B7FF467
:1026DC00AFAE00BF00BF2C37BD4680BC704700BFFB
:1026EC0000003210000031100000221000002110F8
:1026FC0000001210000011100010024000000140F8
:10270C0000080140000C0140001001400004014091
:10271C0080B485B000AF78600B467B807B689A688C
:10272C007B881340002B02D00123FB7301E00023B4
:10273C00FB73FB7B18461437BD4680BC704780B4D6
:10274C0083B000AF78600B467B8013467B707B7840
:10275C00002B03D07A887B681A6103E07B881A040B
:10276C007B681A6100BF0C37BD4680BC704780B4D3
:10277C0085B000AF78600B467B807B68DB68FB60C4
:10278C007A88FB6813401A04FB68D9437B880B409A
:10279C001A437B681A6100BF1437BD4680BC704772
:1027AC0080B586B000AF78607B68002B01D1012327
:1027BC006CE27B681B6803F00103002B00F0878040
:1027CC00924B5B6803F00C03042B0CD08F4B5B68B3
:1027DC0003F00C03082B12D18C4B5B6803F4803391
:1027EC00B3F5803F0BD1894B1B6803F40033002BEE
:1027FC006CD07B685B68002B68D1012346E27B6858
:10280C005B68B3F5803F06D1804B1B687F4A43F46D
:10281C00803313602EE07B685B68002B0CD17B4B04
:10282C001B687A4A23F480331360784B1B68774A11
:10283C0023F4802313601DE07B685B68B3F5A02F45
:10284C000CD1724B1B68714A43F4802313606F4B9D
:10285C001B686E4A43F4803313600BE06B4B1B68B0
:10286C006A4A23F480331360684B1B68674A23F46D
:10287C00802313607B685B68002B13D0FFF7B6FCDA
:10288C00386108E0FFF7B2FC02463B69D31A642BAF
:10289C0001D90323FAE15D4B1B6803F40033002BD1
:1028AC00F0D014E0FFF7A2FC386108E0FFF79EFCC3
:1028BC0002463B69D31A642B01D90323E6E1534B3F
:1028CC001B6803F40033002BF0D100E000BF7B68E1
:1028DC001B6803F00203002B63D04C4B5B6803F0C6
:1028EC000C03002B0BD0494B5B6803F00C03082B3B
:1028FC001CD1464B5B6803F48033002B16D1434B41
:10290C001B6803F00203002B05D07B681B69012BAD
:10291C0001D00123BAE13D4B1B6823F0F8027B6820
:10292C005B69DB00394913430B603AE07B681B6938
:10293C00002B20D0364B01221A60FFF757FC386170
:10294C0008E0FFF753FC02463B69D31A022B01D96E
:10295C0003239BE12D4B1B6803F00203002BF0D0EB
:10296C002A4B1B6823F0F8027B685B69DB00274964
:10297C0013430B6015E0264B00221A60FFF736FC60
:10298C00386108E0FFF732FC02463B69D31A022B90
:10299C0001D903237AE11D4B1B6803F00203002BC2
:1029AC00F0D17B681B6803F00803002B3AD07B68DE
:1029BC009B69002B19D0174B01221A60FFF716FCEC
:1029CC00386108E0FFF712FC02463B69D31A022B70
:1029DC0001D903235AE10D4B5B6A03F00203002B70
:1029EC00F0D0012000F09AFA1CE00A4B00221A6089
:1029FC00FFF7FCFB38610FE0FFF7F8FB02463B6981
:102A0C00D31A022B08D9032340E100BF0010024067
:102A1C0000004242800442429E4B5B6A03F0020378
:102A2C00002BE9D17B681B6803F00403002B00F03A
:102A3C00A6800023FB75974BDB6903F08053002BBA
:102A4C000DD1944BDB69934A43F08053D361914B86
:102A5C00DB6903F08053BB60BB680123FB758E4BB5
:102A6C001B6803F48073002B18D18B4B1B688A4AAC
:102A7C0043F480731360FFF7B9FB386108E0FFF78C
:102A8C00B5FB02463B69D31A642B01D90323FDE045
:102A9C00814B1B6803F48073002BF0D07B68DB68E0
:102AAC00012B06D17B4B1B6A7A4A43F0010313625C
:102ABC002DE07B68DB68002B0CD1764B1B6A754ACA
:102ACC0023F001031362734B1B6A724A23F0040355
:102ADC0013621CE07B68DB68052B0CD16D4B1B6A09
:102AEC006C4A43F0040313626A4B1B6A694A43F055
:102AFC00010313620BE0674B1B6A664A23F0010368
:102B0C001362644B1B6A634A23F0040313627B68F1
:102B1C00DB68002B15D0FFF769FB38610AE0FFF783
:102B2C0065FB02463B69D31A41F28832934201D9C4
:102B3C000323ABE0574B1B6A03F00203002BEED0D0
:102B4C0014E0FFF753FB38610AE0FFF74FFB024636
:102B5C003B69D31A41F28832934201D9032395E0A1
:102B6C004C4B1B6A03F00203002BEED1FB7D012BB7
:102B7C0005D1484BDB69474A23F08053D3617B680E
:102B8C00DB69002B00F08180424B5B6803F00C0387
:102B9C00082B61D07B68DB69022B46D13F4B0022AE
:102BAC001A60FFF723FB386108E0FFF71FFB0246B2
:102BBC003B69D31A022B01D9032367E0354B1B6801
:102BCC0003F00073002BF0D17B681B6AB3F5803FD8
:102BDC0008D1304B5B6823F400327B689B682D492D
:102BEC0013434B602B4B5B6823F474127B68196A9C
:102BFC007B685B6A0B43274913434B60274B0122CD
:102C0C001A60FFF7F3FA386108E0FFF7EFFA0246B3
:102C1C003B69D31A022B01D9032337E01D4B1B68E8
:102C2C0003F00073002BF0D02FE01C4B00221A6035
:102C3C00FFF7DCFA386108E0FFF7D8FA02463B6987
:102C4C00D31A022B01D9032320E0124B1B6803F08B
:102C5C000073002BF0D118E07B68DB69012B01D1EC
:102C6C00012313E00B4B5B68FB60FB6803F48032C1
:102C7C007B681B6A9A4206D1FB6803F470127B686E
:102C8C005B6A9A4201D0012300E0002318461837F2
:102C9C00BD4680BD00100240007000406000424202
:102CAC0080B584B000AF786039607B68002B01D1AF
:102CBC000123D0E06A4B1B6803F007033A689A4281
:102CCC0010D9674B1B6823F0070265493B68134317
:102CDC000B60634B1B6803F007033A689A4201D000
:102CEC000123B8E07B681B6803F00203002B20D0A3
:102CFC007B681B6803F00403002B05D0594B5B6801
:102D0C00584A43F4E06353607B681B6803F0080384
:102D1C00002B05D0534B5B68524A43F4605353600D
:102D2C00504B5B6823F0F0027B689B684D49134362
:102D3C004B607B681B6803F00103002B40D07B6861
:102D4C005B68012B07D1474B1B6803F40033002B46
:102D5C0015D101237FE07B685B68022B07D1414BC7
:102D6C001B6803F00073002B09D1012373E03D4B6A
:102D7C001B6803F00203002B01D101236BE0394BDC
:102D8C005B6823F003027B685B68364913434B6036
:102D9C00FFF72CFAF8600AE0FFF728FA0246FB6806
:102DAC00D31A41F28832934201D9032353E02D4BBD
:102DBC005B6803F00C027B685B689B009A42EBD16A
:102DCC00274B1B6803F007033A689A4210D2244B36
:102DDC001B6823F0070222493B6813430B60204B0E
:102DEC001B6803F007033A689A4201D0012332E0D2
:102DFC007B681B6803F00403002B08D0194B5B683D
:102E0C0023F4E0627B68DB68164913434B607B68F4
:102E1C001B6803F00803002B09D0124B5B6823F4EA
:102E2C0060527B681B69DB000E4913434B6000F05A
:102E3C0021F802460B4B5B681B0903F00F030A4990
:102E4C00CB5C22FA03F3094A1360094B1B68184642
:102E5C00FFF78AF9002318461037BD4680BD00BF26
:102E6C0000200240001002408C3700081C0000209B
:102E7C002000002080B487B000AF0023FB6000234B
:102E8C00BB6000237B6100237B6000233B611E4BF6
:102E9C005B68FB60FB6803F00C03042B02D0082B6F
:102EAC0003D027E0194B3B6127E0FB689B0C03F038
:102EBC000F03174AD35C7B60FB6803F48033002B51
:102ECC0010D0114B5B685B0C03F00103114AD35C0F
:102EDC00BB607B680D4A02FB03F2BB68B2FBF3F3E9
:102EEC007B6104E07B680C4A02FB03F37B617B692A
:102EFC003B6102E0054B3B6100BF3B6918461C3748
:102F0C00BD4680BC704700BF0010024000127A0022
:102F1C009C370008AC37000800093D0080B485B030
:102F2C0000AF78600A4B1B680A4AA2FB03235B0ABA
:102F3C007A6802FB03F3FB6000BFFB685A1EFA6061
:102F4C00002BF9D100BF00BF1437BD4680BC7047C1
:102F5C001C000020D34D621080B582B000AF7860A9
:102F6C007B68002B01D1012341E07B6893F83D3055
:102F7C00DBB2002B06D17B68002283F83C207868FA
:102F8C00FEF76AFF7B68022283F83D207B681A6893
:102F9C007B6804331946104600F056FA7B68012210
:102FAC0083F846207B68012283F83E207B6801224F
:102FBC0083F83F207B68012283F840207B68012244
:102FCC0083F841207B68012283F842207B68012230
:102FDC0083F843207B68012283F844207B6801221C
:102FEC0083F845207B68012283F83D200023184696
:102FFC000837BD4680BD000080B485B000AF786056
:10300C007B6893F83D30DBB2012B01D0012335E016
:10301C007B68022283F83D207B681B68DA687B683A
:10302C001B6842F00102DA607B681B68164A934207
:10303C0009D07B681B68B3F1804F04D07B681B6898
:10304C00124A934211D17B681B689B6803F00703FB
:10305C00FB60FB68062B10D07B681B681A687B68CA
:10306C001B6842F001021A6007E07B681B681A6853
:10307C007B681B6842F001021A6000231846143763
:10308C00BD4680BC704700BF002C014000040040CE
:10309C0080B584B000AF78607B681B68DB68FB6030
:1030AC007B681B681B69BB60BB6803F00203002BC9
:1030BC0020D0FB6803F00203002B1BD07B681B683D
:1030CC006FF002021A617B6801221A777B681B6819
:1030DC009B6903F00303002B03D0786800F098F988
:1030EC0005E0786800F08BF9786800F09AF97B6855
:1030FC0000221A77BB6803F00403002B20D0FB6876
:10310C0003F00403002B1BD07B681B686FF00402D8
:10311C001A617B6802221A777B681B689B6903F42F
:10312C004073002B03D0786800F072F905E07868E2
:10313C0000F065F9786800F074F97B6800221A7762
:10314C00BB6803F00803002B20D0FB6803F00803D6
:10315C00002B1BD07B681B686FF008021A617B6820
:10316C0004221A777B681B68DB6903F00303002BCE
:10317C0003D0786800F04CF905E0786800F03FF96E
:10318C00786800F04EF97B6800221A77BB6803F070
:10319C001003002B20D0FB6803F01003002B1BD076
:1031AC007B681B686FF010021A617B6808221A7723
:1031BC007B681B68DB6903F44073002B03D07868D1
:1031CC0000F026F905E0786800F019F9786800F04D
:1031DC0028F97B6800221A77BB6803F00103002BE7
:1031EC000CD0FB6803F00103002B07D07B681B6835
:1031FC006FF001021A617868FEF736FDBB6803F0C8
:10320C008003002B0CD0FB6803F08003002B07D04D
:10321C007B681B686FF080021A61786800F06FFAA7
:10322C00BB6803F04003002B0CD0FB6803F0400399
:10323C00002B07D07B681B686FF040021A6178681E
:10324C0000F0F8F8BB6803F02003002B0CD0FB68EF
:10325C0003F02003002B07D07B681B686FF0200263
:10326C001A61786800F042FA00BF1037BD4680BD85
:10327C0080B584B000AF786039600023FB737B6845
:10328C0093F83C30012B01D10223B4E07B6801227E
:10329C0083F83C207B68022283F83D207B681B6806
:1032AC009B68BB60BB6823F07703BB60BB6823F4EF
:1032BC007F43BB607B681B68BA689A603B681B687D
:1032CC00B3F5005F3ED0B3F5005F00F28780B3F535
:1032DC00805F00F08680B3F5805F7FD8702B1AD0AA
:1032EC00702B7BD8602B50D0602B77D8502B3CD0D8
:1032FC00502B73D8402B58D0402B6FD8302B64D028
:10330C00302B6BD8202B60D0202B67D8002B5CD0B7
:10331C00102B5AD062E07B6818683B6899683B6850
:10332C005A683B68DB6800F06AF97B681B689B682D
:10333C00BB60BB6843F07703BB607B681B68BA68F3
:10334C009A604FE07B6818683B6899683B685A68DC
:10335C003B68DB6800F053F97B681B689A687B68F4
:10336C001B6842F480429A603CE07B6818683B68BA
:10337C0059683B68DB681A4600F0CAF87B681B6822
:10338C005021184600F021F92CE07B6818683B6846
:10339C0059683B68DB681A4600F0E8F87B681B68E4
:1033AC006021184600F011F91CE07B6818683B6836
:1033BC0059683B68DB681A4600F0AAF87B681B6802
:1033CC004021184600F001F90CE07B681A683B6854
:1033DC001B681946104600F0F8F803E00123FB7354
:1033EC0000E000BF7B68012283F83D207B6800224F
:1033FC0083F83C20FB7B18461037BD4680BD80B45B
:10340C0083B000AF786000BF0C37BD4680BC7047FE
:10341C0080B483B000AF786000BF0C37BD4680BC71
:10342C00704780B483B000AF786000BF0C37BD46E6
:10343C0080BC704780B483B000AF786000BF0C379D
:10344C00BD4680BC7047000080B485B000AF78608A
:10345C0039607B681B68FB607B682B4A934207D002
:10346C007B68B3F1804F03D07B68284A934208D124
:10347C00FB6823F07003FB603B685B68FA681343DE
:10348C00FB607B68204A934207D07B68B3F1804F86
:10349C0003D07B681D4A934208D1FB6823F4407328
:1034AC00FB603B68DB68FA681343FB60FB6823F046
:1034BC0080023B685B691343FB607B68FA681A60A7
:1034CC003B689A687B68DA623B681A687B689A6228
:1034DC007B680D4A934203D13B681A697B681A6377
:1034EC007B6801225A617B681B6903F00103002B86
:1034FC0005D07B681B6923F001027B681A6100BF51
:10350C001437BD4680BC7047002C014000040040BD
:10351C0080B487B000AFF860B9607A60FB681B6A52
:10352C007B61FB681B6A23F00102FB681A62FB6873
:10353C009B693B613B6923F0F0033B617B681B019A
:10354C003A6913433B617B6923F00A037B617A6917
:10355C00BB6813437B61FB683A699A61FB687A69C3
:10356C001A6200BF1C37BD4680BC704780B487B060
:10357C0000AFF860B9607A60FB681B6A7B61FB681E
:10358C001B6A23F01002FB681A62FB689B693B61A3
:10359C003B6923F470433B617B681B033A6913431B
:1035AC003B617B6923F0A0037B61BB681B017A69DB
:1035BC0013437B61FB683A699A61FB687A691A620A
:1035CC0000BF1C37BD4680BC704780B485B000AFCF
:1035DC00786039607B689B68FB60FB6823F0700344
:1035EC00FB603A68FB68134343F00703FB607B689E
:1035FC00FA689A6000BF1437BD4680BC704780B42F
:10360C0087B000AFF860B9607A603B60FB689B687C
:10361C007B617B6923F47F437B613B681A027B6887
:10362C001A43BB6813437A6913437B61FB687A695D
:10363C009A6000BF1C37BD4680BC704780B485B013
:10364C0000AF786039607B6893F83C30012B01D176
:10365C00022341E07B68012283F83C207B68022234
:10366C0083F83D207B681B685B68FB607B681B688C
:10367C009B68BB60FB6823F07003FB603B681B68B6
:10368C00FA681343FB607B681B68FA685A607B68B6
:10369C001B68144A934209D07B681B68B3F1804FB6
:1036AC0004D07B681B68104A93420CD1BB6823F092
:1036BC008003BB603B685B68BA681343BB607B6884
:1036CC001B68BA689A607B68012283F83D207B688E
:1036DC00002283F83C20002318461437BD4680BCDA
:1036EC00704700BF002C01400004004080B483B040
:1036FC0000AF786000BF0C37BD4680BC704780B40B
:10370C0083B000AF786000BF0C37BD4680BC7047FB
:10371C0070B500260C4D0D4C641BA410A64209D1AB
:10372C0000F022F800260A4D0A4C641BA410A64295
:10373C0005D170BD55F8043B98470136EEE755F8B6
:10374C00043B98470136F2E7B0370008B037000861
:10375C00B0370008B437000803460244934200D146
:10376C00704703F8011BF9E7F8B500BFF8BC08BCBB
:10377C009E467047F8B500BFF8BC08BC9E46704723
:10378C000000000000000000010203040607080905
:10379C0002030405060708090A0B0C0D0E0F101086
:0437AC000102000016
:0437B00031010008DB
:0437B4000D010008FB
:1037B80000100140001001400010014000200040AE
:1037C80000800000140000000B00000000127A00C6
:0837D8001000000001000000D8
:04000005080020FDD2
:00000001FF
